{"contracts/soulboundSecurity.sol":{"SoulBoundSecurity":{"abi":[{"inputs":[],"stateMutability":"nonpayable","type":"constructor"},{"anonymous":false,"inputs":[{"indexed":true,"internalType":"address","name":"owner","type":"address"},{"indexed":true,"internalType":"address","name":"approved","type":"address"},{"indexed":true,"internalType":"uint256","name":"tokenId","type":"uint256"}],"name":"Approval","type":"event"},{"anonymous":false,"inputs":[{"indexed":true,"internalType":"address","name":"owner","type":"address"},{"indexed":true,"internalType":"address","name":"operator","type":"address"},{"indexed":false,"internalType":"bool","name":"approved","type":"bool"}],"name":"ApprovalForAll","type":"event"},{"anonymous":false,"inputs":[{"indexed":false,"internalType":"uint256","name":"_fromTokenId","type":"uint256"},{"indexed":false,"internalType":"uint256","name":"_toTokenId","type":"uint256"}],"name":"BatchMetadataUpdate","type":"event"},{"anonymous":false,"inputs":[{"indexed":false,"internalType":"uint256","name":"_tokenId","type":"uint256"}],"name":"MetadataUpdate","type":"event"},{"anonymous":false,"inputs":[{"indexed":true,"internalType":"address","name":"previousOwner","type":"address"},{"indexed":true,"internalType":"address","name":"newOwner","type":"address"}],"name":"OwnershipTransferred","type":"event"},{"anonymous":false,"inputs":[{"indexed":false,"internalType":"string","name":"projectName","type":"string"}],"name":"ProjectAdded","type":"event"},{"anonymous":false,"inputs":[{"indexed":true,"internalType":"address","name":"from","type":"address"},{"indexed":true,"internalType":"address","name":"to","type":"address"},{"indexed":true,"internalType":"uint256","name":"tokenId","type":"uint256"}],"name":"Transfer","type":"event"},{"inputs":[{"internalType":"address","name":"_token","type":"address"}],"name":"allowToken","outputs":[],"stateMutability":"nonpayable","type":"function"},{"inputs":[{"internalType":"address","name":"","type":"address"}],"name":"allowTokens","outputs":[{"internalType":"bool","name":"","type":"bool"}],"stateMutability":"view","type":"function"},{"inputs":[{"internalType":"address","name":"to","type":"address"},{"internalType":"uint256","name":"tokenId","type":"uint256"}],"name":"approve","outputs":[],"stateMutability":"nonpayable","type":"function"},{"inputs":[{"internalType":"address","name":"owner","type":"address"}],"name":"balanceOf","outputs":[{"internalType":"uint256","name":"","type":"uint256"}],"stateMutability":"view","type":"function"},{"inputs":[{"internalType":"uint256","name":"tokenId","type":"uint256"}],"name":"burn","outputs":[],"stateMutability":"nonpayable","type":"function"},{"inputs":[{"internalType":"string","name":"projectName","type":"string"},{"internalType":"address","name":"ownerAddr","type":"address"}],"name":"changeProjectOwner","outputs":[],"stateMutability":"nonpayable","type":"function"},{"inputs":[{"internalType":"string","name":"projectName","type":"string"},{"internalType":"address","name":"projectOwner","type":"address"}],"name":"createProject","outputs":[],"stateMutability":"nonpayable","type":"function"},{"inputs":[{"internalType":"uint256","name":"tokenId","type":"uint256"}],"name":"getApproved","outputs":[{"internalType":"address","name":"","type":"address"}],"stateMutability":"view","type":"function"},{"inputs":[{"internalType":"address","name":"owner","type":"address"},{"internalType":"address","name":"operator","type":"address"}],"name":"isApprovedForAll","outputs":[{"internalType":"bool","name":"","type":"bool"}],"stateMutability":"view","type":"function"},{"inputs":[{"internalType":"address","name":"_token","type":"address"},{"internalType":"uint256","name":"_amt","type":"uint256"},{"internalType":"string","name":"projectName","type":"string"}],"name":"makePayment","outputs":[],"stateMutability":"nonpayable","type":"function"},{"inputs":[{"internalType":"address","name":"to","type":"address"},{"internalType":"string","name":"projectName","type":"string"}],"name":"mint","outputs":[],"stateMutability":"nonpayable","type":"function"},{"inputs":[],"name":"name","outputs":[{"internalType":"string","name":"","type":"string"}],"stateMutability":"view","type":"function"},{"inputs":[],"name":"owner","outputs":[{"internalType":"address","name":"","type":"address"}],"stateMutability":"view","type":"function"},{"inputs":[{"internalType":"uint256","name":"tokenId","type":"uint256"}],"name":"ownerOf","outputs":[{"internalType":"address","name":"","type":"address"}],"stateMutability":"view","type":"function"},{"inputs":[{"internalType":"string","name":"","type":"string"}],"name":"projects","outputs":[{"internalType":"string","name":"name","type":"string"},{"internalType":"address","name":"owner","type":"address"},{"internalType":"bool","name":"active","type":"bool"},{"internalType":"uint256","name":"nextPaymentDue","type":"uint256"}],"stateMutability":"view","type":"function"},{"inputs":[{"internalType":"address","name":"_token","type":"address"}],"name":"removeToken","outputs":[],"stateMutability":"nonpayable","type":"function"},{"inputs":[],"name":"renounceOwnership","outputs":[],"stateMutability":"nonpayable","type":"function"},{"inputs":[{"internalType":"address","name":"from","type":"address"},{"internalType":"address","name":"to","type":"address"},{"internalType":"uint256","name":"tokenId","type":"uint256"}],"name":"safeTransferFrom","outputs":[],"stateMutability":"nonpayable","type":"function"},{"inputs":[{"internalType":"address","name":"from","type":"address"},{"internalType":"address","name":"to","type":"address"},{"internalType":"uint256","name":"tokenId","type":"uint256"},{"internalType":"bytes","name":"data","type":"bytes"}],"name":"safeTransferFrom","outputs":[],"stateMutability":"nonpayable","type":"function"},{"inputs":[{"internalType":"address","name":"operator","type":"address"},{"internalType":"bool","name":"approved","type":"bool"}],"name":"setApprovalForAll","outputs":[],"stateMutability":"nonpayable","type":"function"},{"inputs":[{"internalType":"uint256","name":"_fee","type":"uint256"}],"name":"setFee","outputs":[],"stateMutability":"nonpayable","type":"function"},{"inputs":[{"internalType":"bytes4","name":"interfaceId","type":"bytes4"}],"name":"supportsInterface","outputs":[{"internalType":"bool","name":"","type":"bool"}],"stateMutability":"view","type":"function"},{"inputs":[],"name":"symbol","outputs":[{"internalType":"string","name":"","type":"string"}],"stateMutability":"view","type":"function"},{"inputs":[{"internalType":"uint256","name":"","type":"uint256"}],"name":"tokenProjects","outputs":[{"internalType":"string","name":"","type":"string"}],"stateMutability":"view","type":"function"},{"inputs":[{"internalType":"uint256","name":"tokenId","type":"uint256"}],"name":"tokenURI","outputs":[{"internalType":"string","name":"","type":"string"}],"stateMutability":"view","type":"function"},{"inputs":[{"internalType":"address","name":"from","type":"address"},{"internalType":"address","name":"to","type":"address"},{"internalType":"uint256","name":"tokenId","type":"uint256"}],"name":"transferFrom","outputs":[],"stateMutability":"nonpayable","type":"function"},{"inputs":[{"internalType":"address","name":"newOwner","type":"address"}],"name":"transferOwnership","outputs":[],"stateMutability":"nonpayable","type":"function"},{"inputs":[{"internalType":"string","name":"projectName","type":"string"},{"internalType":"bool","name":"active","type":"bool"}],"name":"updateProjectStatus","outputs":[],"stateMutability":"nonpayable","type":"function"}],"evm":{"bytecode":{"linkReferences":{},"object":"6080604052674563918244f400006009553480156200001d57600080fd5b506040518060400160405280601181526020017f536f756c426f756e6453656375726974790000000000000000000000000000008152506040518060400160405280600381526020017f534253000000000000000000000000000000000000000000000000000000000081525081600090816200009b91906200041e565b508060019081620000ad91906200041e565b505050620000d0620000c4620000d660201b60201c565b620000de60201b60201c565b62000505565b600033905090565b6000600760009054906101000a900473ffffffffffffffffffffffffffffffffffffffff16905081600760006101000a81548173ffffffffffffffffffffffffffffffffffffffff021916908373ffffffffffffffffffffffffffffffffffffffff1602179055508173ffffffffffffffffffffffffffffffffffffffff168173ffffffffffffffffffffffffffffffffffffffff167f8be0079c531659141344cd1fd0a4f28419497f9722a3daafe3b4186f6b6457e060405160405180910390a35050565b600081519050919050565b7f4e487b7100000000000000000000000000000000000000000000000000000000600052604160045260246000fd5b7f4e487b7100000000000000000000000000000000000000000000000000000000600052602260045260246000fd5b600060028204905060018216806200022657607f821691505b6020821081036200023c576200023b620001de565b5b50919050565b60008190508160005260206000209050919050565b60006020601f8301049050919050565b600082821b905092915050565b600060088302620002a67fffffffffffffffffffffffffffffffffffffffffffffffffffffffffffffffff8262000267565b620002b2868362000267565b95508019841693508086168417925050509392505050565b6000819050919050565b6000819050919050565b6000620002ff620002f9620002f384620002ca565b620002d4565b620002ca565b9050919050565b6000819050919050565b6200031b83620002de565b620003336200032a8262000306565b84845462000274565b825550505050565b600090565b6200034a6200033b565b6200035781848462000310565b505050565b5b818110156200037f576200037360008262000340565b6001810190506200035d565b5050565b601f821115620003ce57620003988162000242565b620003a38462000257565b81016020851015620003b3578190505b620003cb620003c28562000257565b8301826200035c565b50505b505050565b600082821c905092915050565b6000620003f360001984600802620003d3565b1980831691505092915050565b60006200040e8383620003e0565b9150826002028217905092915050565b6200042982620001a4565b67ffffffffffffffff811115620004455762000444620001af565b5b6200045182546200020d565b6200045e82828562000383565b600060209050601f83116001811462000496576000841562000481578287015190505b6200048d858262000400565b865550620004fd565b601f198416620004a68662000242565b60005b82811015620004d057848901518255600182019150602085019450602081019050620004a9565b86831015620004f05784890151620004ec601f891682620003e0565b8355505b6001600288020188555050505b505050505050565b61492780620005156000396000f3fe608060405234801561001057600080fd5b50600436106101c45760003560e01c80638da5cb5b116100f9578063b88d4fde11610097578063cab9167a11610071578063cab9167a146104ec578063d0def5211461051c578063e985e9c514610538578063f2fde38b14610568576101c4565b8063b88d4fde14610484578063c65579ad146104a0578063c87b56dd146104bc576101c4565b806395d89b41116100d357806395d89b41146104125780639d9db39214610430578063a22cb4651461044c578063b53472ef14610468576101c4565b80638da5cb5b146103a557806391c9b268146103c3578063959783c7146103f6576101c4565b806342966c68116101665780636352211e116101405780636352211e1461031f57806369fe0e2d1461034f57806370a082311461036b578063715018a61461039b576101c4565b806342966c68146102b75780634e5ee1c0146102d35780635fa7b58414610303576101c4565b8063095ea7b3116101a2578063095ea7b3146102475780631697a98f1461026357806323b872dd1461027f57806342842e0e1461029b576101c4565b806301ffc9a7146101c957806306fdde03146101f9578063081812fc14610217575b600080fd5b6101e360048036038101906101de9190612d1b565b610584565b6040516101f09190612d63565b60405180910390f35b610201610596565b60405161020e9190612e0e565b60405180910390f35b610231600480360381019061022c9190612e66565b610628565b60405161023e9190612ed4565b60405180910390f35b610261600480360381019061025c9190612f1b565b61066e565b005b61027d60048036038101906102789190613090565b610785565b005b610299600480360381019061029491906130ec565b6107f1565b005b6102b560048036038101906102b091906130ec565b610851565b005b6102d160048036038101906102cc9190612e66565b610871565b005b6102ed60048036038101906102e8919061313f565b610961565b6040516102fa9190612d63565b60405180910390f35b61031d6004803603810190610318919061313f565b610981565b005b61033960048036038101906103349190612e66565b6109e4565b6040516103469190612ed4565b60405180910390f35b61036960048036038101906103649190612e66565b610a6a565b005b6103856004803603810190610380919061313f565b610a7c565b604051610392919061317b565b60405180910390f35b6103a3610b33565b005b6103ad610b47565b6040516103ba9190612ed4565b60405180910390f35b6103dd60048036038101906103d89190613196565b610b71565b6040516103ed94939291906131df565b60405180910390f35b610410600480360381019061040b9190613257565b610c6c565b005b61041a610cb1565b6040516104279190612e0e565b60405180910390f35b61044a600480360381019061044591906132b3565b610d43565b005b61046660048036038101906104619190613322565b611042565b005b610482600480360381019061047d919061313f565b611058565b005b61049e60048036038101906104999190613403565b6110bb565b005b6104ba60048036038101906104b59190613090565b61111d565b005b6104d660048036038101906104d19190612e66565b611267565b6040516104e39190612e0e565b60405180910390f35b61050660048036038101906105019190612e66565b611279565b6040516105139190612e0e565b60405180910390f35b61053660048036038101906105319190613486565b611319565b005b610552600480360381019061054d91906134e2565b611405565b60405161055f9190612d63565b60405180910390f35b610582600480360381019061057d919061313f565b611499565b005b600061058f8261151c565b9050919050565b6060600080546105a590613551565b80601f01602080910402602001604051908101604052809291908181526020018280546105d190613551565b801561061e5780601f106105f35761010080835404028352916020019161061e565b820191906000526020600020905b81548152906001019060200180831161060157829003601f168201915b5050505050905090565b60006106338261157d565b6004600083815260200190815260200160002060009054906101000a900473ffffffffffffffffffffffffffffffffffffffff169050919050565b6000610679826109e4565b90508073ffffffffffffffffffffffffffffffffffffffff168373ffffffffffffffffffffffffffffffffffffffff16036106e9576040517f08c379a00000000000000000000000000000000000000000000000000000000081526004016106e0906135f4565b60405180910390fd5b8073ffffffffffffffffffffffffffffffffffffffff166107086115c8565b73ffffffffffffffffffffffffffffffffffffffff1614806107375750610736816107316115c8565b611405565b5b610776576040517f08c379a000000000000000000000000000000000000000000000000000000000815260040161076d90613686565b60405180910390fd5b61078083836115d0565b505050565b61078d611689565b80600b8360405161079e91906136e2565b908152602001604051809103902060010160006101000a81548173ffffffffffffffffffffffffffffffffffffffff021916908373ffffffffffffffffffffffffffffffffffffffff1602179055505050565b6108026107fc6115c8565b82611707565b610841576040517f08c379a00000000000000000000000000000000000000000000000000000000081526004016108389061376b565b60405180910390fd5b61084c83838361179c565b505050565b61086c838383604051806020016040528060008152506110bb565b505050565b61091633600a6000848152602001908152602001600020805461089390613551565b80601f01602080910402602001604051908101604052809291908181526020018280546108bf90613551565b801561090c5780601f106108e15761010080835404028352916020019161090c565b820191906000526020600020905b8154815290600101906020018083116108ef57829003601f168201915b5050505050611a95565b610955576040517f08c379a000000000000000000000000000000000000000000000000000000000815260040161094c906137fd565b60405180910390fd5b61095e81611b4c565b50565b600c6020528060005260406000206000915054906101000a900460ff1681565b610989611689565b6000600c60008373ffffffffffffffffffffffffffffffffffffffff1673ffffffffffffffffffffffffffffffffffffffff16815260200190815260200160002060006101000a81548160ff02191690831515021790555050565b6000806109f083611b58565b9050600073ffffffffffffffffffffffffffffffffffffffff168173ffffffffffffffffffffffffffffffffffffffff1603610a61576040517f08c379a0000000000000000000000000000000000000000000000000000000008152600401610a5890613869565b60405180910390fd5b80915050919050565b610a72611689565b8060098190555050565b60008073ffffffffffffffffffffffffffffffffffffffff168273ffffffffffffffffffffffffffffffffffffffff1603610aec576040517f08c379a0000000000000000000000000000000000000000000000000000000008152600401610ae3906138fb565b60405180910390fd5b600360008373ffffffffffffffffffffffffffffffffffffffff1673ffffffffffffffffffffffffffffffffffffffff168152602001908152602001600020549050919050565b610b3b611689565b610b456000611b95565b565b6000600760009054906101000a900473ffffffffffffffffffffffffffffffffffffffff16905090565b600b81805160208101820180518482526020830160208501208183528095505050505050600091509050806000018054610baa90613551565b80601f0160208091040260200160405190810160405280929190818152602001828054610bd690613551565b8015610c235780601f10610bf857610100808354040283529160200191610c23565b820191906000526020600020905b815481529060010190602001808311610c0657829003601f168201915b5050505050908060010160009054906101000a900473ffffffffffffffffffffffffffffffffffffffff16908060010160149054906101000a900460ff16908060030154905084565b610c74611689565b80600b83604051610c8591906136e2565b908152602001604051809103902060010160146101000a81548160ff0219169083151502179055505050565b606060018054610cc090613551565b80601f0160208091040260200160405190810160405280929190818152602001828054610cec90613551565b8015610d395780601f10610d0e57610100808354040283529160200191610d39565b820191906000526020600020905b815481529060010190602001808311610d1c57829003601f168201915b5050505050905090565b610d4d3382611a95565b610d8c576040517f08c379a0000000000000000000000000000000000000000000000000000000008152600401610d8390613967565b60405180910390fd5b60011515600c60008573ffffffffffffffffffffffffffffffffffffffff1673ffffffffffffffffffffffffffffffffffffffff16815260200190815260200160002060009054906101000a900460ff16151514610e1f576040517f08c379a0000000000000000000000000000000000000000000000000000000008152600401610e16906139d3565b60405180910390fd5b6009548214610e63576040517f08c379a0000000000000000000000000000000000000000000000000000000008152600401610e5a90613a3f565b60405180910390fd5b6009548373ffffffffffffffffffffffffffffffffffffffff1663dd62ed3e33306040518363ffffffff1660e01b8152600401610ea1929190613a5f565b602060405180830381865afa158015610ebe573d6000803e3d6000fd5b505050506040513d601f19601f82011682018060405250810190610ee29190613a9d565b1015610f23576040517f08c379a0000000000000000000000000000000000000000000000000000000008152600401610f1a90613b3c565b60405180910390fd5b60008373ffffffffffffffffffffffffffffffffffffffff166323b872dd3330866040518463ffffffff1660e01b8152600401610f6293929190613b5c565b6020604051808303816000875af1158015610f81573d6000803e3d6000fd5b505050506040513d601f19601f82011682018060405250810190610fa59190613ba8565b905080610fe7576040517f08c379a0000000000000000000000000000000000000000000000000000000008152600401610fde90613c21565b60405180910390fd5b62278d00600b83604051610ffb91906136e2565b9081526020016040518091039020600301546110179190613c70565b600b8360405161102791906136e2565b90815260200160405180910390206003018190555050505050565b61105461104d6115c8565b8383611c5b565b5050565b611060611689565b6001600c60008373ffffffffffffffffffffffffffffffffffffffff1673ffffffffffffffffffffffffffffffffffffffff16815260200190815260200160002060006101000a81548160ff02191690831515021790555050565b6110cc6110c66115c8565b83611707565b61110b576040517f08c379a00000000000000000000000000000000000000000000000000000000081526004016111029061376b565b60405180910390fd5b61111784848484611dc7565b50505050565b611125611689565b81600b8360405161113691906136e2565b908152602001604051809103902060000190816111539190613e50565b5080600b8360405161116591906136e2565b908152602001604051809103902060010160006101000a81548173ffffffffffffffffffffffffffffffffffffffff021916908373ffffffffffffffffffffffffffffffffffffffff1602179055506001600b836040516111c691906136e2565b908152602001604051809103902060010160146101000a81548160ff02191690831515021790555062278d00426111fd9190613c70565b600b8360405161120d91906136e2565b90815260200160405180910390206003018190555061122c8183611319565b7fe2113e2f31e9059e4f64d1910b874f2e8ee4a4fd9081c4910d409f649dfe3b488260405161125b9190612e0e565b60405180910390a15050565b606061127282611e23565b9050919050565b600a602052806000526040600020600091509050805461129890613551565b80601f01602080910402602001604051908101604052809291908181526020018280546112c490613551565b80156113115780601f106112e657610100808354040283529160200191611311565b820191906000526020600020905b8154815290600101906020018083116112f457829003601f168201915b505050505081565b6113233382611a95565b611362576040517f08c379a000000000000000000000000000000000000000000000000000000000815260040161135990613f94565b60405180910390fd5b600061136e6008611f35565b905081600a600083815260200190815260200160002090816113909190613e50565b50600b826040516113a191906136e2565b90815260200160405180910390206002018190806001815401808255809150506001900390600052602060002001600090919091909150556113e36008611f43565b6113ed8382611f59565b611400816113fb8385611f77565b611fce565b505050565b6000600560008473ffffffffffffffffffffffffffffffffffffffff1673ffffffffffffffffffffffffffffffffffffffff16815260200190815260200160002060008373ffffffffffffffffffffffffffffffffffffffff1673ffffffffffffffffffffffffffffffffffffffff16815260200190815260200160002060009054906101000a900460ff16905092915050565b6114a1611689565b600073ffffffffffffffffffffffffffffffffffffffff168173ffffffffffffffffffffffffffffffffffffffff1603611510576040517f08c379a000000000000000000000000000000000000000000000000000000000815260040161150790614026565b60405180910390fd5b61151981611b95565b50565b6000634906490660e01b7bffffffffffffffffffffffffffffffffffffffffffffffffffffffff1916827bffffffffffffffffffffffffffffffffffffffffffffffffffffffff19161480611576575061157582612072565b5b9050919050565b61158681612154565b6115c5576040517f08c379a00000000000000000000000000000000000000000000000000000000081526004016115bc90613869565b60405180910390fd5b50565b600033905090565b816004600083815260200190815260200160002060006101000a81548173ffffffffffffffffffffffffffffffffffffffff021916908373ffffffffffffffffffffffffffffffffffffffff160217905550808273ffffffffffffffffffffffffffffffffffffffff16611643836109e4565b73ffffffffffffffffffffffffffffffffffffffff167f8c5be1e5ebec7d5bd14f71427d1e84f3dd0314c0f7b2291e5b200ac8c7c3b92560405160405180910390a45050565b6116916115c8565b73ffffffffffffffffffffffffffffffffffffffff166116af610b47565b73ffffffffffffffffffffffffffffffffffffffff1614611705576040517f08c379a00000000000000000000000000000000000000000000000000000000081526004016116fc90614092565b60405180910390fd5b565b600080611713836109e4565b90508073ffffffffffffffffffffffffffffffffffffffff168473ffffffffffffffffffffffffffffffffffffffff16148061175557506117548185611405565b5b8061179357508373ffffffffffffffffffffffffffffffffffffffff1661177b84610628565b73ffffffffffffffffffffffffffffffffffffffff16145b91505092915050565b8273ffffffffffffffffffffffffffffffffffffffff166117bc826109e4565b73ffffffffffffffffffffffffffffffffffffffff1614611812576040517f08c379a000000000000000000000000000000000000000000000000000000000815260040161180990614124565b60405180910390fd5b600073ffffffffffffffffffffffffffffffffffffffff168273ffffffffffffffffffffffffffffffffffffffff1603611881576040517f08c379a0000000000000000000000000000000000000000000000000000000008152600401611878906141b6565b60405180910390fd5b61188e8383836001612195565b8273ffffffffffffffffffffffffffffffffffffffff166118ae826109e4565b73ffffffffffffffffffffffffffffffffffffffff1614611904576040517f08c379a00000000000000000000000000000000000000000000000000000000081526004016118fb90614124565b60405180910390fd5b6004600082815260200190815260200160002060006101000a81549073ffffffffffffffffffffffffffffffffffffffff02191690556001600360008573ffffffffffffffffffffffffffffffffffffffff1673ffffffffffffffffffffffffffffffffffffffff168152602001908152602001600020600082825403925050819055506001600360008473ffffffffffffffffffffffffffffffffffffffff1673ffffffffffffffffffffffffffffffffffffffff16815260200190815260200160002060008282540192505081905550816002600083815260200190815260200160002060006101000a81548173ffffffffffffffffffffffffffffffffffffffff021916908373ffffffffffffffffffffffffffffffffffffffff160217905550808273ffffffffffffffffffffffffffffffffffffffff168473ffffffffffffffffffffffffffffffffffffffff167fddf252ad1be2c89b69c2b068fc378daa952ba7f163c4a11628f55a4df523b3ef60405160405180910390a4611a908383836001612216565b505050565b6000611a9f610b47565b73ffffffffffffffffffffffffffffffffffffffff168373ffffffffffffffffffffffffffffffffffffffff161480611b4457508273ffffffffffffffffffffffffffffffffffffffff16600b83604051611afa91906136e2565b908152602001604051809103902060010160009054906101000a900473ffffffffffffffffffffffffffffffffffffffff1673ffffffffffffffffffffffffffffffffffffffff16145b905092915050565b611b558161221c565b50565b60006002600083815260200190815260200160002060009054906101000a900473ffffffffffffffffffffffffffffffffffffffff169050919050565b6000600760009054906101000a900473ffffffffffffffffffffffffffffffffffffffff16905081600760006101000a81548173ffffffffffffffffffffffffffffffffffffffff021916908373ffffffffffffffffffffffffffffffffffffffff1602179055508173ffffffffffffffffffffffffffffffffffffffff168173ffffffffffffffffffffffffffffffffffffffff167f8be0079c531659141344cd1fd0a4f28419497f9722a3daafe3b4186f6b6457e060405160405180910390a35050565b8173ffffffffffffffffffffffffffffffffffffffff168373ffffffffffffffffffffffffffffffffffffffff1603611cc9576040517f08c379a0000000000000000000000000000000000000000000000000000000008152600401611cc090614222565b60405180910390fd5b80600560008573ffffffffffffffffffffffffffffffffffffffff1673ffffffffffffffffffffffffffffffffffffffff16815260200190815260200160002060008473ffffffffffffffffffffffffffffffffffffffff1673ffffffffffffffffffffffffffffffffffffffff16815260200190815260200160002060006101000a81548160ff0219169083151502179055508173ffffffffffffffffffffffffffffffffffffffff168373ffffffffffffffffffffffffffffffffffffffff167f17307eab39ab6107e8899845ad3d59bd9653f200f220920489ca2b5937696c3183604051611dba9190612d63565b60405180910390a3505050565b611dd284848461179c565b611dde8484848461226f565b611e1d576040517f08c379a0000000000000000000000000000000000000000000000000000000008152600401611e14906142b4565b60405180910390fd5b50505050565b6060611e2e8261157d565b6000600660008481526020019081526020016000208054611e4e90613551565b80601f0160208091040260200160405190810160405280929190818152602001828054611e7a90613551565b8015611ec75780601f10611e9c57610100808354040283529160200191611ec7565b820191906000526020600020905b815481529060010190602001808311611eaa57829003601f168201915b505050505090506000611ed86123f6565b90506000815103611eed578192505050611f30565b600082511115611f22578082604051602001611f0a9291906142d4565b60405160208183030381529060405292505050611f30565b611f2b8461240d565b925050505b919050565b600081600001549050919050565b6001816000016000828254019250508190555050565b611f73828260405180602001604052806000815250612475565b5050565b6060600082604051602001611f8c919061449a565b6040516020818303038152906040529050611fa6816124d0565b604051602001611fb69190614534565b60405160208183030381529060405291505092915050565b611fd782612154565b612016576040517f08c379a000000000000000000000000000000000000000000000000000000000815260040161200d906145c8565b60405180910390fd5b806006600084815260200190815260200160002090816120369190613e50565b507ff8e1a15aba9398e019f0b49df1a4fde98ee17ae345cb5f6b5e2c27f5033e8ce782604051612066919061317b565b60405180910390a15050565b60007f80ac58cd000000000000000000000000000000000000000000000000000000007bffffffffffffffffffffffffffffffffffffffffffffffffffffffff1916827bffffffffffffffffffffffffffffffffffffffffffffffffffffffff1916148061213d57507f5b5e139f000000000000000000000000000000000000000000000000000000007bffffffffffffffffffffffffffffffffffffffffffffffffffffffff1916827bffffffffffffffffffffffffffffffffffffffffffffffffffffffff1916145b8061214d575061214c82612633565b5b9050919050565b60008073ffffffffffffffffffffffffffffffffffffffff1661217683611b58565b73ffffffffffffffffffffffffffffffffffffffff1614159050919050565b600073ffffffffffffffffffffffffffffffffffffffff168473ffffffffffffffffffffffffffffffffffffffff1614612204576040517f08c379a00000000000000000000000000000000000000000000000000000000081526004016121fb90614634565b60405180910390fd5b6122108484848461269d565b50505050565b50505050565b612225816126a3565b600060066000838152602001908152602001600020805461224590613551565b90501461226c5760066000828152602001908152602001600020600061226b9190612c52565b5b50565b60006122908473ffffffffffffffffffffffffffffffffffffffff166127f1565b156123e9578373ffffffffffffffffffffffffffffffffffffffff1663150b7a026122b96115c8565b8786866040518563ffffffff1660e01b81526004016122db94939291906146a9565b6020604051808303816000875af192505050801561231757506040513d601f19601f82011682018060405250810190612314919061470a565b60015b612399573d8060008114612347576040519150601f19603f3d011682016040523d82523d6000602084013e61234c565b606091505b506000815103612391576040517f08c379a0000000000000000000000000000000000000000000000000000000008152600401612388906142b4565b60405180910390fd5b805181602001fd5b63150b7a0260e01b7bffffffffffffffffffffffffffffffffffffffffffffffffffffffff1916817bffffffffffffffffffffffffffffffffffffffffffffffffffffffff1916149150506123ee565b600190505b949350505050565b606060405180602001604052806000815250905090565b60606124188261157d565b60006124226123f6565b90506000815111612442576040518060200160405280600081525061246d565b8061244c84612814565b60405160200161245d9291906142d4565b6040516020818303038152906040525b915050919050565b61247f83836128e2565b61248c600084848461226f565b6124cb576040517f08c379a00000000000000000000000000000000000000000000000000000000081526004016124c2906142b4565b60405180910390fd5b505050565b606060008251036124f25760405180602001604052806000815250905061262e565b60006040518060600160405280604081526020016148b260409139905060006003600285516125219190613c70565b61252b9190614766565b60046125379190614797565b67ffffffffffffffff8111156125505761254f612f65565b5b6040519080825280601f01601f1916602001820160405280156125825781602001600182028036833780820191505090505b509050600182016020820185865187015b808210156125ee576003820191508151603f8160121c168501518453600184019350603f81600c1c168501518453600184019350603f8160061c168501518453600184019350603f8116850151845360018401935050612593565b505060038651066001811461260a576002811461261d57612625565b603d6001830353603d6002830353612625565b603d60018303535b50505080925050505b919050565b60007f01ffc9a7000000000000000000000000000000000000000000000000000000007bffffffffffffffffffffffffffffffffffffffffffffffffffffffff1916827bffffffffffffffffffffffffffffffffffffffffffffffffffffffff1916149050919050565b50505050565b60006126ae826109e4565b90506126be816000846001612195565b6126c7826109e4565b90506004600083815260200190815260200160002060006101000a81549073ffffffffffffffffffffffffffffffffffffffff02191690556001600360008373ffffffffffffffffffffffffffffffffffffffff1673ffffffffffffffffffffffffffffffffffffffff168152602001908152602001600020600082825403925050819055506002600083815260200190815260200160002060006101000a81549073ffffffffffffffffffffffffffffffffffffffff021916905581600073ffffffffffffffffffffffffffffffffffffffff168273ffffffffffffffffffffffffffffffffffffffff167fddf252ad1be2c89b69c2b068fc378daa952ba7f163c4a11628f55a4df523b3ef60405160405180910390a46127ed816000846001612216565b5050565b6000808273ffffffffffffffffffffffffffffffffffffffff163b119050919050565b60606000600161282384612aff565b01905060008167ffffffffffffffff81111561284257612841612f65565b5b6040519080825280601f01601f1916602001820160405280156128745781602001600182028036833780820191505090505b509050600082602001820190505b6001156128d7578080600190039150507f3031323334353637383961626364656600000000000000000000000000000000600a86061a8153600a85816128cb576128ca614737565b5b04945060008503612882575b819350505050919050565b600073ffffffffffffffffffffffffffffffffffffffff168273ffffffffffffffffffffffffffffffffffffffff1603612951576040517f08c379a000000000000000000000000000000000000000000000000000000000815260040161294890614825565b60405180910390fd5b61295a81612154565b1561299a576040517f08c379a000000000000000000000000000000000000000000000000000000000815260040161299190614891565b60405180910390fd5b6129a8600083836001612195565b6129b181612154565b156129f1576040517f08c379a00000000000000000000000000000000000000000000000000000000081526004016129e890614891565b60405180910390fd5b6001600360008473ffffffffffffffffffffffffffffffffffffffff1673ffffffffffffffffffffffffffffffffffffffff16815260200190815260200160002060008282540192505081905550816002600083815260200190815260200160002060006101000a81548173ffffffffffffffffffffffffffffffffffffffff021916908373ffffffffffffffffffffffffffffffffffffffff160217905550808273ffffffffffffffffffffffffffffffffffffffff16600073ffffffffffffffffffffffffffffffffffffffff167fddf252ad1be2c89b69c2b068fc378daa952ba7f163c4a11628f55a4df523b3ef60405160405180910390a4612afb600083836001612216565b5050565b600080600090507a184f03e93ff9f4daa797ed6e38ed64bf6a1f0100000000000000008310612b5d577a184f03e93ff9f4daa797ed6e38ed64bf6a1f0100000000000000008381612b5357612b52614737565b5b0492506040810190505b6d04ee2d6d415b85acef81000000008310612b9a576d04ee2d6d415b85acef81000000008381612b9057612b8f614737565b5b0492506020810190505b662386f26fc100008310612bc957662386f26fc100008381612bbf57612bbe614737565b5b0492506010810190505b6305f5e1008310612bf2576305f5e1008381612be857612be7614737565b5b0492506008810190505b6127108310612c17576127108381612c0d57612c0c614737565b5b0492506004810190505b60648310612c3a5760648381612c3057612c2f614737565b5b0492506002810190505b600a8310612c49576001810190505b80915050919050565b508054612c5e90613551565b6000825580601f10612c705750612c8f565b601f016020900490600052602060002090810190612c8e9190612c92565b5b50565b5b80821115612cab576000816000905550600101612c93565b5090565b6000604051905090565b600080fd5b600080fd5b60007fffffffff0000000000000000000000000000000000000000000000000000000082169050919050565b612cf881612cc3565b8114612d0357600080fd5b50565b600081359050612d1581612cef565b92915050565b600060208284031215612d3157612d30612cb9565b5b6000612d3f84828501612d06565b91505092915050565b60008115159050919050565b612d5d81612d48565b82525050565b6000602082019050612d786000830184612d54565b92915050565b600081519050919050565b600082825260208201905092915050565b60005b83811015612db8578082015181840152602081019050612d9d565b60008484015250505050565b6000601f19601f8301169050919050565b6000612de082612d7e565b612dea8185612d89565b9350612dfa818560208601612d9a565b612e0381612dc4565b840191505092915050565b60006020820190508181036000830152612e288184612dd5565b905092915050565b6000819050919050565b612e4381612e30565b8114612e4e57600080fd5b50565b600081359050612e6081612e3a565b92915050565b600060208284031215612e7c57612e7b612cb9565b5b6000612e8a84828501612e51565b91505092915050565b600073ffffffffffffffffffffffffffffffffffffffff82169050919050565b6000612ebe82612e93565b9050919050565b612ece81612eb3565b82525050565b6000602082019050612ee96000830184612ec5565b92915050565b612ef881612eb3565b8114612f0357600080fd5b50565b600081359050612f1581612eef565b92915050565b60008060408385031215612f3257612f31612cb9565b5b6000612f4085828601612f06565b9250506020612f5185828601612e51565b9150509250929050565b600080fd5b600080fd5b7f4e487b7100000000000000000000000000000000000000000000000000000000600052604160045260246000fd5b612f9d82612dc4565b810181811067ffffffffffffffff82111715612fbc57612fbb612f65565b5b80604052505050565b6000612fcf612caf565b9050612fdb8282612f94565b919050565b600067ffffffffffffffff821115612ffb57612ffa612f65565b5b61300482612dc4565b9050602081019050919050565b82818337600083830152505050565b600061303361302e84612fe0565b612fc5565b90508281526020810184848401111561304f5761304e612f60565b5b61305a848285613011565b509392505050565b600082601f83011261307757613076612f5b565b5b8135613087848260208601613020565b91505092915050565b600080604083850312156130a7576130a6612cb9565b5b600083013567ffffffffffffffff8111156130c5576130c4612cbe565b5b6130d185828601613062565b92505060206130e285828601612f06565b9150509250929050565b60008060006060848603121561310557613104612cb9565b5b600061311386828701612f06565b935050602061312486828701612f06565b925050604061313586828701612e51565b9150509250925092565b60006020828403121561315557613154612cb9565b5b600061316384828501612f06565b91505092915050565b61317581612e30565b82525050565b6000602082019050613190600083018461316c565b92915050565b6000602082840312156131ac576131ab612cb9565b5b600082013567ffffffffffffffff8111156131ca576131c9612cbe565b5b6131d684828501613062565b91505092915050565b600060808201905081810360008301526131f98187612dd5565b90506132086020830186612ec5565b6132156040830185612d54565b613222606083018461316c565b95945050505050565b61323481612d48565b811461323f57600080fd5b50565b6000813590506132518161322b565b92915050565b6000806040838503121561326e5761326d612cb9565b5b600083013567ffffffffffffffff81111561328c5761328b612cbe565b5b61329885828601613062565b92505060206132a985828601613242565b9150509250929050565b6000806000606084860312156132cc576132cb612cb9565b5b60006132da86828701612f06565b93505060206132eb86828701612e51565b925050604084013567ffffffffffffffff81111561330c5761330b612cbe565b5b61331886828701613062565b9150509250925092565b6000806040838503121561333957613338612cb9565b5b600061334785828601612f06565b925050602061335885828601613242565b9150509250929050565b600067ffffffffffffffff82111561337d5761337c612f65565b5b61338682612dc4565b9050602081019050919050565b60006133a66133a184613362565b612fc5565b9050828152602081018484840111156133c2576133c1612f60565b5b6133cd848285613011565b509392505050565b600082601f8301126133ea576133e9612f5b565b5b81356133fa848260208601613393565b91505092915050565b6000806000806080858703121561341d5761341c612cb9565b5b600061342b87828801612f06565b945050602061343c87828801612f06565b935050604061344d87828801612e51565b925050606085013567ffffffffffffffff81111561346e5761346d612cbe565b5b61347a878288016133d5565b91505092959194509250565b6000806040838503121561349d5761349c612cb9565b5b60006134ab85828601612f06565b925050602083013567ffffffffffffffff8111156134cc576134cb612cbe565b5b6134d885828601613062565b9150509250929050565b600080604083850312156134f9576134f8612cb9565b5b600061350785828601612f06565b925050602061351885828601612f06565b9150509250929050565b7f4e487b7100000000000000000000000000000000000000000000000000000000600052602260045260246000fd5b6000600282049050600182168061356957607f821691505b60208210810361357c5761357b613522565b5b50919050565b7f4552433732313a20617070726f76616c20746f2063757272656e74206f776e6560008201527f7200000000000000000000000000000000000000000000000000000000000000602082015250565b60006135de602183612d89565b91506135e982613582565b604082019050919050565b6000602082019050818103600083015261360d816135d1565b9050919050565b7f4552433732313a20617070726f76652063616c6c6572206973206e6f7420746f60008201527f6b656e206f776e6572206f7220617070726f76656420666f7220616c6c000000602082015250565b6000613670603d83612d89565b915061367b82613614565b604082019050919050565b6000602082019050818103600083015261369f81613663565b9050919050565b600081905092915050565b60006136bc82612d7e565b6136c681856136a6565b93506136d6818560208601612d9a565b80840191505092915050565b60006136ee82846136b1565b915081905092915050565b7f4552433732313a2063616c6c6572206973206e6f7420746f6b656e206f776e6560008201527f72206f7220617070726f76656400000000000000000000000000000000000000602082015250565b6000613755602d83612d89565b9150613760826136f9565b604082019050919050565b6000602082019050818103600083015261378481613748565b9050919050565b7f4275726e696e67206f6e6c7920617661696c61626c6520746f20636f6e74726160008201527f6374206f776e6572206f722070726f6a656374206f776e657200000000000000602082015250565b60006137e7603983612d89565b91506137f28261378b565b604082019050919050565b60006020820190508181036000830152613816816137da565b9050919050565b7f4552433732313a20696e76616c696420746f6b656e2049440000000000000000600082015250565b6000613853601883612d89565b915061385e8261381d565b602082019050919050565b6000602082019050818103600083015261388281613846565b9050919050565b7f4552433732313a2061646472657373207a65726f206973206e6f74206120766160008201527f6c6964206f776e65720000000000000000000000000000000000000000000000602082015250565b60006138e5602983612d89565b91506138f082613889565b604082019050919050565b60006020820190508181036000830152613914816138d8565b9050919050565b7f4d7573742062652070726f6a656374206f776e65720000000000000000000000600082015250565b6000613951601583612d89565b915061395c8261391b565b602082019050919050565b6000602082019050818103600083015261398081613944565b9050919050565b7f546f6b656e206973206e6f7420737570706f7274656400000000000000000000600082015250565b60006139bd601683612d89565b91506139c882613987565b602082019050919050565b600060208201905081810360008301526139ec816139b0565b9050919050565b7f506c656173652070617920726571756972656420616d6f756e74000000000000600082015250565b6000613a29601a83612d89565b9150613a34826139f3565b602082019050919050565b60006020820190508181036000830152613a5881613a1c565b9050919050565b6000604082019050613a746000830185612ec5565b613a816020830184612ec5565b9392505050565b600081519050613a9781612e3a565b92915050565b600060208284031215613ab357613ab2612cb9565b5b6000613ac184828501613a88565b91505092915050565b7f4e6f7420617070726f76656420746f2073656e642062616c616e63652072657160008201527f7565737465640000000000000000000000000000000000000000000000000000602082015250565b6000613b26602683612d89565b9150613b3182613aca565b604082019050919050565b60006020820190508181036000830152613b5581613b19565b9050919050565b6000606082019050613b716000830186612ec5565b613b7e6020830185612ec5565b613b8b604083018461316c565b949350505050565b600081519050613ba28161322b565b92915050565b600060208284031215613bbe57613bbd612cb9565b5b6000613bcc84828501613b93565b91505092915050565b7f5472616e73616374696f6e20776173206e6f74207375636365737366756c0000600082015250565b6000613c0b601e83612d89565b9150613c1682613bd5565b602082019050919050565b60006020820190508181036000830152613c3a81613bfe565b9050919050565b7f4e487b7100000000000000000000000000000000000000000000000000000000600052601160045260246000fd5b6000613c7b82612e30565b9150613c8683612e30565b9250828201905080821115613c9e57613c9d613c41565b5b92915050565b60008190508160005260206000209050919050565b60006020601f8301049050919050565b600082821b905092915050565b600060088302613d067fffffffffffffffffffffffffffffffffffffffffffffffffffffffffffffffff82613cc9565b613d108683613cc9565b95508019841693508086168417925050509392505050565b6000819050919050565b6000613d4d613d48613d4384612e30565b613d28565b612e30565b9050919050565b6000819050919050565b613d6783613d32565b613d7b613d7382613d54565b848454613cd6565b825550505050565b600090565b613d90613d83565b613d9b818484613d5e565b505050565b5b81811015613dbf57613db4600082613d88565b600181019050613da1565b5050565b601f821115613e0457613dd581613ca4565b613dde84613cb9565b81016020851015613ded578190505b613e01613df985613cb9565b830182613da0565b50505b505050565b600082821c905092915050565b6000613e2760001984600802613e09565b1980831691505092915050565b6000613e408383613e16565b9150826002028217905092915050565b613e5982612d7e565b67ffffffffffffffff811115613e7257613e71612f65565b5b613e7c8254613551565b613e87828285613dc3565b600060209050601f831160018114613eba5760008415613ea8578287015190505b613eb28582613e34565b865550613f1a565b601f198416613ec886613ca4565b60005b82811015613ef057848901518255600182019150602085019450602081019050613ecb565b86831015613f0d5784890151613f09601f891682613e16565b8355505b6001600288020188555050505b505050505050565b7f4d696e74696e67206f6e6c7920617661696c61626c6520746f20636f6e74726160008201527f6374206f776e6572206f722070726f6a656374206f776e657200000000000000602082015250565b6000613f7e603983612d89565b9150613f8982613f22565b604082019050919050565b60006020820190508181036000830152613fad81613f71565b9050919050565b7f4f776e61626c653a206e6577206f776e657220697320746865207a65726f206160008201527f6464726573730000000000000000000000000000000000000000000000000000602082015250565b6000614010602683612d89565b915061401b82613fb4565b604082019050919050565b6000602082019050818103600083015261403f81614003565b9050919050565b7f4f776e61626c653a2063616c6c6572206973206e6f7420746865206f776e6572600082015250565b600061407c602083612d89565b915061408782614046565b602082019050919050565b600060208201905081810360008301526140ab8161406f565b9050919050565b7f4552433732313a207472616e736665722066726f6d20696e636f72726563742060008201527f6f776e6572000000000000000000000000000000000000000000000000000000602082015250565b600061410e602583612d89565b9150614119826140b2565b604082019050919050565b6000602082019050818103600083015261413d81614101565b9050919050565b7f4552433732313a207472616e7366657220746f20746865207a65726f2061646460008201527f7265737300000000000000000000000000000000000000000000000000000000602082015250565b60006141a0602483612d89565b91506141ab82614144565b604082019050919050565b600060208201905081810360008301526141cf81614193565b9050919050565b7f4552433732313a20617070726f766520746f2063616c6c657200000000000000600082015250565b600061420c601983612d89565b9150614217826141d6565b602082019050919050565b6000602082019050818103600083015261423b816141ff565b9050919050565b7f4552433732313a207472616e7366657220746f206e6f6e20455243373231526560008201527f63656976657220696d706c656d656e7465720000000000000000000000000000602082015250565b600061429e603283612d89565b91506142a982614242565b604082019050919050565b600060208201905081810360008301526142cd81614291565b9050919050565b60006142e082856136b1565b91506142ec82846136b1565b91508190509392505050565b7f7b00000000000000000000000000000000000000000000000000000000000000600082015250565b600061432e6001836136a6565b9150614339826142f8565b600182019050919050565b7f226e616d65223a2022536f756c426f756e645365637572697479202d20000000600082015250565b600061437a601d836136a6565b915061438582614344565b601d82019050919050565b7f222c000000000000000000000000000000000000000000000000000000000000600082015250565b60006143c66002836136a6565b91506143d182614390565b600282019050919050565b7f226465736372697074696f6e223a2022536f756c426f756e645365637572697460008201527f7920546f6b656e222c0000000000000000000000000000000000000000000000602082015250565b60006144386029836136a6565b9150614443826143dc565b602982019050919050565b7f7d00000000000000000000000000000000000000000000000000000000000000600082015250565b60006144846001836136a6565b915061448f8261444e565b600182019050919050565b60006144a582614321565b91506144b08261436d565b91506144bc82846136b1565b91506144c7826143b9565b91506144d28261442b565b91506144dd82614477565b915081905092915050565b7f646174613a6170706c69636174696f6e2f6a736f6e3b6261736536342c000000600082015250565b600061451e601d836136a6565b9150614529826144e8565b601d82019050919050565b600061453f82614511565b915061454b82846136b1565b915081905092915050565b7f45524337323155524953746f726167653a2055524920736574206f66206e6f6e60008201527f6578697374656e7420746f6b656e000000000000000000000000000000000000602082015250565b60006145b2602e83612d89565b91506145bd82614556565b604082019050919050565b600060208201905081810360008301526145e1816145a5565b9050919050565b7f546f6b656e206e6f74207472616e7366657261626c6500000000000000000000600082015250565b600061461e601683612d89565b9150614629826145e8565b602082019050919050565b6000602082019050818103600083015261464d81614611565b9050919050565b600081519050919050565b600082825260208201905092915050565b600061467b82614654565b614685818561465f565b9350614695818560208601612d9a565b61469e81612dc4565b840191505092915050565b60006080820190506146be6000830187612ec5565b6146cb6020830186612ec5565b6146d8604083018561316c565b81810360608301526146ea8184614670565b905095945050505050565b60008151905061470481612cef565b92915050565b6000602082840312156147205761471f612cb9565b5b600061472e848285016146f5565b91505092915050565b7f4e487b7100000000000000000000000000000000000000000000000000000000600052601260045260246000fd5b600061477182612e30565b915061477c83612e30565b92508261478c5761478b614737565b5b828204905092915050565b60006147a282612e30565b91506147ad83612e30565b92508282026147bb81612e30565b915082820484148315176147d2576147d1613c41565b5b5092915050565b7f4552433732313a206d696e7420746f20746865207a65726f2061646472657373600082015250565b600061480f602083612d89565b915061481a826147d9565b602082019050919050565b6000602082019050818103600083015261483e81614802565b9050919050565b7f4552433732313a20746f6b656e20616c7265616479206d696e74656400000000600082015250565b600061487b601c83612d89565b915061488682614845565b602082019050919050565b600060208201905081810360008301526148aa8161486e565b905091905056fe4142434445464748494a4b4c4d4e4f505152535455565758595a6162636465666768696a6b6c6d6e6f707172737475767778797a303132333435363738392b2fa2646970667358221220c94140f7e3af8b9c3b685d2c2b6d61f84b6c640398eaef211fa9da45ec37484864736f6c63430008130033","opcodes":"PUSH1 0x80 PUSH1 0x40 MSTORE PUSH8 0x4563918244F40000 PUSH1 0x9 SSTORE CALLVALUE DUP1 ISZERO PUSH3 0x1D JUMPI PUSH1 0x0 DUP1 REVERT JUMPDEST POP PUSH1 0x40 MLOAD DUP1 PUSH1 0x40 ADD PUSH1 0x40 MSTORE DUP1 PUSH1 0x11 DUP2 MSTORE PUSH1 0x20 ADD PUSH32 0x536F756C426F756E645365637572697479000000000000000000000000000000 DUP2 MSTORE POP PUSH1 0x40 MLOAD DUP1 PUSH1 0x40 ADD PUSH1 0x40 MSTORE DUP1 PUSH1 0x3 DUP2 MSTORE PUSH1 0x20 ADD PUSH32 0x5342530000000000000000000000000000000000000000000000000000000000 DUP2 MSTORE POP DUP2 PUSH1 0x0 SWAP1 DUP2 PUSH3 0x9B SWAP2 SWAP1 PUSH3 0x41E JUMP JUMPDEST POP DUP1 PUSH1 0x1 SWAP1 DUP2 PUSH3 0xAD SWAP2 SWAP1 PUSH3 0x41E JUMP JUMPDEST POP POP POP PUSH3 0xD0 PUSH3 0xC4 PUSH3 0xD6 PUSH1 0x20 SHL PUSH1 0x20 SHR JUMP JUMPDEST PUSH3 0xDE PUSH1 0x20 SHL PUSH1 0x20 SHR JUMP JUMPDEST PUSH3 0x505 JUMP JUMPDEST PUSH1 0x0 CALLER SWAP1 POP SWAP1 JUMP JUMPDEST PUSH1 0x0 PUSH1 0x7 PUSH1 0x0 SWAP1 SLOAD SWAP1 PUSH2 0x100 EXP SWAP1 DIV PUSH20 0xFFFFFFFFFFFFFFFFFFFFFFFFFFFFFFFFFFFFFFFF AND SWAP1 POP DUP2 PUSH1 0x7 PUSH1 0x0 PUSH2 0x100 EXP DUP2 SLOAD DUP2 PUSH20 0xFFFFFFFFFFFFFFFFFFFFFFFFFFFFFFFFFFFFFFFF MUL NOT AND SWAP1 DUP4 PUSH20 0xFFFFFFFFFFFFFFFFFFFFFFFFFFFFFFFFFFFFFFFF AND MUL OR SWAP1 SSTORE POP DUP2 PUSH20 0xFFFFFFFFFFFFFFFFFFFFFFFFFFFFFFFFFFFFFFFF AND DUP2 PUSH20 0xFFFFFFFFFFFFFFFFFFFFFFFFFFFFFFFFFFFFFFFF AND PUSH32 0x8BE0079C531659141344CD1FD0A4F28419497F9722A3DAAFE3B4186F6B6457E0 PUSH1 0x40 MLOAD PUSH1 0x40 MLOAD DUP1 SWAP2 SUB SWAP1 LOG3 POP POP JUMP JUMPDEST PUSH1 0x0 DUP2 MLOAD SWAP1 POP SWAP2 SWAP1 POP JUMP JUMPDEST PUSH32 0x4E487B7100000000000000000000000000000000000000000000000000000000 PUSH1 0x0 MSTORE PUSH1 0x41 PUSH1 0x4 MSTORE PUSH1 0x24 PUSH1 0x0 REVERT JUMPDEST PUSH32 0x4E487B7100000000000000000000000000000000000000000000000000000000 PUSH1 0x0 MSTORE PUSH1 0x22 PUSH1 0x4 MSTORE PUSH1 0x24 PUSH1 0x0 REVERT JUMPDEST PUSH1 0x0 PUSH1 0x2 DUP3 DIV SWAP1 POP PUSH1 0x1 DUP3 AND DUP1 PUSH3 0x226 JUMPI PUSH1 0x7F DUP3 AND SWAP2 POP JUMPDEST PUSH1 0x20 DUP3 LT DUP2 SUB PUSH3 0x23C JUMPI PUSH3 0x23B PUSH3 0x1DE JUMP JUMPDEST JUMPDEST POP SWAP2 SWAP1 POP JUMP JUMPDEST PUSH1 0x0 DUP2 SWAP1 POP DUP2 PUSH1 0x0 MSTORE PUSH1 0x20 PUSH1 0x0 KECCAK256 SWAP1 POP SWAP2 SWAP1 POP JUMP JUMPDEST PUSH1 0x0 PUSH1 0x20 PUSH1 0x1F DUP4 ADD DIV SWAP1 POP SWAP2 SWAP1 POP JUMP JUMPDEST PUSH1 0x0 DUP3 DUP3 SHL SWAP1 POP SWAP3 SWAP2 POP POP JUMP JUMPDEST PUSH1 0x0 PUSH1 0x8 DUP4 MUL PUSH3 0x2A6 PUSH32 0xFFFFFFFFFFFFFFFFFFFFFFFFFFFFFFFFFFFFFFFFFFFFFFFFFFFFFFFFFFFFFFFF DUP3 PUSH3 0x267 JUMP JUMPDEST PUSH3 0x2B2 DUP7 DUP4 PUSH3 0x267 JUMP JUMPDEST SWAP6 POP DUP1 NOT DUP5 AND SWAP4 POP DUP1 DUP7 AND DUP5 OR SWAP3 POP POP POP SWAP4 SWAP3 POP POP POP JUMP JUMPDEST PUSH1 0x0 DUP2 SWAP1 POP SWAP2 SWAP1 POP JUMP JUMPDEST PUSH1 0x0 DUP2 SWAP1 POP SWAP2 SWAP1 POP JUMP JUMPDEST PUSH1 0x0 PUSH3 0x2FF PUSH3 0x2F9 PUSH3 0x2F3 DUP5 PUSH3 0x2CA JUMP JUMPDEST PUSH3 0x2D4 JUMP JUMPDEST PUSH3 0x2CA JUMP JUMPDEST SWAP1 POP SWAP2 SWAP1 POP JUMP JUMPDEST PUSH1 0x0 DUP2 SWAP1 POP SWAP2 SWAP1 POP JUMP JUMPDEST PUSH3 0x31B DUP4 PUSH3 0x2DE JUMP JUMPDEST PUSH3 0x333 PUSH3 0x32A DUP3 PUSH3 0x306 JUMP JUMPDEST DUP5 DUP5 SLOAD PUSH3 0x274 JUMP JUMPDEST DUP3 SSTORE POP POP POP POP JUMP JUMPDEST PUSH1 0x0 SWAP1 JUMP JUMPDEST PUSH3 0x34A PUSH3 0x33B JUMP JUMPDEST PUSH3 0x357 DUP2 DUP5 DUP5 PUSH3 0x310 JUMP JUMPDEST POP POP POP JUMP JUMPDEST JUMPDEST DUP2 DUP2 LT ISZERO PUSH3 0x37F JUMPI PUSH3 0x373 PUSH1 0x0 DUP3 PUSH3 0x340 JUMP JUMPDEST PUSH1 0x1 DUP2 ADD SWAP1 POP PUSH3 0x35D JUMP JUMPDEST POP POP JUMP JUMPDEST PUSH1 0x1F DUP3 GT ISZERO PUSH3 0x3CE JUMPI PUSH3 0x398 DUP2 PUSH3 0x242 JUMP JUMPDEST PUSH3 0x3A3 DUP5 PUSH3 0x257 JUMP JUMPDEST DUP2 ADD PUSH1 0x20 DUP6 LT ISZERO PUSH3 0x3B3 JUMPI DUP2 SWAP1 POP JUMPDEST PUSH3 0x3CB PUSH3 0x3C2 DUP6 PUSH3 0x257 JUMP JUMPDEST DUP4 ADD DUP3 PUSH3 0x35C JUMP JUMPDEST POP POP JUMPDEST POP POP POP JUMP JUMPDEST PUSH1 0x0 DUP3 DUP3 SHR SWAP1 POP SWAP3 SWAP2 POP POP JUMP JUMPDEST PUSH1 0x0 PUSH3 0x3F3 PUSH1 0x0 NOT DUP5 PUSH1 0x8 MUL PUSH3 0x3D3 JUMP JUMPDEST NOT DUP1 DUP4 AND SWAP2 POP POP SWAP3 SWAP2 POP POP JUMP JUMPDEST PUSH1 0x0 PUSH3 0x40E DUP4 DUP4 PUSH3 0x3E0 JUMP JUMPDEST SWAP2 POP DUP3 PUSH1 0x2 MUL DUP3 OR SWAP1 POP SWAP3 SWAP2 POP POP JUMP JUMPDEST PUSH3 0x429 DUP3 PUSH3 0x1A4 JUMP JUMPDEST PUSH8 0xFFFFFFFFFFFFFFFF DUP2 GT ISZERO PUSH3 0x445 JUMPI PUSH3 0x444 PUSH3 0x1AF JUMP JUMPDEST JUMPDEST PUSH3 0x451 DUP3 SLOAD PUSH3 0x20D JUMP JUMPDEST PUSH3 0x45E DUP3 DUP3 DUP6 PUSH3 0x383 JUMP JUMPDEST PUSH1 0x0 PUSH1 0x20 SWAP1 POP PUSH1 0x1F DUP4 GT PUSH1 0x1 DUP2 EQ PUSH3 0x496 JUMPI PUSH1 0x0 DUP5 ISZERO PUSH3 0x481 JUMPI DUP3 DUP8 ADD MLOAD SWAP1 POP JUMPDEST PUSH3 0x48D DUP6 DUP3 PUSH3 0x400 JUMP JUMPDEST DUP7 SSTORE POP PUSH3 0x4FD JUMP JUMPDEST PUSH1 0x1F NOT DUP5 AND PUSH3 0x4A6 DUP7 PUSH3 0x242 JUMP JUMPDEST PUSH1 0x0 JUMPDEST DUP3 DUP2 LT ISZERO PUSH3 0x4D0 JUMPI DUP5 DUP10 ADD MLOAD DUP3 SSTORE PUSH1 0x1 DUP3 ADD SWAP2 POP PUSH1 0x20 DUP6 ADD SWAP5 POP PUSH1 0x20 DUP2 ADD SWAP1 POP PUSH3 0x4A9 JUMP JUMPDEST DUP7 DUP4 LT ISZERO PUSH3 0x4F0 JUMPI DUP5 DUP10 ADD MLOAD PUSH3 0x4EC PUSH1 0x1F DUP10 AND DUP3 PUSH3 0x3E0 JUMP JUMPDEST DUP4 SSTORE POP JUMPDEST PUSH1 0x1 PUSH1 0x2 DUP9 MUL ADD DUP9 SSTORE POP POP POP JUMPDEST POP POP POP POP POP POP JUMP JUMPDEST PUSH2 0x4927 DUP1 PUSH3 0x515 PUSH1 0x0 CODECOPY PUSH1 0x0 RETURN INVALID PUSH1 0x80 PUSH1 0x40 MSTORE CALLVALUE DUP1 ISZERO PUSH2 0x10 JUMPI PUSH1 0x0 DUP1 REVERT JUMPDEST POP PUSH1 0x4 CALLDATASIZE LT PUSH2 0x1C4 JUMPI PUSH1 0x0 CALLDATALOAD PUSH1 0xE0 SHR DUP1 PUSH4 0x8DA5CB5B GT PUSH2 0xF9 JUMPI DUP1 PUSH4 0xB88D4FDE GT PUSH2 0x97 JUMPI DUP1 PUSH4 0xCAB9167A GT PUSH2 0x71 JUMPI DUP1 PUSH4 0xCAB9167A EQ PUSH2 0x4EC JUMPI DUP1 PUSH4 0xD0DEF521 EQ PUSH2 0x51C JUMPI DUP1 PUSH4 0xE985E9C5 EQ PUSH2 0x538 JUMPI DUP1 PUSH4 0xF2FDE38B EQ PUSH2 0x568 JUMPI PUSH2 0x1C4 JUMP JUMPDEST DUP1 PUSH4 0xB88D4FDE EQ PUSH2 0x484 JUMPI DUP1 PUSH4 0xC65579AD EQ PUSH2 0x4A0 JUMPI DUP1 PUSH4 0xC87B56DD EQ PUSH2 0x4BC JUMPI PUSH2 0x1C4 JUMP JUMPDEST DUP1 PUSH4 0x95D89B41 GT PUSH2 0xD3 JUMPI DUP1 PUSH4 0x95D89B41 EQ PUSH2 0x412 JUMPI DUP1 PUSH4 0x9D9DB392 EQ PUSH2 0x430 JUMPI DUP1 PUSH4 0xA22CB465 EQ PUSH2 0x44C JUMPI DUP1 PUSH4 0xB53472EF EQ PUSH2 0x468 JUMPI PUSH2 0x1C4 JUMP JUMPDEST DUP1 PUSH4 0x8DA5CB5B EQ PUSH2 0x3A5 JUMPI DUP1 PUSH4 0x91C9B268 EQ PUSH2 0x3C3 JUMPI DUP1 PUSH4 0x959783C7 EQ PUSH2 0x3F6 JUMPI PUSH2 0x1C4 JUMP JUMPDEST DUP1 PUSH4 0x42966C68 GT PUSH2 0x166 JUMPI DUP1 PUSH4 0x6352211E GT PUSH2 0x140 JUMPI DUP1 PUSH4 0x6352211E EQ PUSH2 0x31F JUMPI DUP1 PUSH4 0x69FE0E2D EQ PUSH2 0x34F JUMPI DUP1 PUSH4 0x70A08231 EQ PUSH2 0x36B JUMPI DUP1 PUSH4 0x715018A6 EQ PUSH2 0x39B JUMPI PUSH2 0x1C4 JUMP JUMPDEST DUP1 PUSH4 0x42966C68 EQ PUSH2 0x2B7 JUMPI DUP1 PUSH4 0x4E5EE1C0 EQ PUSH2 0x2D3 JUMPI DUP1 PUSH4 0x5FA7B584 EQ PUSH2 0x303 JUMPI PUSH2 0x1C4 JUMP JUMPDEST DUP1 PUSH4 0x95EA7B3 GT PUSH2 0x1A2 JUMPI DUP1 PUSH4 0x95EA7B3 EQ PUSH2 0x247 JUMPI DUP1 PUSH4 0x1697A98F EQ PUSH2 0x263 JUMPI DUP1 PUSH4 0x23B872DD EQ PUSH2 0x27F JUMPI DUP1 PUSH4 0x42842E0E EQ PUSH2 0x29B JUMPI PUSH2 0x1C4 JUMP JUMPDEST DUP1 PUSH4 0x1FFC9A7 EQ PUSH2 0x1C9 JUMPI DUP1 PUSH4 0x6FDDE03 EQ PUSH2 0x1F9 JUMPI DUP1 PUSH4 0x81812FC EQ PUSH2 0x217 JUMPI JUMPDEST PUSH1 0x0 DUP1 REVERT JUMPDEST PUSH2 0x1E3 PUSH1 0x4 DUP1 CALLDATASIZE SUB DUP2 ADD SWAP1 PUSH2 0x1DE SWAP2 SWAP1 PUSH2 0x2D1B JUMP JUMPDEST PUSH2 0x584 JUMP JUMPDEST PUSH1 0x40 MLOAD PUSH2 0x1F0 SWAP2 SWAP1 PUSH2 0x2D63 JUMP JUMPDEST PUSH1 0x40 MLOAD DUP1 SWAP2 SUB SWAP1 RETURN JUMPDEST PUSH2 0x201 PUSH2 0x596 JUMP JUMPDEST PUSH1 0x40 MLOAD PUSH2 0x20E SWAP2 SWAP1 PUSH2 0x2E0E JUMP JUMPDEST PUSH1 0x40 MLOAD DUP1 SWAP2 SUB SWAP1 RETURN JUMPDEST PUSH2 0x231 PUSH1 0x4 DUP1 CALLDATASIZE SUB DUP2 ADD SWAP1 PUSH2 0x22C SWAP2 SWAP1 PUSH2 0x2E66 JUMP JUMPDEST PUSH2 0x628 JUMP JUMPDEST PUSH1 0x40 MLOAD PUSH2 0x23E SWAP2 SWAP1 PUSH2 0x2ED4 JUMP JUMPDEST PUSH1 0x40 MLOAD DUP1 SWAP2 SUB SWAP1 RETURN JUMPDEST PUSH2 0x261 PUSH1 0x4 DUP1 CALLDATASIZE SUB DUP2 ADD SWAP1 PUSH2 0x25C SWAP2 SWAP1 PUSH2 0x2F1B JUMP JUMPDEST PUSH2 0x66E JUMP JUMPDEST STOP JUMPDEST PUSH2 0x27D PUSH1 0x4 DUP1 CALLDATASIZE SUB DUP2 ADD SWAP1 PUSH2 0x278 SWAP2 SWAP1 PUSH2 0x3090 JUMP JUMPDEST PUSH2 0x785 JUMP JUMPDEST STOP JUMPDEST PUSH2 0x299 PUSH1 0x4 DUP1 CALLDATASIZE SUB DUP2 ADD SWAP1 PUSH2 0x294 SWAP2 SWAP1 PUSH2 0x30EC JUMP JUMPDEST PUSH2 0x7F1 JUMP JUMPDEST STOP JUMPDEST PUSH2 0x2B5 PUSH1 0x4 DUP1 CALLDATASIZE SUB DUP2 ADD SWAP1 PUSH2 0x2B0 SWAP2 SWAP1 PUSH2 0x30EC JUMP JUMPDEST PUSH2 0x851 JUMP JUMPDEST STOP JUMPDEST PUSH2 0x2D1 PUSH1 0x4 DUP1 CALLDATASIZE SUB DUP2 ADD SWAP1 PUSH2 0x2CC SWAP2 SWAP1 PUSH2 0x2E66 JUMP JUMPDEST PUSH2 0x871 JUMP JUMPDEST STOP JUMPDEST PUSH2 0x2ED PUSH1 0x4 DUP1 CALLDATASIZE SUB DUP2 ADD SWAP1 PUSH2 0x2E8 SWAP2 SWAP1 PUSH2 0x313F JUMP JUMPDEST PUSH2 0x961 JUMP JUMPDEST PUSH1 0x40 MLOAD PUSH2 0x2FA SWAP2 SWAP1 PUSH2 0x2D63 JUMP JUMPDEST PUSH1 0x40 MLOAD DUP1 SWAP2 SUB SWAP1 RETURN JUMPDEST PUSH2 0x31D PUSH1 0x4 DUP1 CALLDATASIZE SUB DUP2 ADD SWAP1 PUSH2 0x318 SWAP2 SWAP1 PUSH2 0x313F JUMP JUMPDEST PUSH2 0x981 JUMP JUMPDEST STOP JUMPDEST PUSH2 0x339 PUSH1 0x4 DUP1 CALLDATASIZE SUB DUP2 ADD SWAP1 PUSH2 0x334 SWAP2 SWAP1 PUSH2 0x2E66 JUMP JUMPDEST PUSH2 0x9E4 JUMP JUMPDEST PUSH1 0x40 MLOAD PUSH2 0x346 SWAP2 SWAP1 PUSH2 0x2ED4 JUMP JUMPDEST PUSH1 0x40 MLOAD DUP1 SWAP2 SUB SWAP1 RETURN JUMPDEST PUSH2 0x369 PUSH1 0x4 DUP1 CALLDATASIZE SUB DUP2 ADD SWAP1 PUSH2 0x364 SWAP2 SWAP1 PUSH2 0x2E66 JUMP JUMPDEST PUSH2 0xA6A JUMP JUMPDEST STOP JUMPDEST PUSH2 0x385 PUSH1 0x4 DUP1 CALLDATASIZE SUB DUP2 ADD SWAP1 PUSH2 0x380 SWAP2 SWAP1 PUSH2 0x313F JUMP JUMPDEST PUSH2 0xA7C JUMP JUMPDEST PUSH1 0x40 MLOAD PUSH2 0x392 SWAP2 SWAP1 PUSH2 0x317B JUMP JUMPDEST PUSH1 0x40 MLOAD DUP1 SWAP2 SUB SWAP1 RETURN JUMPDEST PUSH2 0x3A3 PUSH2 0xB33 JUMP JUMPDEST STOP JUMPDEST PUSH2 0x3AD PUSH2 0xB47 JUMP JUMPDEST PUSH1 0x40 MLOAD PUSH2 0x3BA SWAP2 SWAP1 PUSH2 0x2ED4 JUMP JUMPDEST PUSH1 0x40 MLOAD DUP1 SWAP2 SUB SWAP1 RETURN JUMPDEST PUSH2 0x3DD PUSH1 0x4 DUP1 CALLDATASIZE SUB DUP2 ADD SWAP1 PUSH2 0x3D8 SWAP2 SWAP1 PUSH2 0x3196 JUMP JUMPDEST PUSH2 0xB71 JUMP JUMPDEST PUSH1 0x40 MLOAD PUSH2 0x3ED SWAP5 SWAP4 SWAP3 SWAP2 SWAP1 PUSH2 0x31DF JUMP JUMPDEST PUSH1 0x40 MLOAD DUP1 SWAP2 SUB SWAP1 RETURN JUMPDEST PUSH2 0x410 PUSH1 0x4 DUP1 CALLDATASIZE SUB DUP2 ADD SWAP1 PUSH2 0x40B SWAP2 SWAP1 PUSH2 0x3257 JUMP JUMPDEST PUSH2 0xC6C JUMP JUMPDEST STOP JUMPDEST PUSH2 0x41A PUSH2 0xCB1 JUMP JUMPDEST PUSH1 0x40 MLOAD PUSH2 0x427 SWAP2 SWAP1 PUSH2 0x2E0E JUMP JUMPDEST PUSH1 0x40 MLOAD DUP1 SWAP2 SUB SWAP1 RETURN JUMPDEST PUSH2 0x44A PUSH1 0x4 DUP1 CALLDATASIZE SUB DUP2 ADD SWAP1 PUSH2 0x445 SWAP2 SWAP1 PUSH2 0x32B3 JUMP JUMPDEST PUSH2 0xD43 JUMP JUMPDEST STOP JUMPDEST PUSH2 0x466 PUSH1 0x4 DUP1 CALLDATASIZE SUB DUP2 ADD SWAP1 PUSH2 0x461 SWAP2 SWAP1 PUSH2 0x3322 JUMP JUMPDEST PUSH2 0x1042 JUMP JUMPDEST STOP JUMPDEST PUSH2 0x482 PUSH1 0x4 DUP1 CALLDATASIZE SUB DUP2 ADD SWAP1 PUSH2 0x47D SWAP2 SWAP1 PUSH2 0x313F JUMP JUMPDEST PUSH2 0x1058 JUMP JUMPDEST STOP JUMPDEST PUSH2 0x49E PUSH1 0x4 DUP1 CALLDATASIZE SUB DUP2 ADD SWAP1 PUSH2 0x499 SWAP2 SWAP1 PUSH2 0x3403 JUMP JUMPDEST PUSH2 0x10BB JUMP JUMPDEST STOP JUMPDEST PUSH2 0x4BA PUSH1 0x4 DUP1 CALLDATASIZE SUB DUP2 ADD SWAP1 PUSH2 0x4B5 SWAP2 SWAP1 PUSH2 0x3090 JUMP JUMPDEST PUSH2 0x111D JUMP JUMPDEST STOP JUMPDEST PUSH2 0x4D6 PUSH1 0x4 DUP1 CALLDATASIZE SUB DUP2 ADD SWAP1 PUSH2 0x4D1 SWAP2 SWAP1 PUSH2 0x2E66 JUMP JUMPDEST PUSH2 0x1267 JUMP JUMPDEST PUSH1 0x40 MLOAD PUSH2 0x4E3 SWAP2 SWAP1 PUSH2 0x2E0E JUMP JUMPDEST PUSH1 0x40 MLOAD DUP1 SWAP2 SUB SWAP1 RETURN JUMPDEST PUSH2 0x506 PUSH1 0x4 DUP1 CALLDATASIZE SUB DUP2 ADD SWAP1 PUSH2 0x501 SWAP2 SWAP1 PUSH2 0x2E66 JUMP JUMPDEST PUSH2 0x1279 JUMP JUMPDEST PUSH1 0x40 MLOAD PUSH2 0x513 SWAP2 SWAP1 PUSH2 0x2E0E JUMP JUMPDEST PUSH1 0x40 MLOAD DUP1 SWAP2 SUB SWAP1 RETURN JUMPDEST PUSH2 0x536 PUSH1 0x4 DUP1 CALLDATASIZE SUB DUP2 ADD SWAP1 PUSH2 0x531 SWAP2 SWAP1 PUSH2 0x3486 JUMP JUMPDEST PUSH2 0x1319 JUMP JUMPDEST STOP JUMPDEST PUSH2 0x552 PUSH1 0x4 DUP1 CALLDATASIZE SUB DUP2 ADD SWAP1 PUSH2 0x54D SWAP2 SWAP1 PUSH2 0x34E2 JUMP JUMPDEST PUSH2 0x1405 JUMP JUMPDEST PUSH1 0x40 MLOAD PUSH2 0x55F SWAP2 SWAP1 PUSH2 0x2D63 JUMP JUMPDEST PUSH1 0x40 MLOAD DUP1 SWAP2 SUB SWAP1 RETURN JUMPDEST PUSH2 0x582 PUSH1 0x4 DUP1 CALLDATASIZE SUB DUP2 ADD SWAP1 PUSH2 0x57D SWAP2 SWAP1 PUSH2 0x313F JUMP JUMPDEST PUSH2 0x1499 JUMP JUMPDEST STOP JUMPDEST PUSH1 0x0 PUSH2 0x58F DUP3 PUSH2 0x151C JUMP JUMPDEST SWAP1 POP SWAP2 SWAP1 POP JUMP JUMPDEST PUSH1 0x60 PUSH1 0x0 DUP1 SLOAD PUSH2 0x5A5 SWAP1 PUSH2 0x3551 JUMP JUMPDEST DUP1 PUSH1 0x1F ADD PUSH1 0x20 DUP1 SWAP2 DIV MUL PUSH1 0x20 ADD PUSH1 0x40 MLOAD SWAP1 DUP2 ADD PUSH1 0x40 MSTORE DUP1 SWAP3 SWAP2 SWAP1 DUP2 DUP2 MSTORE PUSH1 0x20 ADD DUP3 DUP1 SLOAD PUSH2 0x5D1 SWAP1 PUSH2 0x3551 JUMP JUMPDEST DUP1 ISZERO PUSH2 0x61E JUMPI DUP1 PUSH1 0x1F LT PUSH2 0x5F3 JUMPI PUSH2 0x100 DUP1 DUP4 SLOAD DIV MUL DUP4 MSTORE SWAP2 PUSH1 0x20 ADD SWAP2 PUSH2 0x61E JUMP JUMPDEST DUP3 ADD SWAP2 SWAP1 PUSH1 0x0 MSTORE PUSH1 0x20 PUSH1 0x0 KECCAK256 SWAP1 JUMPDEST DUP2 SLOAD DUP2 MSTORE SWAP1 PUSH1 0x1 ADD SWAP1 PUSH1 0x20 ADD DUP1 DUP4 GT PUSH2 0x601 JUMPI DUP3 SWAP1 SUB PUSH1 0x1F AND DUP3 ADD SWAP2 JUMPDEST POP POP POP POP POP SWAP1 POP SWAP1 JUMP JUMPDEST PUSH1 0x0 PUSH2 0x633 DUP3 PUSH2 0x157D JUMP JUMPDEST PUSH1 0x4 PUSH1 0x0 DUP4 DUP2 MSTORE PUSH1 0x20 ADD SWAP1 DUP2 MSTORE PUSH1 0x20 ADD PUSH1 0x0 KECCAK256 PUSH1 0x0 SWAP1 SLOAD SWAP1 PUSH2 0x100 EXP SWAP1 DIV PUSH20 0xFFFFFFFFFFFFFFFFFFFFFFFFFFFFFFFFFFFFFFFF AND SWAP1 POP SWAP2 SWAP1 POP JUMP JUMPDEST PUSH1 0x0 PUSH2 0x679 DUP3 PUSH2 0x9E4 JUMP JUMPDEST SWAP1 POP DUP1 PUSH20 0xFFFFFFFFFFFFFFFFFFFFFFFFFFFFFFFFFFFFFFFF AND DUP4 PUSH20 0xFFFFFFFFFFFFFFFFFFFFFFFFFFFFFFFFFFFFFFFF AND SUB PUSH2 0x6E9 JUMPI PUSH1 0x40 MLOAD PUSH32 0x8C379A000000000000000000000000000000000000000000000000000000000 DUP2 MSTORE PUSH1 0x4 ADD PUSH2 0x6E0 SWAP1 PUSH2 0x35F4 JUMP JUMPDEST PUSH1 0x40 MLOAD DUP1 SWAP2 SUB SWAP1 REVERT JUMPDEST DUP1 PUSH20 0xFFFFFFFFFFFFFFFFFFFFFFFFFFFFFFFFFFFFFFFF AND PUSH2 0x708 PUSH2 0x15C8 JUMP JUMPDEST PUSH20 0xFFFFFFFFFFFFFFFFFFFFFFFFFFFFFFFFFFFFFFFF AND EQ DUP1 PUSH2 0x737 JUMPI POP PUSH2 0x736 DUP2 PUSH2 0x731 PUSH2 0x15C8 JUMP JUMPDEST PUSH2 0x1405 JUMP JUMPDEST JUMPDEST PUSH2 0x776 JUMPI PUSH1 0x40 MLOAD PUSH32 0x8C379A000000000000000000000000000000000000000000000000000000000 DUP2 MSTORE PUSH1 0x4 ADD PUSH2 0x76D SWAP1 PUSH2 0x3686 JUMP JUMPDEST PUSH1 0x40 MLOAD DUP1 SWAP2 SUB SWAP1 REVERT JUMPDEST PUSH2 0x780 DUP4 DUP4 PUSH2 0x15D0 JUMP JUMPDEST POP POP POP JUMP JUMPDEST PUSH2 0x78D PUSH2 0x1689 JUMP JUMPDEST DUP1 PUSH1 0xB DUP4 PUSH1 0x40 MLOAD PUSH2 0x79E SWAP2 SWAP1 PUSH2 0x36E2 JUMP JUMPDEST SWAP1 DUP2 MSTORE PUSH1 0x20 ADD PUSH1 0x40 MLOAD DUP1 SWAP2 SUB SWAP1 KECCAK256 PUSH1 0x1 ADD PUSH1 0x0 PUSH2 0x100 EXP DUP2 SLOAD DUP2 PUSH20 0xFFFFFFFFFFFFFFFFFFFFFFFFFFFFFFFFFFFFFFFF MUL NOT AND SWAP1 DUP4 PUSH20 0xFFFFFFFFFFFFFFFFFFFFFFFFFFFFFFFFFFFFFFFF AND MUL OR SWAP1 SSTORE POP POP POP JUMP JUMPDEST PUSH2 0x802 PUSH2 0x7FC PUSH2 0x15C8 JUMP JUMPDEST DUP3 PUSH2 0x1707 JUMP JUMPDEST PUSH2 0x841 JUMPI PUSH1 0x40 MLOAD PUSH32 0x8C379A000000000000000000000000000000000000000000000000000000000 DUP2 MSTORE PUSH1 0x4 ADD PUSH2 0x838 SWAP1 PUSH2 0x376B JUMP JUMPDEST PUSH1 0x40 MLOAD DUP1 SWAP2 SUB SWAP1 REVERT JUMPDEST PUSH2 0x84C DUP4 DUP4 DUP4 PUSH2 0x179C JUMP JUMPDEST POP POP POP JUMP JUMPDEST PUSH2 0x86C DUP4 DUP4 DUP4 PUSH1 0x40 MLOAD DUP1 PUSH1 0x20 ADD PUSH1 0x40 MSTORE DUP1 PUSH1 0x0 DUP2 MSTORE POP PUSH2 0x10BB JUMP JUMPDEST POP POP POP JUMP JUMPDEST PUSH2 0x916 CALLER PUSH1 0xA PUSH1 0x0 DUP5 DUP2 MSTORE PUSH1 0x20 ADD SWAP1 DUP2 MSTORE PUSH1 0x20 ADD PUSH1 0x0 KECCAK256 DUP1 SLOAD PUSH2 0x893 SWAP1 PUSH2 0x3551 JUMP JUMPDEST DUP1 PUSH1 0x1F ADD PUSH1 0x20 DUP1 SWAP2 DIV MUL PUSH1 0x20 ADD PUSH1 0x40 MLOAD SWAP1 DUP2 ADD PUSH1 0x40 MSTORE DUP1 SWAP3 SWAP2 SWAP1 DUP2 DUP2 MSTORE PUSH1 0x20 ADD DUP3 DUP1 SLOAD PUSH2 0x8BF SWAP1 PUSH2 0x3551 JUMP JUMPDEST DUP1 ISZERO PUSH2 0x90C JUMPI DUP1 PUSH1 0x1F LT PUSH2 0x8E1 JUMPI PUSH2 0x100 DUP1 DUP4 SLOAD DIV MUL DUP4 MSTORE SWAP2 PUSH1 0x20 ADD SWAP2 PUSH2 0x90C JUMP JUMPDEST DUP3 ADD SWAP2 SWAP1 PUSH1 0x0 MSTORE PUSH1 0x20 PUSH1 0x0 KECCAK256 SWAP1 JUMPDEST DUP2 SLOAD DUP2 MSTORE SWAP1 PUSH1 0x1 ADD SWAP1 PUSH1 0x20 ADD DUP1 DUP4 GT PUSH2 0x8EF JUMPI DUP3 SWAP1 SUB PUSH1 0x1F AND DUP3 ADD SWAP2 JUMPDEST POP POP POP POP POP PUSH2 0x1A95 JUMP JUMPDEST PUSH2 0x955 JUMPI PUSH1 0x40 MLOAD PUSH32 0x8C379A000000000000000000000000000000000000000000000000000000000 DUP2 MSTORE PUSH1 0x4 ADD PUSH2 0x94C SWAP1 PUSH2 0x37FD JUMP JUMPDEST PUSH1 0x40 MLOAD DUP1 SWAP2 SUB SWAP1 REVERT JUMPDEST PUSH2 0x95E DUP2 PUSH2 0x1B4C JUMP JUMPDEST POP JUMP JUMPDEST PUSH1 0xC PUSH1 0x20 MSTORE DUP1 PUSH1 0x0 MSTORE PUSH1 0x40 PUSH1 0x0 KECCAK256 PUSH1 0x0 SWAP2 POP SLOAD SWAP1 PUSH2 0x100 EXP SWAP1 DIV PUSH1 0xFF AND DUP2 JUMP JUMPDEST PUSH2 0x989 PUSH2 0x1689 JUMP JUMPDEST PUSH1 0x0 PUSH1 0xC PUSH1 0x0 DUP4 PUSH20 0xFFFFFFFFFFFFFFFFFFFFFFFFFFFFFFFFFFFFFFFF AND PUSH20 0xFFFFFFFFFFFFFFFFFFFFFFFFFFFFFFFFFFFFFFFF AND DUP2 MSTORE PUSH1 0x20 ADD SWAP1 DUP2 MSTORE PUSH1 0x20 ADD PUSH1 0x0 KECCAK256 PUSH1 0x0 PUSH2 0x100 EXP DUP2 SLOAD DUP2 PUSH1 0xFF MUL NOT AND SWAP1 DUP4 ISZERO ISZERO MUL OR SWAP1 SSTORE POP POP JUMP JUMPDEST PUSH1 0x0 DUP1 PUSH2 0x9F0 DUP4 PUSH2 0x1B58 JUMP JUMPDEST SWAP1 POP PUSH1 0x0 PUSH20 0xFFFFFFFFFFFFFFFFFFFFFFFFFFFFFFFFFFFFFFFF AND DUP2 PUSH20 0xFFFFFFFFFFFFFFFFFFFFFFFFFFFFFFFFFFFFFFFF AND SUB PUSH2 0xA61 JUMPI PUSH1 0x40 MLOAD PUSH32 0x8C379A000000000000000000000000000000000000000000000000000000000 DUP2 MSTORE PUSH1 0x4 ADD PUSH2 0xA58 SWAP1 PUSH2 0x3869 JUMP JUMPDEST PUSH1 0x40 MLOAD DUP1 SWAP2 SUB SWAP1 REVERT JUMPDEST DUP1 SWAP2 POP POP SWAP2 SWAP1 POP JUMP JUMPDEST PUSH2 0xA72 PUSH2 0x1689 JUMP JUMPDEST DUP1 PUSH1 0x9 DUP2 SWAP1 SSTORE POP POP JUMP JUMPDEST PUSH1 0x0 DUP1 PUSH20 0xFFFFFFFFFFFFFFFFFFFFFFFFFFFFFFFFFFFFFFFF AND DUP3 PUSH20 0xFFFFFFFFFFFFFFFFFFFFFFFFFFFFFFFFFFFFFFFF AND SUB PUSH2 0xAEC JUMPI PUSH1 0x40 MLOAD PUSH32 0x8C379A000000000000000000000000000000000000000000000000000000000 DUP2 MSTORE PUSH1 0x4 ADD PUSH2 0xAE3 SWAP1 PUSH2 0x38FB JUMP JUMPDEST PUSH1 0x40 MLOAD DUP1 SWAP2 SUB SWAP1 REVERT JUMPDEST PUSH1 0x3 PUSH1 0x0 DUP4 PUSH20 0xFFFFFFFFFFFFFFFFFFFFFFFFFFFFFFFFFFFFFFFF AND PUSH20 0xFFFFFFFFFFFFFFFFFFFFFFFFFFFFFFFFFFFFFFFF AND DUP2 MSTORE PUSH1 0x20 ADD SWAP1 DUP2 MSTORE PUSH1 0x20 ADD PUSH1 0x0 KECCAK256 SLOAD SWAP1 POP SWAP2 SWAP1 POP JUMP JUMPDEST PUSH2 0xB3B PUSH2 0x1689 JUMP JUMPDEST PUSH2 0xB45 PUSH1 0x0 PUSH2 0x1B95 JUMP JUMPDEST JUMP JUMPDEST PUSH1 0x0 PUSH1 0x7 PUSH1 0x0 SWAP1 SLOAD SWAP1 PUSH2 0x100 EXP SWAP1 DIV PUSH20 0xFFFFFFFFFFFFFFFFFFFFFFFFFFFFFFFFFFFFFFFF AND SWAP1 POP SWAP1 JUMP JUMPDEST PUSH1 0xB DUP2 DUP1 MLOAD PUSH1 0x20 DUP2 ADD DUP3 ADD DUP1 MLOAD DUP5 DUP3 MSTORE PUSH1 0x20 DUP4 ADD PUSH1 0x20 DUP6 ADD KECCAK256 DUP2 DUP4 MSTORE DUP1 SWAP6 POP POP POP POP POP POP PUSH1 0x0 SWAP2 POP SWAP1 POP DUP1 PUSH1 0x0 ADD DUP1 SLOAD PUSH2 0xBAA SWAP1 PUSH2 0x3551 JUMP JUMPDEST DUP1 PUSH1 0x1F ADD PUSH1 0x20 DUP1 SWAP2 DIV MUL PUSH1 0x20 ADD PUSH1 0x40 MLOAD SWAP1 DUP2 ADD PUSH1 0x40 MSTORE DUP1 SWAP3 SWAP2 SWAP1 DUP2 DUP2 MSTORE PUSH1 0x20 ADD DUP3 DUP1 SLOAD PUSH2 0xBD6 SWAP1 PUSH2 0x3551 JUMP JUMPDEST DUP1 ISZERO PUSH2 0xC23 JUMPI DUP1 PUSH1 0x1F LT PUSH2 0xBF8 JUMPI PUSH2 0x100 DUP1 DUP4 SLOAD DIV MUL DUP4 MSTORE SWAP2 PUSH1 0x20 ADD SWAP2 PUSH2 0xC23 JUMP JUMPDEST DUP3 ADD SWAP2 SWAP1 PUSH1 0x0 MSTORE PUSH1 0x20 PUSH1 0x0 KECCAK256 SWAP1 JUMPDEST DUP2 SLOAD DUP2 MSTORE SWAP1 PUSH1 0x1 ADD SWAP1 PUSH1 0x20 ADD DUP1 DUP4 GT PUSH2 0xC06 JUMPI DUP3 SWAP1 SUB PUSH1 0x1F AND DUP3 ADD SWAP2 JUMPDEST POP POP POP POP POP SWAP1 DUP1 PUSH1 0x1 ADD PUSH1 0x0 SWAP1 SLOAD SWAP1 PUSH2 0x100 EXP SWAP1 DIV PUSH20 0xFFFFFFFFFFFFFFFFFFFFFFFFFFFFFFFFFFFFFFFF AND SWAP1 DUP1 PUSH1 0x1 ADD PUSH1 0x14 SWAP1 SLOAD SWAP1 PUSH2 0x100 EXP SWAP1 DIV PUSH1 0xFF AND SWAP1 DUP1 PUSH1 0x3 ADD SLOAD SWAP1 POP DUP5 JUMP JUMPDEST PUSH2 0xC74 PUSH2 0x1689 JUMP JUMPDEST DUP1 PUSH1 0xB DUP4 PUSH1 0x40 MLOAD PUSH2 0xC85 SWAP2 SWAP1 PUSH2 0x36E2 JUMP JUMPDEST SWAP1 DUP2 MSTORE PUSH1 0x20 ADD PUSH1 0x40 MLOAD DUP1 SWAP2 SUB SWAP1 KECCAK256 PUSH1 0x1 ADD PUSH1 0x14 PUSH2 0x100 EXP DUP2 SLOAD DUP2 PUSH1 0xFF MUL NOT AND SWAP1 DUP4 ISZERO ISZERO MUL OR SWAP1 SSTORE POP POP POP JUMP JUMPDEST PUSH1 0x60 PUSH1 0x1 DUP1 SLOAD PUSH2 0xCC0 SWAP1 PUSH2 0x3551 JUMP JUMPDEST DUP1 PUSH1 0x1F ADD PUSH1 0x20 DUP1 SWAP2 DIV MUL PUSH1 0x20 ADD PUSH1 0x40 MLOAD SWAP1 DUP2 ADD PUSH1 0x40 MSTORE DUP1 SWAP3 SWAP2 SWAP1 DUP2 DUP2 MSTORE PUSH1 0x20 ADD DUP3 DUP1 SLOAD PUSH2 0xCEC SWAP1 PUSH2 0x3551 JUMP JUMPDEST DUP1 ISZERO PUSH2 0xD39 JUMPI DUP1 PUSH1 0x1F LT PUSH2 0xD0E JUMPI PUSH2 0x100 DUP1 DUP4 SLOAD DIV MUL DUP4 MSTORE SWAP2 PUSH1 0x20 ADD SWAP2 PUSH2 0xD39 JUMP JUMPDEST DUP3 ADD SWAP2 SWAP1 PUSH1 0x0 MSTORE PUSH1 0x20 PUSH1 0x0 KECCAK256 SWAP1 JUMPDEST DUP2 SLOAD DUP2 MSTORE SWAP1 PUSH1 0x1 ADD SWAP1 PUSH1 0x20 ADD DUP1 DUP4 GT PUSH2 0xD1C JUMPI DUP3 SWAP1 SUB PUSH1 0x1F AND DUP3 ADD SWAP2 JUMPDEST POP POP POP POP POP SWAP1 POP SWAP1 JUMP JUMPDEST PUSH2 0xD4D CALLER DUP3 PUSH2 0x1A95 JUMP JUMPDEST PUSH2 0xD8C JUMPI PUSH1 0x40 MLOAD PUSH32 0x8C379A000000000000000000000000000000000000000000000000000000000 DUP2 MSTORE PUSH1 0x4 ADD PUSH2 0xD83 SWAP1 PUSH2 0x3967 JUMP JUMPDEST PUSH1 0x40 MLOAD DUP1 SWAP2 SUB SWAP1 REVERT JUMPDEST PUSH1 0x1 ISZERO ISZERO PUSH1 0xC PUSH1 0x0 DUP6 PUSH20 0xFFFFFFFFFFFFFFFFFFFFFFFFFFFFFFFFFFFFFFFF AND PUSH20 0xFFFFFFFFFFFFFFFFFFFFFFFFFFFFFFFFFFFFFFFF AND DUP2 MSTORE PUSH1 0x20 ADD SWAP1 DUP2 MSTORE PUSH1 0x20 ADD PUSH1 0x0 KECCAK256 PUSH1 0x0 SWAP1 SLOAD SWAP1 PUSH2 0x100 EXP SWAP1 DIV PUSH1 0xFF AND ISZERO ISZERO EQ PUSH2 0xE1F JUMPI PUSH1 0x40 MLOAD PUSH32 0x8C379A000000000000000000000000000000000000000000000000000000000 DUP2 MSTORE PUSH1 0x4 ADD PUSH2 0xE16 SWAP1 PUSH2 0x39D3 JUMP JUMPDEST PUSH1 0x40 MLOAD DUP1 SWAP2 SUB SWAP1 REVERT JUMPDEST PUSH1 0x9 SLOAD DUP3 EQ PUSH2 0xE63 JUMPI PUSH1 0x40 MLOAD PUSH32 0x8C379A000000000000000000000000000000000000000000000000000000000 DUP2 MSTORE PUSH1 0x4 ADD PUSH2 0xE5A SWAP1 PUSH2 0x3A3F JUMP JUMPDEST PUSH1 0x40 MLOAD DUP1 SWAP2 SUB SWAP1 REVERT JUMPDEST PUSH1 0x9 SLOAD DUP4 PUSH20 0xFFFFFFFFFFFFFFFFFFFFFFFFFFFFFFFFFFFFFFFF AND PUSH4 0xDD62ED3E CALLER ADDRESS PUSH1 0x40 MLOAD DUP4 PUSH4 0xFFFFFFFF AND PUSH1 0xE0 SHL DUP2 MSTORE PUSH1 0x4 ADD PUSH2 0xEA1 SWAP3 SWAP2 SWAP1 PUSH2 0x3A5F JUMP JUMPDEST PUSH1 0x20 PUSH1 0x40 MLOAD DUP1 DUP4 SUB DUP2 DUP7 GAS STATICCALL ISZERO DUP1 ISZERO PUSH2 0xEBE JUMPI RETURNDATASIZE PUSH1 0x0 DUP1 RETURNDATACOPY RETURNDATASIZE PUSH1 0x0 REVERT JUMPDEST POP POP POP POP PUSH1 0x40 MLOAD RETURNDATASIZE PUSH1 0x1F NOT PUSH1 0x1F DUP3 ADD AND DUP3 ADD DUP1 PUSH1 0x40 MSTORE POP DUP2 ADD SWAP1 PUSH2 0xEE2 SWAP2 SWAP1 PUSH2 0x3A9D JUMP JUMPDEST LT ISZERO PUSH2 0xF23 JUMPI PUSH1 0x40 MLOAD PUSH32 0x8C379A000000000000000000000000000000000000000000000000000000000 DUP2 MSTORE PUSH1 0x4 ADD PUSH2 0xF1A SWAP1 PUSH2 0x3B3C JUMP JUMPDEST PUSH1 0x40 MLOAD DUP1 SWAP2 SUB SWAP1 REVERT JUMPDEST PUSH1 0x0 DUP4 PUSH20 0xFFFFFFFFFFFFFFFFFFFFFFFFFFFFFFFFFFFFFFFF AND PUSH4 0x23B872DD CALLER ADDRESS DUP7 PUSH1 0x40 MLOAD DUP5 PUSH4 0xFFFFFFFF AND PUSH1 0xE0 SHL DUP2 MSTORE PUSH1 0x4 ADD PUSH2 0xF62 SWAP4 SWAP3 SWAP2 SWAP1 PUSH2 0x3B5C JUMP JUMPDEST PUSH1 0x20 PUSH1 0x40 MLOAD DUP1 DUP4 SUB DUP2 PUSH1 0x0 DUP8 GAS CALL ISZERO DUP1 ISZERO PUSH2 0xF81 JUMPI RETURNDATASIZE PUSH1 0x0 DUP1 RETURNDATACOPY RETURNDATASIZE PUSH1 0x0 REVERT JUMPDEST POP POP POP POP PUSH1 0x40 MLOAD RETURNDATASIZE PUSH1 0x1F NOT PUSH1 0x1F DUP3 ADD AND DUP3 ADD DUP1 PUSH1 0x40 MSTORE POP DUP2 ADD SWAP1 PUSH2 0xFA5 SWAP2 SWAP1 PUSH2 0x3BA8 JUMP JUMPDEST SWAP1 POP DUP1 PUSH2 0xFE7 JUMPI PUSH1 0x40 MLOAD PUSH32 0x8C379A000000000000000000000000000000000000000000000000000000000 DUP2 MSTORE PUSH1 0x4 ADD PUSH2 0xFDE SWAP1 PUSH2 0x3C21 JUMP JUMPDEST PUSH1 0x40 MLOAD DUP1 SWAP2 SUB SWAP1 REVERT JUMPDEST PUSH3 0x278D00 PUSH1 0xB DUP4 PUSH1 0x40 MLOAD PUSH2 0xFFB SWAP2 SWAP1 PUSH2 0x36E2 JUMP JUMPDEST SWAP1 DUP2 MSTORE PUSH1 0x20 ADD PUSH1 0x40 MLOAD DUP1 SWAP2 SUB SWAP1 KECCAK256 PUSH1 0x3 ADD SLOAD PUSH2 0x1017 SWAP2 SWAP1 PUSH2 0x3C70 JUMP JUMPDEST PUSH1 0xB DUP4 PUSH1 0x40 MLOAD PUSH2 0x1027 SWAP2 SWAP1 PUSH2 0x36E2 JUMP JUMPDEST SWAP1 DUP2 MSTORE PUSH1 0x20 ADD PUSH1 0x40 MLOAD DUP1 SWAP2 SUB SWAP1 KECCAK256 PUSH1 0x3 ADD DUP2 SWAP1 SSTORE POP POP POP POP POP JUMP JUMPDEST PUSH2 0x1054 PUSH2 0x104D PUSH2 0x15C8 JUMP JUMPDEST DUP4 DUP4 PUSH2 0x1C5B JUMP JUMPDEST POP POP JUMP JUMPDEST PUSH2 0x1060 PUSH2 0x1689 JUMP JUMPDEST PUSH1 0x1 PUSH1 0xC PUSH1 0x0 DUP4 PUSH20 0xFFFFFFFFFFFFFFFFFFFFFFFFFFFFFFFFFFFFFFFF AND PUSH20 0xFFFFFFFFFFFFFFFFFFFFFFFFFFFFFFFFFFFFFFFF AND DUP2 MSTORE PUSH1 0x20 ADD SWAP1 DUP2 MSTORE PUSH1 0x20 ADD PUSH1 0x0 KECCAK256 PUSH1 0x0 PUSH2 0x100 EXP DUP2 SLOAD DUP2 PUSH1 0xFF MUL NOT AND SWAP1 DUP4 ISZERO ISZERO MUL OR SWAP1 SSTORE POP POP JUMP JUMPDEST PUSH2 0x10CC PUSH2 0x10C6 PUSH2 0x15C8 JUMP JUMPDEST DUP4 PUSH2 0x1707 JUMP JUMPDEST PUSH2 0x110B JUMPI PUSH1 0x40 MLOAD PUSH32 0x8C379A000000000000000000000000000000000000000000000000000000000 DUP2 MSTORE PUSH1 0x4 ADD PUSH2 0x1102 SWAP1 PUSH2 0x376B JUMP JUMPDEST PUSH1 0x40 MLOAD DUP1 SWAP2 SUB SWAP1 REVERT JUMPDEST PUSH2 0x1117 DUP5 DUP5 DUP5 DUP5 PUSH2 0x1DC7 JUMP JUMPDEST POP POP POP POP JUMP JUMPDEST PUSH2 0x1125 PUSH2 0x1689 JUMP JUMPDEST DUP2 PUSH1 0xB DUP4 PUSH1 0x40 MLOAD PUSH2 0x1136 SWAP2 SWAP1 PUSH2 0x36E2 JUMP JUMPDEST SWAP1 DUP2 MSTORE PUSH1 0x20 ADD PUSH1 0x40 MLOAD DUP1 SWAP2 SUB SWAP1 KECCAK256 PUSH1 0x0 ADD SWAP1 DUP2 PUSH2 0x1153 SWAP2 SWAP1 PUSH2 0x3E50 JUMP JUMPDEST POP DUP1 PUSH1 0xB DUP4 PUSH1 0x40 MLOAD PUSH2 0x1165 SWAP2 SWAP1 PUSH2 0x36E2 JUMP JUMPDEST SWAP1 DUP2 MSTORE PUSH1 0x20 ADD PUSH1 0x40 MLOAD DUP1 SWAP2 SUB SWAP1 KECCAK256 PUSH1 0x1 ADD PUSH1 0x0 PUSH2 0x100 EXP DUP2 SLOAD DUP2 PUSH20 0xFFFFFFFFFFFFFFFFFFFFFFFFFFFFFFFFFFFFFFFF MUL NOT AND SWAP1 DUP4 PUSH20 0xFFFFFFFFFFFFFFFFFFFFFFFFFFFFFFFFFFFFFFFF AND MUL OR SWAP1 SSTORE POP PUSH1 0x1 PUSH1 0xB DUP4 PUSH1 0x40 MLOAD PUSH2 0x11C6 SWAP2 SWAP1 PUSH2 0x36E2 JUMP JUMPDEST SWAP1 DUP2 MSTORE PUSH1 0x20 ADD PUSH1 0x40 MLOAD DUP1 SWAP2 SUB SWAP1 KECCAK256 PUSH1 0x1 ADD PUSH1 0x14 PUSH2 0x100 EXP DUP2 SLOAD DUP2 PUSH1 0xFF MUL NOT AND SWAP1 DUP4 ISZERO ISZERO MUL OR SWAP1 SSTORE POP PUSH3 0x278D00 TIMESTAMP PUSH2 0x11FD SWAP2 SWAP1 PUSH2 0x3C70 JUMP JUMPDEST PUSH1 0xB DUP4 PUSH1 0x40 MLOAD PUSH2 0x120D SWAP2 SWAP1 PUSH2 0x36E2 JUMP JUMPDEST SWAP1 DUP2 MSTORE PUSH1 0x20 ADD PUSH1 0x40 MLOAD DUP1 SWAP2 SUB SWAP1 KECCAK256 PUSH1 0x3 ADD DUP2 SWAP1 SSTORE POP PUSH2 0x122C DUP2 DUP4 PUSH2 0x1319 JUMP JUMPDEST PUSH32 0xE2113E2F31E9059E4F64D1910B874F2E8EE4A4FD9081C4910D409F649DFE3B48 DUP3 PUSH1 0x40 MLOAD PUSH2 0x125B SWAP2 SWAP1 PUSH2 0x2E0E JUMP JUMPDEST PUSH1 0x40 MLOAD DUP1 SWAP2 SUB SWAP1 LOG1 POP POP JUMP JUMPDEST PUSH1 0x60 PUSH2 0x1272 DUP3 PUSH2 0x1E23 JUMP JUMPDEST SWAP1 POP SWAP2 SWAP1 POP JUMP JUMPDEST PUSH1 0xA PUSH1 0x20 MSTORE DUP1 PUSH1 0x0 MSTORE PUSH1 0x40 PUSH1 0x0 KECCAK256 PUSH1 0x0 SWAP2 POP SWAP1 POP DUP1 SLOAD PUSH2 0x1298 SWAP1 PUSH2 0x3551 JUMP JUMPDEST DUP1 PUSH1 0x1F ADD PUSH1 0x20 DUP1 SWAP2 DIV MUL PUSH1 0x20 ADD PUSH1 0x40 MLOAD SWAP1 DUP2 ADD PUSH1 0x40 MSTORE DUP1 SWAP3 SWAP2 SWAP1 DUP2 DUP2 MSTORE PUSH1 0x20 ADD DUP3 DUP1 SLOAD PUSH2 0x12C4 SWAP1 PUSH2 0x3551 JUMP JUMPDEST DUP1 ISZERO PUSH2 0x1311 JUMPI DUP1 PUSH1 0x1F LT PUSH2 0x12E6 JUMPI PUSH2 0x100 DUP1 DUP4 SLOAD DIV MUL DUP4 MSTORE SWAP2 PUSH1 0x20 ADD SWAP2 PUSH2 0x1311 JUMP JUMPDEST DUP3 ADD SWAP2 SWAP1 PUSH1 0x0 MSTORE PUSH1 0x20 PUSH1 0x0 KECCAK256 SWAP1 JUMPDEST DUP2 SLOAD DUP2 MSTORE SWAP1 PUSH1 0x1 ADD SWAP1 PUSH1 0x20 ADD DUP1 DUP4 GT PUSH2 0x12F4 JUMPI DUP3 SWAP1 SUB PUSH1 0x1F AND DUP3 ADD SWAP2 JUMPDEST POP POP POP POP POP DUP2 JUMP JUMPDEST PUSH2 0x1323 CALLER DUP3 PUSH2 0x1A95 JUMP JUMPDEST PUSH2 0x1362 JUMPI PUSH1 0x40 MLOAD PUSH32 0x8C379A000000000000000000000000000000000000000000000000000000000 DUP2 MSTORE PUSH1 0x4 ADD PUSH2 0x1359 SWAP1 PUSH2 0x3F94 JUMP JUMPDEST PUSH1 0x40 MLOAD DUP1 SWAP2 SUB SWAP1 REVERT JUMPDEST PUSH1 0x0 PUSH2 0x136E PUSH1 0x8 PUSH2 0x1F35 JUMP JUMPDEST SWAP1 POP DUP2 PUSH1 0xA PUSH1 0x0 DUP4 DUP2 MSTORE PUSH1 0x20 ADD SWAP1 DUP2 MSTORE PUSH1 0x20 ADD PUSH1 0x0 KECCAK256 SWAP1 DUP2 PUSH2 0x1390 SWAP2 SWAP1 PUSH2 0x3E50 JUMP JUMPDEST POP PUSH1 0xB DUP3 PUSH1 0x40 MLOAD PUSH2 0x13A1 SWAP2 SWAP1 PUSH2 0x36E2 JUMP JUMPDEST SWAP1 DUP2 MSTORE PUSH1 0x20 ADD PUSH1 0x40 MLOAD DUP1 SWAP2 SUB SWAP1 KECCAK256 PUSH1 0x2 ADD DUP2 SWAP1 DUP1 PUSH1 0x1 DUP2 SLOAD ADD DUP1 DUP3 SSTORE DUP1 SWAP2 POP POP PUSH1 0x1 SWAP1 SUB SWAP1 PUSH1 0x0 MSTORE PUSH1 0x20 PUSH1 0x0 KECCAK256 ADD PUSH1 0x0 SWAP1 SWAP2 SWAP1 SWAP2 SWAP1 SWAP2 POP SSTORE PUSH2 0x13E3 PUSH1 0x8 PUSH2 0x1F43 JUMP JUMPDEST PUSH2 0x13ED DUP4 DUP3 PUSH2 0x1F59 JUMP JUMPDEST PUSH2 0x1400 DUP2 PUSH2 0x13FB DUP4 DUP6 PUSH2 0x1F77 JUMP JUMPDEST PUSH2 0x1FCE JUMP JUMPDEST POP POP POP JUMP JUMPDEST PUSH1 0x0 PUSH1 0x5 PUSH1 0x0 DUP5 PUSH20 0xFFFFFFFFFFFFFFFFFFFFFFFFFFFFFFFFFFFFFFFF AND PUSH20 0xFFFFFFFFFFFFFFFFFFFFFFFFFFFFFFFFFFFFFFFF AND DUP2 MSTORE PUSH1 0x20 ADD SWAP1 DUP2 MSTORE PUSH1 0x20 ADD PUSH1 0x0 KECCAK256 PUSH1 0x0 DUP4 PUSH20 0xFFFFFFFFFFFFFFFFFFFFFFFFFFFFFFFFFFFFFFFF AND PUSH20 0xFFFFFFFFFFFFFFFFFFFFFFFFFFFFFFFFFFFFFFFF AND DUP2 MSTORE PUSH1 0x20 ADD SWAP1 DUP2 MSTORE PUSH1 0x20 ADD PUSH1 0x0 KECCAK256 PUSH1 0x0 SWAP1 SLOAD SWAP1 PUSH2 0x100 EXP SWAP1 DIV PUSH1 0xFF AND SWAP1 POP SWAP3 SWAP2 POP POP JUMP JUMPDEST PUSH2 0x14A1 PUSH2 0x1689 JUMP JUMPDEST PUSH1 0x0 PUSH20 0xFFFFFFFFFFFFFFFFFFFFFFFFFFFFFFFFFFFFFFFF AND DUP2 PUSH20 0xFFFFFFFFFFFFFFFFFFFFFFFFFFFFFFFFFFFFFFFF AND SUB PUSH2 0x1510 JUMPI PUSH1 0x40 MLOAD PUSH32 0x8C379A000000000000000000000000000000000000000000000000000000000 DUP2 MSTORE PUSH1 0x4 ADD PUSH2 0x1507 SWAP1 PUSH2 0x4026 JUMP JUMPDEST PUSH1 0x40 MLOAD DUP1 SWAP2 SUB SWAP1 REVERT JUMPDEST PUSH2 0x1519 DUP2 PUSH2 0x1B95 JUMP JUMPDEST POP JUMP JUMPDEST PUSH1 0x0 PUSH4 0x49064906 PUSH1 0xE0 SHL PUSH28 0xFFFFFFFFFFFFFFFFFFFFFFFFFFFFFFFFFFFFFFFFFFFFFFFFFFFFFFFF NOT AND DUP3 PUSH28 0xFFFFFFFFFFFFFFFFFFFFFFFFFFFFFFFFFFFFFFFFFFFFFFFFFFFFFFFF NOT AND EQ DUP1 PUSH2 0x1576 JUMPI POP PUSH2 0x1575 DUP3 PUSH2 0x2072 JUMP JUMPDEST JUMPDEST SWAP1 POP SWAP2 SWAP1 POP JUMP JUMPDEST PUSH2 0x1586 DUP2 PUSH2 0x2154 JUMP JUMPDEST PUSH2 0x15C5 JUMPI PUSH1 0x40 MLOAD PUSH32 0x8C379A000000000000000000000000000000000000000000000000000000000 DUP2 MSTORE PUSH1 0x4 ADD PUSH2 0x15BC SWAP1 PUSH2 0x3869 JUMP JUMPDEST PUSH1 0x40 MLOAD DUP1 SWAP2 SUB SWAP1 REVERT JUMPDEST POP JUMP JUMPDEST PUSH1 0x0 CALLER SWAP1 POP SWAP1 JUMP JUMPDEST DUP2 PUSH1 0x4 PUSH1 0x0 DUP4 DUP2 MSTORE PUSH1 0x20 ADD SWAP1 DUP2 MSTORE PUSH1 0x20 ADD PUSH1 0x0 KECCAK256 PUSH1 0x0 PUSH2 0x100 EXP DUP2 SLOAD DUP2 PUSH20 0xFFFFFFFFFFFFFFFFFFFFFFFFFFFFFFFFFFFFFFFF MUL NOT AND SWAP1 DUP4 PUSH20 0xFFFFFFFFFFFFFFFFFFFFFFFFFFFFFFFFFFFFFFFF AND MUL OR SWAP1 SSTORE POP DUP1 DUP3 PUSH20 0xFFFFFFFFFFFFFFFFFFFFFFFFFFFFFFFFFFFFFFFF AND PUSH2 0x1643 DUP4 PUSH2 0x9E4 JUMP JUMPDEST PUSH20 0xFFFFFFFFFFFFFFFFFFFFFFFFFFFFFFFFFFFFFFFF AND PUSH32 0x8C5BE1E5EBEC7D5BD14F71427D1E84F3DD0314C0F7B2291E5B200AC8C7C3B925 PUSH1 0x40 MLOAD PUSH1 0x40 MLOAD DUP1 SWAP2 SUB SWAP1 LOG4 POP POP JUMP JUMPDEST PUSH2 0x1691 PUSH2 0x15C8 JUMP JUMPDEST PUSH20 0xFFFFFFFFFFFFFFFFFFFFFFFFFFFFFFFFFFFFFFFF AND PUSH2 0x16AF PUSH2 0xB47 JUMP JUMPDEST PUSH20 0xFFFFFFFFFFFFFFFFFFFFFFFFFFFFFFFFFFFFFFFF AND EQ PUSH2 0x1705 JUMPI PUSH1 0x40 MLOAD PUSH32 0x8C379A000000000000000000000000000000000000000000000000000000000 DUP2 MSTORE PUSH1 0x4 ADD PUSH2 0x16FC SWAP1 PUSH2 0x4092 JUMP JUMPDEST PUSH1 0x40 MLOAD DUP1 SWAP2 SUB SWAP1 REVERT JUMPDEST JUMP JUMPDEST PUSH1 0x0 DUP1 PUSH2 0x1713 DUP4 PUSH2 0x9E4 JUMP JUMPDEST SWAP1 POP DUP1 PUSH20 0xFFFFFFFFFFFFFFFFFFFFFFFFFFFFFFFFFFFFFFFF AND DUP5 PUSH20 0xFFFFFFFFFFFFFFFFFFFFFFFFFFFFFFFFFFFFFFFF AND EQ DUP1 PUSH2 0x1755 JUMPI POP PUSH2 0x1754 DUP2 DUP6 PUSH2 0x1405 JUMP JUMPDEST JUMPDEST DUP1 PUSH2 0x1793 JUMPI POP DUP4 PUSH20 0xFFFFFFFFFFFFFFFFFFFFFFFFFFFFFFFFFFFFFFFF AND PUSH2 0x177B DUP5 PUSH2 0x628 JUMP JUMPDEST PUSH20 0xFFFFFFFFFFFFFFFFFFFFFFFFFFFFFFFFFFFFFFFF AND EQ JUMPDEST SWAP2 POP POP SWAP3 SWAP2 POP POP JUMP JUMPDEST DUP3 PUSH20 0xFFFFFFFFFFFFFFFFFFFFFFFFFFFFFFFFFFFFFFFF AND PUSH2 0x17BC DUP3 PUSH2 0x9E4 JUMP JUMPDEST PUSH20 0xFFFFFFFFFFFFFFFFFFFFFFFFFFFFFFFFFFFFFFFF AND EQ PUSH2 0x1812 JUMPI PUSH1 0x40 MLOAD PUSH32 0x8C379A000000000000000000000000000000000000000000000000000000000 DUP2 MSTORE PUSH1 0x4 ADD PUSH2 0x1809 SWAP1 PUSH2 0x4124 JUMP JUMPDEST PUSH1 0x40 MLOAD DUP1 SWAP2 SUB SWAP1 REVERT JUMPDEST PUSH1 0x0 PUSH20 0xFFFFFFFFFFFFFFFFFFFFFFFFFFFFFFFFFFFFFFFF AND DUP3 PUSH20 0xFFFFFFFFFFFFFFFFFFFFFFFFFFFFFFFFFFFFFFFF AND SUB PUSH2 0x1881 JUMPI PUSH1 0x40 MLOAD PUSH32 0x8C379A000000000000000000000000000000000000000000000000000000000 DUP2 MSTORE PUSH1 0x4 ADD PUSH2 0x1878 SWAP1 PUSH2 0x41B6 JUMP JUMPDEST PUSH1 0x40 MLOAD DUP1 SWAP2 SUB SWAP1 REVERT JUMPDEST PUSH2 0x188E DUP4 DUP4 DUP4 PUSH1 0x1 PUSH2 0x2195 JUMP JUMPDEST DUP3 PUSH20 0xFFFFFFFFFFFFFFFFFFFFFFFFFFFFFFFFFFFFFFFF AND PUSH2 0x18AE DUP3 PUSH2 0x9E4 JUMP JUMPDEST PUSH20 0xFFFFFFFFFFFFFFFFFFFFFFFFFFFFFFFFFFFFFFFF AND EQ PUSH2 0x1904 JUMPI PUSH1 0x40 MLOAD PUSH32 0x8C379A000000000000000000000000000000000000000000000000000000000 DUP2 MSTORE PUSH1 0x4 ADD PUSH2 0x18FB SWAP1 PUSH2 0x4124 JUMP JUMPDEST PUSH1 0x40 MLOAD DUP1 SWAP2 SUB SWAP1 REVERT JUMPDEST PUSH1 0x4 PUSH1 0x0 DUP3 DUP2 MSTORE PUSH1 0x20 ADD SWAP1 DUP2 MSTORE PUSH1 0x20 ADD PUSH1 0x0 KECCAK256 PUSH1 0x0 PUSH2 0x100 EXP DUP2 SLOAD SWAP1 PUSH20 0xFFFFFFFFFFFFFFFFFFFFFFFFFFFFFFFFFFFFFFFF MUL NOT AND SWAP1 SSTORE PUSH1 0x1 PUSH1 0x3 PUSH1 0x0 DUP6 PUSH20 0xFFFFFFFFFFFFFFFFFFFFFFFFFFFFFFFFFFFFFFFF AND PUSH20 0xFFFFFFFFFFFFFFFFFFFFFFFFFFFFFFFFFFFFFFFF AND DUP2 MSTORE PUSH1 0x20 ADD SWAP1 DUP2 MSTORE PUSH1 0x20 ADD PUSH1 0x0 KECCAK256 PUSH1 0x0 DUP3 DUP3 SLOAD SUB SWAP3 POP POP DUP2 SWAP1 SSTORE POP PUSH1 0x1 PUSH1 0x3 PUSH1 0x0 DUP5 PUSH20 0xFFFFFFFFFFFFFFFFFFFFFFFFFFFFFFFFFFFFFFFF AND PUSH20 0xFFFFFFFFFFFFFFFFFFFFFFFFFFFFFFFFFFFFFFFF AND DUP2 MSTORE PUSH1 0x20 ADD SWAP1 DUP2 MSTORE PUSH1 0x20 ADD PUSH1 0x0 KECCAK256 PUSH1 0x0 DUP3 DUP3 SLOAD ADD SWAP3 POP POP DUP2 SWAP1 SSTORE POP DUP2 PUSH1 0x2 PUSH1 0x0 DUP4 DUP2 MSTORE PUSH1 0x20 ADD SWAP1 DUP2 MSTORE PUSH1 0x20 ADD PUSH1 0x0 KECCAK256 PUSH1 0x0 PUSH2 0x100 EXP DUP2 SLOAD DUP2 PUSH20 0xFFFFFFFFFFFFFFFFFFFFFFFFFFFFFFFFFFFFFFFF MUL NOT AND SWAP1 DUP4 PUSH20 0xFFFFFFFFFFFFFFFFFFFFFFFFFFFFFFFFFFFFFFFF AND MUL OR SWAP1 SSTORE POP DUP1 DUP3 PUSH20 0xFFFFFFFFFFFFFFFFFFFFFFFFFFFFFFFFFFFFFFFF AND DUP5 PUSH20 0xFFFFFFFFFFFFFFFFFFFFFFFFFFFFFFFFFFFFFFFF AND PUSH32 0xDDF252AD1BE2C89B69C2B068FC378DAA952BA7F163C4A11628F55A4DF523B3EF PUSH1 0x40 MLOAD PUSH1 0x40 MLOAD DUP1 SWAP2 SUB SWAP1 LOG4 PUSH2 0x1A90 DUP4 DUP4 DUP4 PUSH1 0x1 PUSH2 0x2216 JUMP JUMPDEST POP POP POP JUMP JUMPDEST PUSH1 0x0 PUSH2 0x1A9F PUSH2 0xB47 JUMP JUMPDEST PUSH20 0xFFFFFFFFFFFFFFFFFFFFFFFFFFFFFFFFFFFFFFFF AND DUP4 PUSH20 0xFFFFFFFFFFFFFFFFFFFFFFFFFFFFFFFFFFFFFFFF AND EQ DUP1 PUSH2 0x1B44 JUMPI POP DUP3 PUSH20 0xFFFFFFFFFFFFFFFFFFFFFFFFFFFFFFFFFFFFFFFF AND PUSH1 0xB DUP4 PUSH1 0x40 MLOAD PUSH2 0x1AFA SWAP2 SWAP1 PUSH2 0x36E2 JUMP JUMPDEST SWAP1 DUP2 MSTORE PUSH1 0x20 ADD PUSH1 0x40 MLOAD DUP1 SWAP2 SUB SWAP1 KECCAK256 PUSH1 0x1 ADD PUSH1 0x0 SWAP1 SLOAD SWAP1 PUSH2 0x100 EXP SWAP1 DIV PUSH20 0xFFFFFFFFFFFFFFFFFFFFFFFFFFFFFFFFFFFFFFFF AND PUSH20 0xFFFFFFFFFFFFFFFFFFFFFFFFFFFFFFFFFFFFFFFF AND EQ JUMPDEST SWAP1 POP SWAP3 SWAP2 POP POP JUMP JUMPDEST PUSH2 0x1B55 DUP2 PUSH2 0x221C JUMP JUMPDEST POP JUMP JUMPDEST PUSH1 0x0 PUSH1 0x2 PUSH1 0x0 DUP4 DUP2 MSTORE PUSH1 0x20 ADD SWAP1 DUP2 MSTORE PUSH1 0x20 ADD PUSH1 0x0 KECCAK256 PUSH1 0x0 SWAP1 SLOAD SWAP1 PUSH2 0x100 EXP SWAP1 DIV PUSH20 0xFFFFFFFFFFFFFFFFFFFFFFFFFFFFFFFFFFFFFFFF AND SWAP1 POP SWAP2 SWAP1 POP JUMP JUMPDEST PUSH1 0x0 PUSH1 0x7 PUSH1 0x0 SWAP1 SLOAD SWAP1 PUSH2 0x100 EXP SWAP1 DIV PUSH20 0xFFFFFFFFFFFFFFFFFFFFFFFFFFFFFFFFFFFFFFFF AND SWAP1 POP DUP2 PUSH1 0x7 PUSH1 0x0 PUSH2 0x100 EXP DUP2 SLOAD DUP2 PUSH20 0xFFFFFFFFFFFFFFFFFFFFFFFFFFFFFFFFFFFFFFFF MUL NOT AND SWAP1 DUP4 PUSH20 0xFFFFFFFFFFFFFFFFFFFFFFFFFFFFFFFFFFFFFFFF AND MUL OR SWAP1 SSTORE POP DUP2 PUSH20 0xFFFFFFFFFFFFFFFFFFFFFFFFFFFFFFFFFFFFFFFF AND DUP2 PUSH20 0xFFFFFFFFFFFFFFFFFFFFFFFFFFFFFFFFFFFFFFFF AND PUSH32 0x8BE0079C531659141344CD1FD0A4F28419497F9722A3DAAFE3B4186F6B6457E0 PUSH1 0x40 MLOAD PUSH1 0x40 MLOAD DUP1 SWAP2 SUB SWAP1 LOG3 POP POP JUMP JUMPDEST DUP2 PUSH20 0xFFFFFFFFFFFFFFFFFFFFFFFFFFFFFFFFFFFFFFFF AND DUP4 PUSH20 0xFFFFFFFFFFFFFFFFFFFFFFFFFFFFFFFFFFFFFFFF AND SUB PUSH2 0x1CC9 JUMPI PUSH1 0x40 MLOAD PUSH32 0x8C379A000000000000000000000000000000000000000000000000000000000 DUP2 MSTORE PUSH1 0x4 ADD PUSH2 0x1CC0 SWAP1 PUSH2 0x4222 JUMP JUMPDEST PUSH1 0x40 MLOAD DUP1 SWAP2 SUB SWAP1 REVERT JUMPDEST DUP1 PUSH1 0x5 PUSH1 0x0 DUP6 PUSH20 0xFFFFFFFFFFFFFFFFFFFFFFFFFFFFFFFFFFFFFFFF AND PUSH20 0xFFFFFFFFFFFFFFFFFFFFFFFFFFFFFFFFFFFFFFFF AND DUP2 MSTORE PUSH1 0x20 ADD SWAP1 DUP2 MSTORE PUSH1 0x20 ADD PUSH1 0x0 KECCAK256 PUSH1 0x0 DUP5 PUSH20 0xFFFFFFFFFFFFFFFFFFFFFFFFFFFFFFFFFFFFFFFF AND PUSH20 0xFFFFFFFFFFFFFFFFFFFFFFFFFFFFFFFFFFFFFFFF AND DUP2 MSTORE PUSH1 0x20 ADD SWAP1 DUP2 MSTORE PUSH1 0x20 ADD PUSH1 0x0 KECCAK256 PUSH1 0x0 PUSH2 0x100 EXP DUP2 SLOAD DUP2 PUSH1 0xFF MUL NOT AND SWAP1 DUP4 ISZERO ISZERO MUL OR SWAP1 SSTORE POP DUP2 PUSH20 0xFFFFFFFFFFFFFFFFFFFFFFFFFFFFFFFFFFFFFFFF AND DUP4 PUSH20 0xFFFFFFFFFFFFFFFFFFFFFFFFFFFFFFFFFFFFFFFF AND PUSH32 0x17307EAB39AB6107E8899845AD3D59BD9653F200F220920489CA2B5937696C31 DUP4 PUSH1 0x40 MLOAD PUSH2 0x1DBA SWAP2 SWAP1 PUSH2 0x2D63 JUMP JUMPDEST PUSH1 0x40 MLOAD DUP1 SWAP2 SUB SWAP1 LOG3 POP POP POP JUMP JUMPDEST PUSH2 0x1DD2 DUP5 DUP5 DUP5 PUSH2 0x179C JUMP JUMPDEST PUSH2 0x1DDE DUP5 DUP5 DUP5 DUP5 PUSH2 0x226F JUMP JUMPDEST PUSH2 0x1E1D JUMPI PUSH1 0x40 MLOAD PUSH32 0x8C379A000000000000000000000000000000000000000000000000000000000 DUP2 MSTORE PUSH1 0x4 ADD PUSH2 0x1E14 SWAP1 PUSH2 0x42B4 JUMP JUMPDEST PUSH1 0x40 MLOAD DUP1 SWAP2 SUB SWAP1 REVERT JUMPDEST POP POP POP POP JUMP JUMPDEST PUSH1 0x60 PUSH2 0x1E2E DUP3 PUSH2 0x157D JUMP JUMPDEST PUSH1 0x0 PUSH1 0x6 PUSH1 0x0 DUP5 DUP2 MSTORE PUSH1 0x20 ADD SWAP1 DUP2 MSTORE PUSH1 0x20 ADD PUSH1 0x0 KECCAK256 DUP1 SLOAD PUSH2 0x1E4E SWAP1 PUSH2 0x3551 JUMP JUMPDEST DUP1 PUSH1 0x1F ADD PUSH1 0x20 DUP1 SWAP2 DIV MUL PUSH1 0x20 ADD PUSH1 0x40 MLOAD SWAP1 DUP2 ADD PUSH1 0x40 MSTORE DUP1 SWAP3 SWAP2 SWAP1 DUP2 DUP2 MSTORE PUSH1 0x20 ADD DUP3 DUP1 SLOAD PUSH2 0x1E7A SWAP1 PUSH2 0x3551 JUMP JUMPDEST DUP1 ISZERO PUSH2 0x1EC7 JUMPI DUP1 PUSH1 0x1F LT PUSH2 0x1E9C JUMPI PUSH2 0x100 DUP1 DUP4 SLOAD DIV MUL DUP4 MSTORE SWAP2 PUSH1 0x20 ADD SWAP2 PUSH2 0x1EC7 JUMP JUMPDEST DUP3 ADD SWAP2 SWAP1 PUSH1 0x0 MSTORE PUSH1 0x20 PUSH1 0x0 KECCAK256 SWAP1 JUMPDEST DUP2 SLOAD DUP2 MSTORE SWAP1 PUSH1 0x1 ADD SWAP1 PUSH1 0x20 ADD DUP1 DUP4 GT PUSH2 0x1EAA JUMPI DUP3 SWAP1 SUB PUSH1 0x1F AND DUP3 ADD SWAP2 JUMPDEST POP POP POP POP POP SWAP1 POP PUSH1 0x0 PUSH2 0x1ED8 PUSH2 0x23F6 JUMP JUMPDEST SWAP1 POP PUSH1 0x0 DUP2 MLOAD SUB PUSH2 0x1EED JUMPI DUP2 SWAP3 POP POP POP PUSH2 0x1F30 JUMP JUMPDEST PUSH1 0x0 DUP3 MLOAD GT ISZERO PUSH2 0x1F22 JUMPI DUP1 DUP3 PUSH1 0x40 MLOAD PUSH1 0x20 ADD PUSH2 0x1F0A SWAP3 SWAP2 SWAP1 PUSH2 0x42D4 JUMP JUMPDEST PUSH1 0x40 MLOAD PUSH1 0x20 DUP2 DUP4 SUB SUB DUP2 MSTORE SWAP1 PUSH1 0x40 MSTORE SWAP3 POP POP POP PUSH2 0x1F30 JUMP JUMPDEST PUSH2 0x1F2B DUP5 PUSH2 0x240D JUMP JUMPDEST SWAP3 POP POP POP JUMPDEST SWAP2 SWAP1 POP JUMP JUMPDEST PUSH1 0x0 DUP2 PUSH1 0x0 ADD SLOAD SWAP1 POP SWAP2 SWAP1 POP JUMP JUMPDEST PUSH1 0x1 DUP2 PUSH1 0x0 ADD PUSH1 0x0 DUP3 DUP3 SLOAD ADD SWAP3 POP POP DUP2 SWAP1 SSTORE POP POP JUMP JUMPDEST PUSH2 0x1F73 DUP3 DUP3 PUSH1 0x40 MLOAD DUP1 PUSH1 0x20 ADD PUSH1 0x40 MSTORE DUP1 PUSH1 0x0 DUP2 MSTORE POP PUSH2 0x2475 JUMP JUMPDEST POP POP JUMP JUMPDEST PUSH1 0x60 PUSH1 0x0 DUP3 PUSH1 0x40 MLOAD PUSH1 0x20 ADD PUSH2 0x1F8C SWAP2 SWAP1 PUSH2 0x449A JUMP JUMPDEST PUSH1 0x40 MLOAD PUSH1 0x20 DUP2 DUP4 SUB SUB DUP2 MSTORE SWAP1 PUSH1 0x40 MSTORE SWAP1 POP PUSH2 0x1FA6 DUP2 PUSH2 0x24D0 JUMP JUMPDEST PUSH1 0x40 MLOAD PUSH1 0x20 ADD PUSH2 0x1FB6 SWAP2 SWAP1 PUSH2 0x4534 JUMP JUMPDEST PUSH1 0x40 MLOAD PUSH1 0x20 DUP2 DUP4 SUB SUB DUP2 MSTORE SWAP1 PUSH1 0x40 MSTORE SWAP2 POP POP SWAP3 SWAP2 POP POP JUMP JUMPDEST PUSH2 0x1FD7 DUP3 PUSH2 0x2154 JUMP JUMPDEST PUSH2 0x2016 JUMPI PUSH1 0x40 MLOAD PUSH32 0x8C379A000000000000000000000000000000000000000000000000000000000 DUP2 MSTORE PUSH1 0x4 ADD PUSH2 0x200D SWAP1 PUSH2 0x45C8 JUMP JUMPDEST PUSH1 0x40 MLOAD DUP1 SWAP2 SUB SWAP1 REVERT JUMPDEST DUP1 PUSH1 0x6 PUSH1 0x0 DUP5 DUP2 MSTORE PUSH1 0x20 ADD SWAP1 DUP2 MSTORE PUSH1 0x20 ADD PUSH1 0x0 KECCAK256 SWAP1 DUP2 PUSH2 0x2036 SWAP2 SWAP1 PUSH2 0x3E50 JUMP JUMPDEST POP PUSH32 0xF8E1A15ABA9398E019F0B49DF1A4FDE98EE17AE345CB5F6B5E2C27F5033E8CE7 DUP3 PUSH1 0x40 MLOAD PUSH2 0x2066 SWAP2 SWAP1 PUSH2 0x317B JUMP JUMPDEST PUSH1 0x40 MLOAD DUP1 SWAP2 SUB SWAP1 LOG1 POP POP JUMP JUMPDEST PUSH1 0x0 PUSH32 0x80AC58CD00000000000000000000000000000000000000000000000000000000 PUSH28 0xFFFFFFFFFFFFFFFFFFFFFFFFFFFFFFFFFFFFFFFFFFFFFFFFFFFFFFFF NOT AND DUP3 PUSH28 0xFFFFFFFFFFFFFFFFFFFFFFFFFFFFFFFFFFFFFFFFFFFFFFFFFFFFFFFF NOT AND EQ DUP1 PUSH2 0x213D JUMPI POP PUSH32 0x5B5E139F00000000000000000000000000000000000000000000000000000000 PUSH28 0xFFFFFFFFFFFFFFFFFFFFFFFFFFFFFFFFFFFFFFFFFFFFFFFFFFFFFFFF NOT AND DUP3 PUSH28 0xFFFFFFFFFFFFFFFFFFFFFFFFFFFFFFFFFFFFFFFFFFFFFFFFFFFFFFFF NOT AND EQ JUMPDEST DUP1 PUSH2 0x214D JUMPI POP PUSH2 0x214C DUP3 PUSH2 0x2633 JUMP JUMPDEST JUMPDEST SWAP1 POP SWAP2 SWAP1 POP JUMP JUMPDEST PUSH1 0x0 DUP1 PUSH20 0xFFFFFFFFFFFFFFFFFFFFFFFFFFFFFFFFFFFFFFFF AND PUSH2 0x2176 DUP4 PUSH2 0x1B58 JUMP JUMPDEST PUSH20 0xFFFFFFFFFFFFFFFFFFFFFFFFFFFFFFFFFFFFFFFF AND EQ ISZERO SWAP1 POP SWAP2 SWAP1 POP JUMP JUMPDEST PUSH1 0x0 PUSH20 0xFFFFFFFFFFFFFFFFFFFFFFFFFFFFFFFFFFFFFFFF AND DUP5 PUSH20 0xFFFFFFFFFFFFFFFFFFFFFFFFFFFFFFFFFFFFFFFF AND EQ PUSH2 0x2204 JUMPI PUSH1 0x40 MLOAD PUSH32 0x8C379A000000000000000000000000000000000000000000000000000000000 DUP2 MSTORE PUSH1 0x4 ADD PUSH2 0x21FB SWAP1 PUSH2 0x4634 JUMP JUMPDEST PUSH1 0x40 MLOAD DUP1 SWAP2 SUB SWAP1 REVERT JUMPDEST PUSH2 0x2210 DUP5 DUP5 DUP5 DUP5 PUSH2 0x269D JUMP JUMPDEST POP POP POP POP JUMP JUMPDEST POP POP POP POP JUMP JUMPDEST PUSH2 0x2225 DUP2 PUSH2 0x26A3 JUMP JUMPDEST PUSH1 0x0 PUSH1 0x6 PUSH1 0x0 DUP4 DUP2 MSTORE PUSH1 0x20 ADD SWAP1 DUP2 MSTORE PUSH1 0x20 ADD PUSH1 0x0 KECCAK256 DUP1 SLOAD PUSH2 0x2245 SWAP1 PUSH2 0x3551 JUMP JUMPDEST SWAP1 POP EQ PUSH2 0x226C JUMPI PUSH1 0x6 PUSH1 0x0 DUP3 DUP2 MSTORE PUSH1 0x20 ADD SWAP1 DUP2 MSTORE PUSH1 0x20 ADD PUSH1 0x0 KECCAK256 PUSH1 0x0 PUSH2 0x226B SWAP2 SWAP1 PUSH2 0x2C52 JUMP JUMPDEST JUMPDEST POP JUMP JUMPDEST PUSH1 0x0 PUSH2 0x2290 DUP5 PUSH20 0xFFFFFFFFFFFFFFFFFFFFFFFFFFFFFFFFFFFFFFFF AND PUSH2 0x27F1 JUMP JUMPDEST ISZERO PUSH2 0x23E9 JUMPI DUP4 PUSH20 0xFFFFFFFFFFFFFFFFFFFFFFFFFFFFFFFFFFFFFFFF AND PUSH4 0x150B7A02 PUSH2 0x22B9 PUSH2 0x15C8 JUMP JUMPDEST DUP8 DUP7 DUP7 PUSH1 0x40 MLOAD DUP6 PUSH4 0xFFFFFFFF AND PUSH1 0xE0 SHL DUP2 MSTORE PUSH1 0x4 ADD PUSH2 0x22DB SWAP5 SWAP4 SWAP3 SWAP2 SWAP1 PUSH2 0x46A9 JUMP JUMPDEST PUSH1 0x20 PUSH1 0x40 MLOAD DUP1 DUP4 SUB DUP2 PUSH1 0x0 DUP8 GAS CALL SWAP3 POP POP POP DUP1 ISZERO PUSH2 0x2317 JUMPI POP PUSH1 0x40 MLOAD RETURNDATASIZE PUSH1 0x1F NOT PUSH1 0x1F DUP3 ADD AND DUP3 ADD DUP1 PUSH1 0x40 MSTORE POP DUP2 ADD SWAP1 PUSH2 0x2314 SWAP2 SWAP1 PUSH2 0x470A JUMP JUMPDEST PUSH1 0x1 JUMPDEST PUSH2 0x2399 JUMPI RETURNDATASIZE DUP1 PUSH1 0x0 DUP2 EQ PUSH2 0x2347 JUMPI PUSH1 0x40 MLOAD SWAP2 POP PUSH1 0x1F NOT PUSH1 0x3F RETURNDATASIZE ADD AND DUP3 ADD PUSH1 0x40 MSTORE RETURNDATASIZE DUP3 MSTORE RETURNDATASIZE PUSH1 0x0 PUSH1 0x20 DUP5 ADD RETURNDATACOPY PUSH2 0x234C JUMP JUMPDEST PUSH1 0x60 SWAP2 POP JUMPDEST POP PUSH1 0x0 DUP2 MLOAD SUB PUSH2 0x2391 JUMPI PUSH1 0x40 MLOAD PUSH32 0x8C379A000000000000000000000000000000000000000000000000000000000 DUP2 MSTORE PUSH1 0x4 ADD PUSH2 0x2388 SWAP1 PUSH2 0x42B4 JUMP JUMPDEST PUSH1 0x40 MLOAD DUP1 SWAP2 SUB SWAP1 REVERT JUMPDEST DUP1 MLOAD DUP2 PUSH1 0x20 ADD REVERT JUMPDEST PUSH4 0x150B7A02 PUSH1 0xE0 SHL PUSH28 0xFFFFFFFFFFFFFFFFFFFFFFFFFFFFFFFFFFFFFFFFFFFFFFFFFFFFFFFF NOT AND DUP2 PUSH28 0xFFFFFFFFFFFFFFFFFFFFFFFFFFFFFFFFFFFFFFFFFFFFFFFFFFFFFFFF NOT AND EQ SWAP2 POP POP PUSH2 0x23EE JUMP JUMPDEST PUSH1 0x1 SWAP1 POP JUMPDEST SWAP5 SWAP4 POP POP POP POP JUMP JUMPDEST PUSH1 0x60 PUSH1 0x40 MLOAD DUP1 PUSH1 0x20 ADD PUSH1 0x40 MSTORE DUP1 PUSH1 0x0 DUP2 MSTORE POP SWAP1 POP SWAP1 JUMP JUMPDEST PUSH1 0x60 PUSH2 0x2418 DUP3 PUSH2 0x157D JUMP JUMPDEST PUSH1 0x0 PUSH2 0x2422 PUSH2 0x23F6 JUMP JUMPDEST SWAP1 POP PUSH1 0x0 DUP2 MLOAD GT PUSH2 0x2442 JUMPI PUSH1 0x40 MLOAD DUP1 PUSH1 0x20 ADD PUSH1 0x40 MSTORE DUP1 PUSH1 0x0 DUP2 MSTORE POP PUSH2 0x246D JUMP JUMPDEST DUP1 PUSH2 0x244C DUP5 PUSH2 0x2814 JUMP JUMPDEST PUSH1 0x40 MLOAD PUSH1 0x20 ADD PUSH2 0x245D SWAP3 SWAP2 SWAP1 PUSH2 0x42D4 JUMP JUMPDEST PUSH1 0x40 MLOAD PUSH1 0x20 DUP2 DUP4 SUB SUB DUP2 MSTORE SWAP1 PUSH1 0x40 MSTORE JUMPDEST SWAP2 POP POP SWAP2 SWAP1 POP JUMP JUMPDEST PUSH2 0x247F DUP4 DUP4 PUSH2 0x28E2 JUMP JUMPDEST PUSH2 0x248C PUSH1 0x0 DUP5 DUP5 DUP5 PUSH2 0x226F JUMP JUMPDEST PUSH2 0x24CB JUMPI PUSH1 0x40 MLOAD PUSH32 0x8C379A000000000000000000000000000000000000000000000000000000000 DUP2 MSTORE PUSH1 0x4 ADD PUSH2 0x24C2 SWAP1 PUSH2 0x42B4 JUMP JUMPDEST PUSH1 0x40 MLOAD DUP1 SWAP2 SUB SWAP1 REVERT JUMPDEST POP POP POP JUMP JUMPDEST PUSH1 0x60 PUSH1 0x0 DUP3 MLOAD SUB PUSH2 0x24F2 JUMPI PUSH1 0x40 MLOAD DUP1 PUSH1 0x20 ADD PUSH1 0x40 MSTORE DUP1 PUSH1 0x0 DUP2 MSTORE POP SWAP1 POP PUSH2 0x262E JUMP JUMPDEST PUSH1 0x0 PUSH1 0x40 MLOAD DUP1 PUSH1 0x60 ADD PUSH1 0x40 MSTORE DUP1 PUSH1 0x40 DUP2 MSTORE PUSH1 0x20 ADD PUSH2 0x48B2 PUSH1 0x40 SWAP2 CODECOPY SWAP1 POP PUSH1 0x0 PUSH1 0x3 PUSH1 0x2 DUP6 MLOAD PUSH2 0x2521 SWAP2 SWAP1 PUSH2 0x3C70 JUMP JUMPDEST PUSH2 0x252B SWAP2 SWAP1 PUSH2 0x4766 JUMP JUMPDEST PUSH1 0x4 PUSH2 0x2537 SWAP2 SWAP1 PUSH2 0x4797 JUMP JUMPDEST PUSH8 0xFFFFFFFFFFFFFFFF DUP2 GT ISZERO PUSH2 0x2550 JUMPI PUSH2 0x254F PUSH2 0x2F65 JUMP JUMPDEST JUMPDEST PUSH1 0x40 MLOAD SWAP1 DUP1 DUP3 MSTORE DUP1 PUSH1 0x1F ADD PUSH1 0x1F NOT AND PUSH1 0x20 ADD DUP3 ADD PUSH1 0x40 MSTORE DUP1 ISZERO PUSH2 0x2582 JUMPI DUP2 PUSH1 0x20 ADD PUSH1 0x1 DUP3 MUL DUP1 CALLDATASIZE DUP4 CALLDATACOPY DUP1 DUP3 ADD SWAP2 POP POP SWAP1 POP JUMPDEST POP SWAP1 POP PUSH1 0x1 DUP3 ADD PUSH1 0x20 DUP3 ADD DUP6 DUP7 MLOAD DUP8 ADD JUMPDEST DUP1 DUP3 LT ISZERO PUSH2 0x25EE JUMPI PUSH1 0x3 DUP3 ADD SWAP2 POP DUP2 MLOAD PUSH1 0x3F DUP2 PUSH1 0x12 SHR AND DUP6 ADD MLOAD DUP5 MSTORE8 PUSH1 0x1 DUP5 ADD SWAP4 POP PUSH1 0x3F DUP2 PUSH1 0xC SHR AND DUP6 ADD MLOAD DUP5 MSTORE8 PUSH1 0x1 DUP5 ADD SWAP4 POP PUSH1 0x3F DUP2 PUSH1 0x6 SHR AND DUP6 ADD MLOAD DUP5 MSTORE8 PUSH1 0x1 DUP5 ADD SWAP4 POP PUSH1 0x3F DUP2 AND DUP6 ADD MLOAD DUP5 MSTORE8 PUSH1 0x1 DUP5 ADD SWAP4 POP POP PUSH2 0x2593 JUMP JUMPDEST POP POP PUSH1 0x3 DUP7 MLOAD MOD PUSH1 0x1 DUP2 EQ PUSH2 0x260A JUMPI PUSH1 0x2 DUP2 EQ PUSH2 0x261D JUMPI PUSH2 0x2625 JUMP JUMPDEST PUSH1 0x3D PUSH1 0x1 DUP4 SUB MSTORE8 PUSH1 0x3D PUSH1 0x2 DUP4 SUB MSTORE8 PUSH2 0x2625 JUMP JUMPDEST PUSH1 0x3D PUSH1 0x1 DUP4 SUB MSTORE8 JUMPDEST POP POP POP DUP1 SWAP3 POP POP POP JUMPDEST SWAP2 SWAP1 POP JUMP JUMPDEST PUSH1 0x0 PUSH32 0x1FFC9A700000000000000000000000000000000000000000000000000000000 PUSH28 0xFFFFFFFFFFFFFFFFFFFFFFFFFFFFFFFFFFFFFFFFFFFFFFFFFFFFFFFF NOT AND DUP3 PUSH28 0xFFFFFFFFFFFFFFFFFFFFFFFFFFFFFFFFFFFFFFFFFFFFFFFFFFFFFFFF NOT AND EQ SWAP1 POP SWAP2 SWAP1 POP JUMP JUMPDEST POP POP POP POP JUMP JUMPDEST PUSH1 0x0 PUSH2 0x26AE DUP3 PUSH2 0x9E4 JUMP JUMPDEST SWAP1 POP PUSH2 0x26BE DUP2 PUSH1 0x0 DUP5 PUSH1 0x1 PUSH2 0x2195 JUMP JUMPDEST PUSH2 0x26C7 DUP3 PUSH2 0x9E4 JUMP JUMPDEST SWAP1 POP PUSH1 0x4 PUSH1 0x0 DUP4 DUP2 MSTORE PUSH1 0x20 ADD SWAP1 DUP2 MSTORE PUSH1 0x20 ADD PUSH1 0x0 KECCAK256 PUSH1 0x0 PUSH2 0x100 EXP DUP2 SLOAD SWAP1 PUSH20 0xFFFFFFFFFFFFFFFFFFFFFFFFFFFFFFFFFFFFFFFF MUL NOT AND SWAP1 SSTORE PUSH1 0x1 PUSH1 0x3 PUSH1 0x0 DUP4 PUSH20 0xFFFFFFFFFFFFFFFFFFFFFFFFFFFFFFFFFFFFFFFF AND PUSH20 0xFFFFFFFFFFFFFFFFFFFFFFFFFFFFFFFFFFFFFFFF AND DUP2 MSTORE PUSH1 0x20 ADD SWAP1 DUP2 MSTORE PUSH1 0x20 ADD PUSH1 0x0 KECCAK256 PUSH1 0x0 DUP3 DUP3 SLOAD SUB SWAP3 POP POP DUP2 SWAP1 SSTORE POP PUSH1 0x2 PUSH1 0x0 DUP4 DUP2 MSTORE PUSH1 0x20 ADD SWAP1 DUP2 MSTORE PUSH1 0x20 ADD PUSH1 0x0 KECCAK256 PUSH1 0x0 PUSH2 0x100 EXP DUP2 SLOAD SWAP1 PUSH20 0xFFFFFFFFFFFFFFFFFFFFFFFFFFFFFFFFFFFFFFFF MUL NOT AND SWAP1 SSTORE DUP2 PUSH1 0x0 PUSH20 0xFFFFFFFFFFFFFFFFFFFFFFFFFFFFFFFFFFFFFFFF AND DUP3 PUSH20 0xFFFFFFFFFFFFFFFFFFFFFFFFFFFFFFFFFFFFFFFF AND PUSH32 0xDDF252AD1BE2C89B69C2B068FC378DAA952BA7F163C4A11628F55A4DF523B3EF PUSH1 0x40 MLOAD PUSH1 0x40 MLOAD DUP1 SWAP2 SUB SWAP1 LOG4 PUSH2 0x27ED DUP2 PUSH1 0x0 DUP5 PUSH1 0x1 PUSH2 0x2216 JUMP JUMPDEST POP POP JUMP JUMPDEST PUSH1 0x0 DUP1 DUP3 PUSH20 0xFFFFFFFFFFFFFFFFFFFFFFFFFFFFFFFFFFFFFFFF AND EXTCODESIZE GT SWAP1 POP SWAP2 SWAP1 POP JUMP JUMPDEST PUSH1 0x60 PUSH1 0x0 PUSH1 0x1 PUSH2 0x2823 DUP5 PUSH2 0x2AFF JUMP JUMPDEST ADD SWAP1 POP PUSH1 0x0 DUP2 PUSH8 0xFFFFFFFFFFFFFFFF DUP2 GT ISZERO PUSH2 0x2842 JUMPI PUSH2 0x2841 PUSH2 0x2F65 JUMP JUMPDEST JUMPDEST PUSH1 0x40 MLOAD SWAP1 DUP1 DUP3 MSTORE DUP1 PUSH1 0x1F ADD PUSH1 0x1F NOT AND PUSH1 0x20 ADD DUP3 ADD PUSH1 0x40 MSTORE DUP1 ISZERO PUSH2 0x2874 JUMPI DUP2 PUSH1 0x20 ADD PUSH1 0x1 DUP3 MUL DUP1 CALLDATASIZE DUP4 CALLDATACOPY DUP1 DUP3 ADD SWAP2 POP POP SWAP1 POP JUMPDEST POP SWAP1 POP PUSH1 0x0 DUP3 PUSH1 0x20 ADD DUP3 ADD SWAP1 POP JUMPDEST PUSH1 0x1 ISZERO PUSH2 0x28D7 JUMPI DUP1 DUP1 PUSH1 0x1 SWAP1 SUB SWAP2 POP POP PUSH32 0x3031323334353637383961626364656600000000000000000000000000000000 PUSH1 0xA DUP7 MOD BYTE DUP2 MSTORE8 PUSH1 0xA DUP6 DUP2 PUSH2 0x28CB JUMPI PUSH2 0x28CA PUSH2 0x4737 JUMP JUMPDEST JUMPDEST DIV SWAP5 POP PUSH1 0x0 DUP6 SUB PUSH2 0x2882 JUMPI JUMPDEST DUP2 SWAP4 POP POP POP POP SWAP2 SWAP1 POP JUMP JUMPDEST PUSH1 0x0 PUSH20 0xFFFFFFFFFFFFFFFFFFFFFFFFFFFFFFFFFFFFFFFF AND DUP3 PUSH20 0xFFFFFFFFFFFFFFFFFFFFFFFFFFFFFFFFFFFFFFFF AND SUB PUSH2 0x2951 JUMPI PUSH1 0x40 MLOAD PUSH32 0x8C379A000000000000000000000000000000000000000000000000000000000 DUP2 MSTORE PUSH1 0x4 ADD PUSH2 0x2948 SWAP1 PUSH2 0x4825 JUMP JUMPDEST PUSH1 0x40 MLOAD DUP1 SWAP2 SUB SWAP1 REVERT JUMPDEST PUSH2 0x295A DUP2 PUSH2 0x2154 JUMP JUMPDEST ISZERO PUSH2 0x299A JUMPI PUSH1 0x40 MLOAD PUSH32 0x8C379A000000000000000000000000000000000000000000000000000000000 DUP2 MSTORE PUSH1 0x4 ADD PUSH2 0x2991 SWAP1 PUSH2 0x4891 JUMP JUMPDEST PUSH1 0x40 MLOAD DUP1 SWAP2 SUB SWAP1 REVERT JUMPDEST PUSH2 0x29A8 PUSH1 0x0 DUP4 DUP4 PUSH1 0x1 PUSH2 0x2195 JUMP JUMPDEST PUSH2 0x29B1 DUP2 PUSH2 0x2154 JUMP JUMPDEST ISZERO PUSH2 0x29F1 JUMPI PUSH1 0x40 MLOAD PUSH32 0x8C379A000000000000000000000000000000000000000000000000000000000 DUP2 MSTORE PUSH1 0x4 ADD PUSH2 0x29E8 SWAP1 PUSH2 0x4891 JUMP JUMPDEST PUSH1 0x40 MLOAD DUP1 SWAP2 SUB SWAP1 REVERT JUMPDEST PUSH1 0x1 PUSH1 0x3 PUSH1 0x0 DUP5 PUSH20 0xFFFFFFFFFFFFFFFFFFFFFFFFFFFFFFFFFFFFFFFF AND PUSH20 0xFFFFFFFFFFFFFFFFFFFFFFFFFFFFFFFFFFFFFFFF AND DUP2 MSTORE PUSH1 0x20 ADD SWAP1 DUP2 MSTORE PUSH1 0x20 ADD PUSH1 0x0 KECCAK256 PUSH1 0x0 DUP3 DUP3 SLOAD ADD SWAP3 POP POP DUP2 SWAP1 SSTORE POP DUP2 PUSH1 0x2 PUSH1 0x0 DUP4 DUP2 MSTORE PUSH1 0x20 ADD SWAP1 DUP2 MSTORE PUSH1 0x20 ADD PUSH1 0x0 KECCAK256 PUSH1 0x0 PUSH2 0x100 EXP DUP2 SLOAD DUP2 PUSH20 0xFFFFFFFFFFFFFFFFFFFFFFFFFFFFFFFFFFFFFFFF MUL NOT AND SWAP1 DUP4 PUSH20 0xFFFFFFFFFFFFFFFFFFFFFFFFFFFFFFFFFFFFFFFF AND MUL OR SWAP1 SSTORE POP DUP1 DUP3 PUSH20 0xFFFFFFFFFFFFFFFFFFFFFFFFFFFFFFFFFFFFFFFF AND PUSH1 0x0 PUSH20 0xFFFFFFFFFFFFFFFFFFFFFFFFFFFFFFFFFFFFFFFF AND PUSH32 0xDDF252AD1BE2C89B69C2B068FC378DAA952BA7F163C4A11628F55A4DF523B3EF PUSH1 0x40 MLOAD PUSH1 0x40 MLOAD DUP1 SWAP2 SUB SWAP1 LOG4 PUSH2 0x2AFB PUSH1 0x0 DUP4 DUP4 PUSH1 0x1 PUSH2 0x2216 JUMP JUMPDEST POP POP JUMP JUMPDEST PUSH1 0x0 DUP1 PUSH1 0x0 SWAP1 POP PUSH27 0x184F03E93FF9F4DAA797ED6E38ED64BF6A1F010000000000000000 DUP4 LT PUSH2 0x2B5D JUMPI PUSH27 0x184F03E93FF9F4DAA797ED6E38ED64BF6A1F010000000000000000 DUP4 DUP2 PUSH2 0x2B53 JUMPI PUSH2 0x2B52 PUSH2 0x4737 JUMP JUMPDEST JUMPDEST DIV SWAP3 POP PUSH1 0x40 DUP2 ADD SWAP1 POP JUMPDEST PUSH14 0x4EE2D6D415B85ACEF8100000000 DUP4 LT PUSH2 0x2B9A JUMPI PUSH14 0x4EE2D6D415B85ACEF8100000000 DUP4 DUP2 PUSH2 0x2B90 JUMPI PUSH2 0x2B8F PUSH2 0x4737 JUMP JUMPDEST JUMPDEST DIV SWAP3 POP PUSH1 0x20 DUP2 ADD SWAP1 POP JUMPDEST PUSH7 0x2386F26FC10000 DUP4 LT PUSH2 0x2BC9 JUMPI PUSH7 0x2386F26FC10000 DUP4 DUP2 PUSH2 0x2BBF JUMPI PUSH2 0x2BBE PUSH2 0x4737 JUMP JUMPDEST JUMPDEST DIV SWAP3 POP PUSH1 0x10 DUP2 ADD SWAP1 POP JUMPDEST PUSH4 0x5F5E100 DUP4 LT PUSH2 0x2BF2 JUMPI PUSH4 0x5F5E100 DUP4 DUP2 PUSH2 0x2BE8 JUMPI PUSH2 0x2BE7 PUSH2 0x4737 JUMP JUMPDEST JUMPDEST DIV SWAP3 POP PUSH1 0x8 DUP2 ADD SWAP1 POP JUMPDEST PUSH2 0x2710 DUP4 LT PUSH2 0x2C17 JUMPI PUSH2 0x2710 DUP4 DUP2 PUSH2 0x2C0D JUMPI PUSH2 0x2C0C PUSH2 0x4737 JUMP JUMPDEST JUMPDEST DIV SWAP3 POP PUSH1 0x4 DUP2 ADD SWAP1 POP JUMPDEST PUSH1 0x64 DUP4 LT PUSH2 0x2C3A JUMPI PUSH1 0x64 DUP4 DUP2 PUSH2 0x2C30 JUMPI PUSH2 0x2C2F PUSH2 0x4737 JUMP JUMPDEST JUMPDEST DIV SWAP3 POP PUSH1 0x2 DUP2 ADD SWAP1 POP JUMPDEST PUSH1 0xA DUP4 LT PUSH2 0x2C49 JUMPI PUSH1 0x1 DUP2 ADD SWAP1 POP JUMPDEST DUP1 SWAP2 POP POP SWAP2 SWAP1 POP JUMP JUMPDEST POP DUP1 SLOAD PUSH2 0x2C5E SWAP1 PUSH2 0x3551 JUMP JUMPDEST PUSH1 0x0 DUP3 SSTORE DUP1 PUSH1 0x1F LT PUSH2 0x2C70 JUMPI POP PUSH2 0x2C8F JUMP JUMPDEST PUSH1 0x1F ADD PUSH1 0x20 SWAP1 DIV SWAP1 PUSH1 0x0 MSTORE PUSH1 0x20 PUSH1 0x0 KECCAK256 SWAP1 DUP2 ADD SWAP1 PUSH2 0x2C8E SWAP2 SWAP1 PUSH2 0x2C92 JUMP JUMPDEST JUMPDEST POP JUMP JUMPDEST JUMPDEST DUP1 DUP3 GT ISZERO PUSH2 0x2CAB JUMPI PUSH1 0x0 DUP2 PUSH1 0x0 SWAP1 SSTORE POP PUSH1 0x1 ADD PUSH2 0x2C93 JUMP JUMPDEST POP SWAP1 JUMP JUMPDEST PUSH1 0x0 PUSH1 0x40 MLOAD SWAP1 POP SWAP1 JUMP JUMPDEST PUSH1 0x0 DUP1 REVERT JUMPDEST PUSH1 0x0 DUP1 REVERT JUMPDEST PUSH1 0x0 PUSH32 0xFFFFFFFF00000000000000000000000000000000000000000000000000000000 DUP3 AND SWAP1 POP SWAP2 SWAP1 POP JUMP JUMPDEST PUSH2 0x2CF8 DUP2 PUSH2 0x2CC3 JUMP JUMPDEST DUP2 EQ PUSH2 0x2D03 JUMPI PUSH1 0x0 DUP1 REVERT JUMPDEST POP JUMP JUMPDEST PUSH1 0x0 DUP2 CALLDATALOAD SWAP1 POP PUSH2 0x2D15 DUP2 PUSH2 0x2CEF JUMP JUMPDEST SWAP3 SWAP2 POP POP JUMP JUMPDEST PUSH1 0x0 PUSH1 0x20 DUP3 DUP5 SUB SLT ISZERO PUSH2 0x2D31 JUMPI PUSH2 0x2D30 PUSH2 0x2CB9 JUMP JUMPDEST JUMPDEST PUSH1 0x0 PUSH2 0x2D3F DUP5 DUP3 DUP6 ADD PUSH2 0x2D06 JUMP JUMPDEST SWAP2 POP POP SWAP3 SWAP2 POP POP JUMP JUMPDEST PUSH1 0x0 DUP2 ISZERO ISZERO SWAP1 POP SWAP2 SWAP1 POP JUMP JUMPDEST PUSH2 0x2D5D DUP2 PUSH2 0x2D48 JUMP JUMPDEST DUP3 MSTORE POP POP JUMP JUMPDEST PUSH1 0x0 PUSH1 0x20 DUP3 ADD SWAP1 POP PUSH2 0x2D78 PUSH1 0x0 DUP4 ADD DUP5 PUSH2 0x2D54 JUMP JUMPDEST SWAP3 SWAP2 POP POP JUMP JUMPDEST PUSH1 0x0 DUP2 MLOAD SWAP1 POP SWAP2 SWAP1 POP JUMP JUMPDEST PUSH1 0x0 DUP3 DUP3 MSTORE PUSH1 0x20 DUP3 ADD SWAP1 POP SWAP3 SWAP2 POP POP JUMP JUMPDEST PUSH1 0x0 JUMPDEST DUP4 DUP2 LT ISZERO PUSH2 0x2DB8 JUMPI DUP1 DUP3 ADD MLOAD DUP2 DUP5 ADD MSTORE PUSH1 0x20 DUP2 ADD SWAP1 POP PUSH2 0x2D9D JUMP JUMPDEST PUSH1 0x0 DUP5 DUP5 ADD MSTORE POP POP POP POP JUMP JUMPDEST PUSH1 0x0 PUSH1 0x1F NOT PUSH1 0x1F DUP4 ADD AND SWAP1 POP SWAP2 SWAP1 POP JUMP JUMPDEST PUSH1 0x0 PUSH2 0x2DE0 DUP3 PUSH2 0x2D7E JUMP JUMPDEST PUSH2 0x2DEA DUP2 DUP6 PUSH2 0x2D89 JUMP JUMPDEST SWAP4 POP PUSH2 0x2DFA DUP2 DUP6 PUSH1 0x20 DUP7 ADD PUSH2 0x2D9A JUMP JUMPDEST PUSH2 0x2E03 DUP2 PUSH2 0x2DC4 JUMP JUMPDEST DUP5 ADD SWAP2 POP POP SWAP3 SWAP2 POP POP JUMP JUMPDEST PUSH1 0x0 PUSH1 0x20 DUP3 ADD SWAP1 POP DUP2 DUP2 SUB PUSH1 0x0 DUP4 ADD MSTORE PUSH2 0x2E28 DUP2 DUP5 PUSH2 0x2DD5 JUMP JUMPDEST SWAP1 POP SWAP3 SWAP2 POP POP JUMP JUMPDEST PUSH1 0x0 DUP2 SWAP1 POP SWAP2 SWAP1 POP JUMP JUMPDEST PUSH2 0x2E43 DUP2 PUSH2 0x2E30 JUMP JUMPDEST DUP2 EQ PUSH2 0x2E4E JUMPI PUSH1 0x0 DUP1 REVERT JUMPDEST POP JUMP JUMPDEST PUSH1 0x0 DUP2 CALLDATALOAD SWAP1 POP PUSH2 0x2E60 DUP2 PUSH2 0x2E3A JUMP JUMPDEST SWAP3 SWAP2 POP POP JUMP JUMPDEST PUSH1 0x0 PUSH1 0x20 DUP3 DUP5 SUB SLT ISZERO PUSH2 0x2E7C JUMPI PUSH2 0x2E7B PUSH2 0x2CB9 JUMP JUMPDEST JUMPDEST PUSH1 0x0 PUSH2 0x2E8A DUP5 DUP3 DUP6 ADD PUSH2 0x2E51 JUMP JUMPDEST SWAP2 POP POP SWAP3 SWAP2 POP POP JUMP JUMPDEST PUSH1 0x0 PUSH20 0xFFFFFFFFFFFFFFFFFFFFFFFFFFFFFFFFFFFFFFFF DUP3 AND SWAP1 POP SWAP2 SWAP1 POP JUMP JUMPDEST PUSH1 0x0 PUSH2 0x2EBE DUP3 PUSH2 0x2E93 JUMP JUMPDEST SWAP1 POP SWAP2 SWAP1 POP JUMP JUMPDEST PUSH2 0x2ECE DUP2 PUSH2 0x2EB3 JUMP JUMPDEST DUP3 MSTORE POP POP JUMP JUMPDEST PUSH1 0x0 PUSH1 0x20 DUP3 ADD SWAP1 POP PUSH2 0x2EE9 PUSH1 0x0 DUP4 ADD DUP5 PUSH2 0x2EC5 JUMP JUMPDEST SWAP3 SWAP2 POP POP JUMP JUMPDEST PUSH2 0x2EF8 DUP2 PUSH2 0x2EB3 JUMP JUMPDEST DUP2 EQ PUSH2 0x2F03 JUMPI PUSH1 0x0 DUP1 REVERT JUMPDEST POP JUMP JUMPDEST PUSH1 0x0 DUP2 CALLDATALOAD SWAP1 POP PUSH2 0x2F15 DUP2 PUSH2 0x2EEF JUMP JUMPDEST SWAP3 SWAP2 POP POP JUMP JUMPDEST PUSH1 0x0 DUP1 PUSH1 0x40 DUP4 DUP6 SUB SLT ISZERO PUSH2 0x2F32 JUMPI PUSH2 0x2F31 PUSH2 0x2CB9 JUMP JUMPDEST JUMPDEST PUSH1 0x0 PUSH2 0x2F40 DUP6 DUP3 DUP7 ADD PUSH2 0x2F06 JUMP JUMPDEST SWAP3 POP POP PUSH1 0x20 PUSH2 0x2F51 DUP6 DUP3 DUP7 ADD PUSH2 0x2E51 JUMP JUMPDEST SWAP2 POP POP SWAP3 POP SWAP3 SWAP1 POP JUMP JUMPDEST PUSH1 0x0 DUP1 REVERT JUMPDEST PUSH1 0x0 DUP1 REVERT JUMPDEST PUSH32 0x4E487B7100000000000000000000000000000000000000000000000000000000 PUSH1 0x0 MSTORE PUSH1 0x41 PUSH1 0x4 MSTORE PUSH1 0x24 PUSH1 0x0 REVERT JUMPDEST PUSH2 0x2F9D DUP3 PUSH2 0x2DC4 JUMP JUMPDEST DUP2 ADD DUP2 DUP2 LT PUSH8 0xFFFFFFFFFFFFFFFF DUP3 GT OR ISZERO PUSH2 0x2FBC JUMPI PUSH2 0x2FBB PUSH2 0x2F65 JUMP JUMPDEST JUMPDEST DUP1 PUSH1 0x40 MSTORE POP POP POP JUMP JUMPDEST PUSH1 0x0 PUSH2 0x2FCF PUSH2 0x2CAF JUMP JUMPDEST SWAP1 POP PUSH2 0x2FDB DUP3 DUP3 PUSH2 0x2F94 JUMP JUMPDEST SWAP2 SWAP1 POP JUMP JUMPDEST PUSH1 0x0 PUSH8 0xFFFFFFFFFFFFFFFF DUP3 GT ISZERO PUSH2 0x2FFB JUMPI PUSH2 0x2FFA PUSH2 0x2F65 JUMP JUMPDEST JUMPDEST PUSH2 0x3004 DUP3 PUSH2 0x2DC4 JUMP JUMPDEST SWAP1 POP PUSH1 0x20 DUP2 ADD SWAP1 POP SWAP2 SWAP1 POP JUMP JUMPDEST DUP3 DUP2 DUP4 CALLDATACOPY PUSH1 0x0 DUP4 DUP4 ADD MSTORE POP POP POP JUMP JUMPDEST PUSH1 0x0 PUSH2 0x3033 PUSH2 0x302E DUP5 PUSH2 0x2FE0 JUMP JUMPDEST PUSH2 0x2FC5 JUMP JUMPDEST SWAP1 POP DUP3 DUP2 MSTORE PUSH1 0x20 DUP2 ADD DUP5 DUP5 DUP5 ADD GT ISZERO PUSH2 0x304F JUMPI PUSH2 0x304E PUSH2 0x2F60 JUMP JUMPDEST JUMPDEST PUSH2 0x305A DUP5 DUP3 DUP6 PUSH2 0x3011 JUMP JUMPDEST POP SWAP4 SWAP3 POP POP POP JUMP JUMPDEST PUSH1 0x0 DUP3 PUSH1 0x1F DUP4 ADD SLT PUSH2 0x3077 JUMPI PUSH2 0x3076 PUSH2 0x2F5B JUMP JUMPDEST JUMPDEST DUP2 CALLDATALOAD PUSH2 0x3087 DUP5 DUP3 PUSH1 0x20 DUP7 ADD PUSH2 0x3020 JUMP JUMPDEST SWAP2 POP POP SWAP3 SWAP2 POP POP JUMP JUMPDEST PUSH1 0x0 DUP1 PUSH1 0x40 DUP4 DUP6 SUB SLT ISZERO PUSH2 0x30A7 JUMPI PUSH2 0x30A6 PUSH2 0x2CB9 JUMP JUMPDEST JUMPDEST PUSH1 0x0 DUP4 ADD CALLDATALOAD PUSH8 0xFFFFFFFFFFFFFFFF DUP2 GT ISZERO PUSH2 0x30C5 JUMPI PUSH2 0x30C4 PUSH2 0x2CBE JUMP JUMPDEST JUMPDEST PUSH2 0x30D1 DUP6 DUP3 DUP7 ADD PUSH2 0x3062 JUMP JUMPDEST SWAP3 POP POP PUSH1 0x20 PUSH2 0x30E2 DUP6 DUP3 DUP7 ADD PUSH2 0x2F06 JUMP JUMPDEST SWAP2 POP POP SWAP3 POP SWAP3 SWAP1 POP JUMP JUMPDEST PUSH1 0x0 DUP1 PUSH1 0x0 PUSH1 0x60 DUP5 DUP7 SUB SLT ISZERO PUSH2 0x3105 JUMPI PUSH2 0x3104 PUSH2 0x2CB9 JUMP JUMPDEST JUMPDEST PUSH1 0x0 PUSH2 0x3113 DUP7 DUP3 DUP8 ADD PUSH2 0x2F06 JUMP JUMPDEST SWAP4 POP POP PUSH1 0x20 PUSH2 0x3124 DUP7 DUP3 DUP8 ADD PUSH2 0x2F06 JUMP JUMPDEST SWAP3 POP POP PUSH1 0x40 PUSH2 0x3135 DUP7 DUP3 DUP8 ADD PUSH2 0x2E51 JUMP JUMPDEST SWAP2 POP POP SWAP3 POP SWAP3 POP SWAP3 JUMP JUMPDEST PUSH1 0x0 PUSH1 0x20 DUP3 DUP5 SUB SLT ISZERO PUSH2 0x3155 JUMPI PUSH2 0x3154 PUSH2 0x2CB9 JUMP JUMPDEST JUMPDEST PUSH1 0x0 PUSH2 0x3163 DUP5 DUP3 DUP6 ADD PUSH2 0x2F06 JUMP JUMPDEST SWAP2 POP POP SWAP3 SWAP2 POP POP JUMP JUMPDEST PUSH2 0x3175 DUP2 PUSH2 0x2E30 JUMP JUMPDEST DUP3 MSTORE POP POP JUMP JUMPDEST PUSH1 0x0 PUSH1 0x20 DUP3 ADD SWAP1 POP PUSH2 0x3190 PUSH1 0x0 DUP4 ADD DUP5 PUSH2 0x316C JUMP JUMPDEST SWAP3 SWAP2 POP POP JUMP JUMPDEST PUSH1 0x0 PUSH1 0x20 DUP3 DUP5 SUB SLT ISZERO PUSH2 0x31AC JUMPI PUSH2 0x31AB PUSH2 0x2CB9 JUMP JUMPDEST JUMPDEST PUSH1 0x0 DUP3 ADD CALLDATALOAD PUSH8 0xFFFFFFFFFFFFFFFF DUP2 GT ISZERO PUSH2 0x31CA JUMPI PUSH2 0x31C9 PUSH2 0x2CBE JUMP JUMPDEST JUMPDEST PUSH2 0x31D6 DUP5 DUP3 DUP6 ADD PUSH2 0x3062 JUMP JUMPDEST SWAP2 POP POP SWAP3 SWAP2 POP POP JUMP JUMPDEST PUSH1 0x0 PUSH1 0x80 DUP3 ADD SWAP1 POP DUP2 DUP2 SUB PUSH1 0x0 DUP4 ADD MSTORE PUSH2 0x31F9 DUP2 DUP8 PUSH2 0x2DD5 JUMP JUMPDEST SWAP1 POP PUSH2 0x3208 PUSH1 0x20 DUP4 ADD DUP7 PUSH2 0x2EC5 JUMP JUMPDEST PUSH2 0x3215 PUSH1 0x40 DUP4 ADD DUP6 PUSH2 0x2D54 JUMP JUMPDEST PUSH2 0x3222 PUSH1 0x60 DUP4 ADD DUP5 PUSH2 0x316C JUMP JUMPDEST SWAP6 SWAP5 POP POP POP POP POP JUMP JUMPDEST PUSH2 0x3234 DUP2 PUSH2 0x2D48 JUMP JUMPDEST DUP2 EQ PUSH2 0x323F JUMPI PUSH1 0x0 DUP1 REVERT JUMPDEST POP JUMP JUMPDEST PUSH1 0x0 DUP2 CALLDATALOAD SWAP1 POP PUSH2 0x3251 DUP2 PUSH2 0x322B JUMP JUMPDEST SWAP3 SWAP2 POP POP JUMP JUMPDEST PUSH1 0x0 DUP1 PUSH1 0x40 DUP4 DUP6 SUB SLT ISZERO PUSH2 0x326E JUMPI PUSH2 0x326D PUSH2 0x2CB9 JUMP JUMPDEST JUMPDEST PUSH1 0x0 DUP4 ADD CALLDATALOAD PUSH8 0xFFFFFFFFFFFFFFFF DUP2 GT ISZERO PUSH2 0x328C JUMPI PUSH2 0x328B PUSH2 0x2CBE JUMP JUMPDEST JUMPDEST PUSH2 0x3298 DUP6 DUP3 DUP7 ADD PUSH2 0x3062 JUMP JUMPDEST SWAP3 POP POP PUSH1 0x20 PUSH2 0x32A9 DUP6 DUP3 DUP7 ADD PUSH2 0x3242 JUMP JUMPDEST SWAP2 POP POP SWAP3 POP SWAP3 SWAP1 POP JUMP JUMPDEST PUSH1 0x0 DUP1 PUSH1 0x0 PUSH1 0x60 DUP5 DUP7 SUB SLT ISZERO PUSH2 0x32CC JUMPI PUSH2 0x32CB PUSH2 0x2CB9 JUMP JUMPDEST JUMPDEST PUSH1 0x0 PUSH2 0x32DA DUP7 DUP3 DUP8 ADD PUSH2 0x2F06 JUMP JUMPDEST SWAP4 POP POP PUSH1 0x20 PUSH2 0x32EB DUP7 DUP3 DUP8 ADD PUSH2 0x2E51 JUMP JUMPDEST SWAP3 POP POP PUSH1 0x40 DUP5 ADD CALLDATALOAD PUSH8 0xFFFFFFFFFFFFFFFF DUP2 GT ISZERO PUSH2 0x330C JUMPI PUSH2 0x330B PUSH2 0x2CBE JUMP JUMPDEST JUMPDEST PUSH2 0x3318 DUP7 DUP3 DUP8 ADD PUSH2 0x3062 JUMP JUMPDEST SWAP2 POP POP SWAP3 POP SWAP3 POP SWAP3 JUMP JUMPDEST PUSH1 0x0 DUP1 PUSH1 0x40 DUP4 DUP6 SUB SLT ISZERO PUSH2 0x3339 JUMPI PUSH2 0x3338 PUSH2 0x2CB9 JUMP JUMPDEST JUMPDEST PUSH1 0x0 PUSH2 0x3347 DUP6 DUP3 DUP7 ADD PUSH2 0x2F06 JUMP JUMPDEST SWAP3 POP POP PUSH1 0x20 PUSH2 0x3358 DUP6 DUP3 DUP7 ADD PUSH2 0x3242 JUMP JUMPDEST SWAP2 POP POP SWAP3 POP SWAP3 SWAP1 POP JUMP JUMPDEST PUSH1 0x0 PUSH8 0xFFFFFFFFFFFFFFFF DUP3 GT ISZERO PUSH2 0x337D JUMPI PUSH2 0x337C PUSH2 0x2F65 JUMP JUMPDEST JUMPDEST PUSH2 0x3386 DUP3 PUSH2 0x2DC4 JUMP JUMPDEST SWAP1 POP PUSH1 0x20 DUP2 ADD SWAP1 POP SWAP2 SWAP1 POP JUMP JUMPDEST PUSH1 0x0 PUSH2 0x33A6 PUSH2 0x33A1 DUP5 PUSH2 0x3362 JUMP JUMPDEST PUSH2 0x2FC5 JUMP JUMPDEST SWAP1 POP DUP3 DUP2 MSTORE PUSH1 0x20 DUP2 ADD DUP5 DUP5 DUP5 ADD GT ISZERO PUSH2 0x33C2 JUMPI PUSH2 0x33C1 PUSH2 0x2F60 JUMP JUMPDEST JUMPDEST PUSH2 0x33CD DUP5 DUP3 DUP6 PUSH2 0x3011 JUMP JUMPDEST POP SWAP4 SWAP3 POP POP POP JUMP JUMPDEST PUSH1 0x0 DUP3 PUSH1 0x1F DUP4 ADD SLT PUSH2 0x33EA JUMPI PUSH2 0x33E9 PUSH2 0x2F5B JUMP JUMPDEST JUMPDEST DUP2 CALLDATALOAD PUSH2 0x33FA DUP5 DUP3 PUSH1 0x20 DUP7 ADD PUSH2 0x3393 JUMP JUMPDEST SWAP2 POP POP SWAP3 SWAP2 POP POP JUMP JUMPDEST PUSH1 0x0 DUP1 PUSH1 0x0 DUP1 PUSH1 0x80 DUP6 DUP8 SUB SLT ISZERO PUSH2 0x341D JUMPI PUSH2 0x341C PUSH2 0x2CB9 JUMP JUMPDEST JUMPDEST PUSH1 0x0 PUSH2 0x342B DUP8 DUP3 DUP9 ADD PUSH2 0x2F06 JUMP JUMPDEST SWAP5 POP POP PUSH1 0x20 PUSH2 0x343C DUP8 DUP3 DUP9 ADD PUSH2 0x2F06 JUMP JUMPDEST SWAP4 POP POP PUSH1 0x40 PUSH2 0x344D DUP8 DUP3 DUP9 ADD PUSH2 0x2E51 JUMP JUMPDEST SWAP3 POP POP PUSH1 0x60 DUP6 ADD CALLDATALOAD PUSH8 0xFFFFFFFFFFFFFFFF DUP2 GT ISZERO PUSH2 0x346E JUMPI PUSH2 0x346D PUSH2 0x2CBE JUMP JUMPDEST JUMPDEST PUSH2 0x347A DUP8 DUP3 DUP9 ADD PUSH2 0x33D5 JUMP JUMPDEST SWAP2 POP POP SWAP3 SWAP6 SWAP2 SWAP5 POP SWAP3 POP JUMP JUMPDEST PUSH1 0x0 DUP1 PUSH1 0x40 DUP4 DUP6 SUB SLT ISZERO PUSH2 0x349D JUMPI PUSH2 0x349C PUSH2 0x2CB9 JUMP JUMPDEST JUMPDEST PUSH1 0x0 PUSH2 0x34AB DUP6 DUP3 DUP7 ADD PUSH2 0x2F06 JUMP JUMPDEST SWAP3 POP POP PUSH1 0x20 DUP4 ADD CALLDATALOAD PUSH8 0xFFFFFFFFFFFFFFFF DUP2 GT ISZERO PUSH2 0x34CC JUMPI PUSH2 0x34CB PUSH2 0x2CBE JUMP JUMPDEST JUMPDEST PUSH2 0x34D8 DUP6 DUP3 DUP7 ADD PUSH2 0x3062 JUMP JUMPDEST SWAP2 POP POP SWAP3 POP SWAP3 SWAP1 POP JUMP JUMPDEST PUSH1 0x0 DUP1 PUSH1 0x40 DUP4 DUP6 SUB SLT ISZERO PUSH2 0x34F9 JUMPI PUSH2 0x34F8 PUSH2 0x2CB9 JUMP JUMPDEST JUMPDEST PUSH1 0x0 PUSH2 0x3507 DUP6 DUP3 DUP7 ADD PUSH2 0x2F06 JUMP JUMPDEST SWAP3 POP POP PUSH1 0x20 PUSH2 0x3518 DUP6 DUP3 DUP7 ADD PUSH2 0x2F06 JUMP JUMPDEST SWAP2 POP POP SWAP3 POP SWAP3 SWAP1 POP JUMP JUMPDEST PUSH32 0x4E487B7100000000000000000000000000000000000000000000000000000000 PUSH1 0x0 MSTORE PUSH1 0x22 PUSH1 0x4 MSTORE PUSH1 0x24 PUSH1 0x0 REVERT JUMPDEST PUSH1 0x0 PUSH1 0x2 DUP3 DIV SWAP1 POP PUSH1 0x1 DUP3 AND DUP1 PUSH2 0x3569 JUMPI PUSH1 0x7F DUP3 AND SWAP2 POP JUMPDEST PUSH1 0x20 DUP3 LT DUP2 SUB PUSH2 0x357C JUMPI PUSH2 0x357B PUSH2 0x3522 JUMP JUMPDEST JUMPDEST POP SWAP2 SWAP1 POP JUMP JUMPDEST PUSH32 0x4552433732313A20617070726F76616C20746F2063757272656E74206F776E65 PUSH1 0x0 DUP3 ADD MSTORE PUSH32 0x7200000000000000000000000000000000000000000000000000000000000000 PUSH1 0x20 DUP3 ADD MSTORE POP JUMP JUMPDEST PUSH1 0x0 PUSH2 0x35DE PUSH1 0x21 DUP4 PUSH2 0x2D89 JUMP JUMPDEST SWAP2 POP PUSH2 0x35E9 DUP3 PUSH2 0x3582 JUMP JUMPDEST PUSH1 0x40 DUP3 ADD SWAP1 POP SWAP2 SWAP1 POP JUMP JUMPDEST PUSH1 0x0 PUSH1 0x20 DUP3 ADD SWAP1 POP DUP2 DUP2 SUB PUSH1 0x0 DUP4 ADD MSTORE PUSH2 0x360D DUP2 PUSH2 0x35D1 JUMP JUMPDEST SWAP1 POP SWAP2 SWAP1 POP JUMP JUMPDEST PUSH32 0x4552433732313A20617070726F76652063616C6C6572206973206E6F7420746F PUSH1 0x0 DUP3 ADD MSTORE PUSH32 0x6B656E206F776E6572206F7220617070726F76656420666F7220616C6C000000 PUSH1 0x20 DUP3 ADD MSTORE POP JUMP JUMPDEST PUSH1 0x0 PUSH2 0x3670 PUSH1 0x3D DUP4 PUSH2 0x2D89 JUMP JUMPDEST SWAP2 POP PUSH2 0x367B DUP3 PUSH2 0x3614 JUMP JUMPDEST PUSH1 0x40 DUP3 ADD SWAP1 POP SWAP2 SWAP1 POP JUMP JUMPDEST PUSH1 0x0 PUSH1 0x20 DUP3 ADD SWAP1 POP DUP2 DUP2 SUB PUSH1 0x0 DUP4 ADD MSTORE PUSH2 0x369F DUP2 PUSH2 0x3663 JUMP JUMPDEST SWAP1 POP SWAP2 SWAP1 POP JUMP JUMPDEST PUSH1 0x0 DUP2 SWAP1 POP SWAP3 SWAP2 POP POP JUMP JUMPDEST PUSH1 0x0 PUSH2 0x36BC DUP3 PUSH2 0x2D7E JUMP JUMPDEST PUSH2 0x36C6 DUP2 DUP6 PUSH2 0x36A6 JUMP JUMPDEST SWAP4 POP PUSH2 0x36D6 DUP2 DUP6 PUSH1 0x20 DUP7 ADD PUSH2 0x2D9A JUMP JUMPDEST DUP1 DUP5 ADD SWAP2 POP POP SWAP3 SWAP2 POP POP JUMP JUMPDEST PUSH1 0x0 PUSH2 0x36EE DUP3 DUP5 PUSH2 0x36B1 JUMP JUMPDEST SWAP2 POP DUP2 SWAP1 POP SWAP3 SWAP2 POP POP JUMP JUMPDEST PUSH32 0x4552433732313A2063616C6C6572206973206E6F7420746F6B656E206F776E65 PUSH1 0x0 DUP3 ADD MSTORE PUSH32 0x72206F7220617070726F76656400000000000000000000000000000000000000 PUSH1 0x20 DUP3 ADD MSTORE POP JUMP JUMPDEST PUSH1 0x0 PUSH2 0x3755 PUSH1 0x2D DUP4 PUSH2 0x2D89 JUMP JUMPDEST SWAP2 POP PUSH2 0x3760 DUP3 PUSH2 0x36F9 JUMP JUMPDEST PUSH1 0x40 DUP3 ADD SWAP1 POP SWAP2 SWAP1 POP JUMP JUMPDEST PUSH1 0x0 PUSH1 0x20 DUP3 ADD SWAP1 POP DUP2 DUP2 SUB PUSH1 0x0 DUP4 ADD MSTORE PUSH2 0x3784 DUP2 PUSH2 0x3748 JUMP JUMPDEST SWAP1 POP SWAP2 SWAP1 POP JUMP JUMPDEST PUSH32 0x4275726E696E67206F6E6C7920617661696C61626C6520746F20636F6E747261 PUSH1 0x0 DUP3 ADD MSTORE PUSH32 0x6374206F776E6572206F722070726F6A656374206F776E657200000000000000 PUSH1 0x20 DUP3 ADD MSTORE POP JUMP JUMPDEST PUSH1 0x0 PUSH2 0x37E7 PUSH1 0x39 DUP4 PUSH2 0x2D89 JUMP JUMPDEST SWAP2 POP PUSH2 0x37F2 DUP3 PUSH2 0x378B JUMP JUMPDEST PUSH1 0x40 DUP3 ADD SWAP1 POP SWAP2 SWAP1 POP JUMP JUMPDEST PUSH1 0x0 PUSH1 0x20 DUP3 ADD SWAP1 POP DUP2 DUP2 SUB PUSH1 0x0 DUP4 ADD MSTORE PUSH2 0x3816 DUP2 PUSH2 0x37DA JUMP JUMPDEST SWAP1 POP SWAP2 SWAP1 POP JUMP JUMPDEST PUSH32 0x4552433732313A20696E76616C696420746F6B656E2049440000000000000000 PUSH1 0x0 DUP3 ADD MSTORE POP JUMP JUMPDEST PUSH1 0x0 PUSH2 0x3853 PUSH1 0x18 DUP4 PUSH2 0x2D89 JUMP JUMPDEST SWAP2 POP PUSH2 0x385E DUP3 PUSH2 0x381D JUMP JUMPDEST PUSH1 0x20 DUP3 ADD SWAP1 POP SWAP2 SWAP1 POP JUMP JUMPDEST PUSH1 0x0 PUSH1 0x20 DUP3 ADD SWAP1 POP DUP2 DUP2 SUB PUSH1 0x0 DUP4 ADD MSTORE PUSH2 0x3882 DUP2 PUSH2 0x3846 JUMP JUMPDEST SWAP1 POP SWAP2 SWAP1 POP JUMP JUMPDEST PUSH32 0x4552433732313A2061646472657373207A65726F206973206E6F742061207661 PUSH1 0x0 DUP3 ADD MSTORE PUSH32 0x6C6964206F776E65720000000000000000000000000000000000000000000000 PUSH1 0x20 DUP3 ADD MSTORE POP JUMP JUMPDEST PUSH1 0x0 PUSH2 0x38E5 PUSH1 0x29 DUP4 PUSH2 0x2D89 JUMP JUMPDEST SWAP2 POP PUSH2 0x38F0 DUP3 PUSH2 0x3889 JUMP JUMPDEST PUSH1 0x40 DUP3 ADD SWAP1 POP SWAP2 SWAP1 POP JUMP JUMPDEST PUSH1 0x0 PUSH1 0x20 DUP3 ADD SWAP1 POP DUP2 DUP2 SUB PUSH1 0x0 DUP4 ADD MSTORE PUSH2 0x3914 DUP2 PUSH2 0x38D8 JUMP JUMPDEST SWAP1 POP SWAP2 SWAP1 POP JUMP JUMPDEST PUSH32 0x4D7573742062652070726F6A656374206F776E65720000000000000000000000 PUSH1 0x0 DUP3 ADD MSTORE POP JUMP JUMPDEST PUSH1 0x0 PUSH2 0x3951 PUSH1 0x15 DUP4 PUSH2 0x2D89 JUMP JUMPDEST SWAP2 POP PUSH2 0x395C DUP3 PUSH2 0x391B JUMP JUMPDEST PUSH1 0x20 DUP3 ADD SWAP1 POP SWAP2 SWAP1 POP JUMP JUMPDEST PUSH1 0x0 PUSH1 0x20 DUP3 ADD SWAP1 POP DUP2 DUP2 SUB PUSH1 0x0 DUP4 ADD MSTORE PUSH2 0x3980 DUP2 PUSH2 0x3944 JUMP JUMPDEST SWAP1 POP SWAP2 SWAP1 POP JUMP JUMPDEST PUSH32 0x546F6B656E206973206E6F7420737570706F7274656400000000000000000000 PUSH1 0x0 DUP3 ADD MSTORE POP JUMP JUMPDEST PUSH1 0x0 PUSH2 0x39BD PUSH1 0x16 DUP4 PUSH2 0x2D89 JUMP JUMPDEST SWAP2 POP PUSH2 0x39C8 DUP3 PUSH2 0x3987 JUMP JUMPDEST PUSH1 0x20 DUP3 ADD SWAP1 POP SWAP2 SWAP1 POP JUMP JUMPDEST PUSH1 0x0 PUSH1 0x20 DUP3 ADD SWAP1 POP DUP2 DUP2 SUB PUSH1 0x0 DUP4 ADD MSTORE PUSH2 0x39EC DUP2 PUSH2 0x39B0 JUMP JUMPDEST SWAP1 POP SWAP2 SWAP1 POP JUMP JUMPDEST PUSH32 0x506C656173652070617920726571756972656420616D6F756E74000000000000 PUSH1 0x0 DUP3 ADD MSTORE POP JUMP JUMPDEST PUSH1 0x0 PUSH2 0x3A29 PUSH1 0x1A DUP4 PUSH2 0x2D89 JUMP JUMPDEST SWAP2 POP PUSH2 0x3A34 DUP3 PUSH2 0x39F3 JUMP JUMPDEST PUSH1 0x20 DUP3 ADD SWAP1 POP SWAP2 SWAP1 POP JUMP JUMPDEST PUSH1 0x0 PUSH1 0x20 DUP3 ADD SWAP1 POP DUP2 DUP2 SUB PUSH1 0x0 DUP4 ADD MSTORE PUSH2 0x3A58 DUP2 PUSH2 0x3A1C JUMP JUMPDEST SWAP1 POP SWAP2 SWAP1 POP JUMP JUMPDEST PUSH1 0x0 PUSH1 0x40 DUP3 ADD SWAP1 POP PUSH2 0x3A74 PUSH1 0x0 DUP4 ADD DUP6 PUSH2 0x2EC5 JUMP JUMPDEST PUSH2 0x3A81 PUSH1 0x20 DUP4 ADD DUP5 PUSH2 0x2EC5 JUMP JUMPDEST SWAP4 SWAP3 POP POP POP JUMP JUMPDEST PUSH1 0x0 DUP2 MLOAD SWAP1 POP PUSH2 0x3A97 DUP2 PUSH2 0x2E3A JUMP JUMPDEST SWAP3 SWAP2 POP POP JUMP JUMPDEST PUSH1 0x0 PUSH1 0x20 DUP3 DUP5 SUB SLT ISZERO PUSH2 0x3AB3 JUMPI PUSH2 0x3AB2 PUSH2 0x2CB9 JUMP JUMPDEST JUMPDEST PUSH1 0x0 PUSH2 0x3AC1 DUP5 DUP3 DUP6 ADD PUSH2 0x3A88 JUMP JUMPDEST SWAP2 POP POP SWAP3 SWAP2 POP POP JUMP JUMPDEST PUSH32 0x4E6F7420617070726F76656420746F2073656E642062616C616E636520726571 PUSH1 0x0 DUP3 ADD MSTORE PUSH32 0x7565737465640000000000000000000000000000000000000000000000000000 PUSH1 0x20 DUP3 ADD MSTORE POP JUMP JUMPDEST PUSH1 0x0 PUSH2 0x3B26 PUSH1 0x26 DUP4 PUSH2 0x2D89 JUMP JUMPDEST SWAP2 POP PUSH2 0x3B31 DUP3 PUSH2 0x3ACA JUMP JUMPDEST PUSH1 0x40 DUP3 ADD SWAP1 POP SWAP2 SWAP1 POP JUMP JUMPDEST PUSH1 0x0 PUSH1 0x20 DUP3 ADD SWAP1 POP DUP2 DUP2 SUB PUSH1 0x0 DUP4 ADD MSTORE PUSH2 0x3B55 DUP2 PUSH2 0x3B19 JUMP JUMPDEST SWAP1 POP SWAP2 SWAP1 POP JUMP JUMPDEST PUSH1 0x0 PUSH1 0x60 DUP3 ADD SWAP1 POP PUSH2 0x3B71 PUSH1 0x0 DUP4 ADD DUP7 PUSH2 0x2EC5 JUMP JUMPDEST PUSH2 0x3B7E PUSH1 0x20 DUP4 ADD DUP6 PUSH2 0x2EC5 JUMP JUMPDEST PUSH2 0x3B8B PUSH1 0x40 DUP4 ADD DUP5 PUSH2 0x316C JUMP JUMPDEST SWAP5 SWAP4 POP POP POP POP JUMP JUMPDEST PUSH1 0x0 DUP2 MLOAD SWAP1 POP PUSH2 0x3BA2 DUP2 PUSH2 0x322B JUMP JUMPDEST SWAP3 SWAP2 POP POP JUMP JUMPDEST PUSH1 0x0 PUSH1 0x20 DUP3 DUP5 SUB SLT ISZERO PUSH2 0x3BBE JUMPI PUSH2 0x3BBD PUSH2 0x2CB9 JUMP JUMPDEST JUMPDEST PUSH1 0x0 PUSH2 0x3BCC DUP5 DUP3 DUP6 ADD PUSH2 0x3B93 JUMP JUMPDEST SWAP2 POP POP SWAP3 SWAP2 POP POP JUMP JUMPDEST PUSH32 0x5472616E73616374696F6E20776173206E6F74207375636365737366756C0000 PUSH1 0x0 DUP3 ADD MSTORE POP JUMP JUMPDEST PUSH1 0x0 PUSH2 0x3C0B PUSH1 0x1E DUP4 PUSH2 0x2D89 JUMP JUMPDEST SWAP2 POP PUSH2 0x3C16 DUP3 PUSH2 0x3BD5 JUMP JUMPDEST PUSH1 0x20 DUP3 ADD SWAP1 POP SWAP2 SWAP1 POP JUMP JUMPDEST PUSH1 0x0 PUSH1 0x20 DUP3 ADD SWAP1 POP DUP2 DUP2 SUB PUSH1 0x0 DUP4 ADD MSTORE PUSH2 0x3C3A DUP2 PUSH2 0x3BFE JUMP JUMPDEST SWAP1 POP SWAP2 SWAP1 POP JUMP JUMPDEST PUSH32 0x4E487B7100000000000000000000000000000000000000000000000000000000 PUSH1 0x0 MSTORE PUSH1 0x11 PUSH1 0x4 MSTORE PUSH1 0x24 PUSH1 0x0 REVERT JUMPDEST PUSH1 0x0 PUSH2 0x3C7B DUP3 PUSH2 0x2E30 JUMP JUMPDEST SWAP2 POP PUSH2 0x3C86 DUP4 PUSH2 0x2E30 JUMP JUMPDEST SWAP3 POP DUP3 DUP3 ADD SWAP1 POP DUP1 DUP3 GT ISZERO PUSH2 0x3C9E JUMPI PUSH2 0x3C9D PUSH2 0x3C41 JUMP JUMPDEST JUMPDEST SWAP3 SWAP2 POP POP JUMP JUMPDEST PUSH1 0x0 DUP2 SWAP1 POP DUP2 PUSH1 0x0 MSTORE PUSH1 0x20 PUSH1 0x0 KECCAK256 SWAP1 POP SWAP2 SWAP1 POP JUMP JUMPDEST PUSH1 0x0 PUSH1 0x20 PUSH1 0x1F DUP4 ADD DIV SWAP1 POP SWAP2 SWAP1 POP JUMP JUMPDEST PUSH1 0x0 DUP3 DUP3 SHL SWAP1 POP SWAP3 SWAP2 POP POP JUMP JUMPDEST PUSH1 0x0 PUSH1 0x8 DUP4 MUL PUSH2 0x3D06 PUSH32 0xFFFFFFFFFFFFFFFFFFFFFFFFFFFFFFFFFFFFFFFFFFFFFFFFFFFFFFFFFFFFFFFF DUP3 PUSH2 0x3CC9 JUMP JUMPDEST PUSH2 0x3D10 DUP7 DUP4 PUSH2 0x3CC9 JUMP JUMPDEST SWAP6 POP DUP1 NOT DUP5 AND SWAP4 POP DUP1 DUP7 AND DUP5 OR SWAP3 POP POP POP SWAP4 SWAP3 POP POP POP JUMP JUMPDEST PUSH1 0x0 DUP2 SWAP1 POP SWAP2 SWAP1 POP JUMP JUMPDEST PUSH1 0x0 PUSH2 0x3D4D PUSH2 0x3D48 PUSH2 0x3D43 DUP5 PUSH2 0x2E30 JUMP JUMPDEST PUSH2 0x3D28 JUMP JUMPDEST PUSH2 0x2E30 JUMP JUMPDEST SWAP1 POP SWAP2 SWAP1 POP JUMP JUMPDEST PUSH1 0x0 DUP2 SWAP1 POP SWAP2 SWAP1 POP JUMP JUMPDEST PUSH2 0x3D67 DUP4 PUSH2 0x3D32 JUMP JUMPDEST PUSH2 0x3D7B PUSH2 0x3D73 DUP3 PUSH2 0x3D54 JUMP JUMPDEST DUP5 DUP5 SLOAD PUSH2 0x3CD6 JUMP JUMPDEST DUP3 SSTORE POP POP POP POP JUMP JUMPDEST PUSH1 0x0 SWAP1 JUMP JUMPDEST PUSH2 0x3D90 PUSH2 0x3D83 JUMP JUMPDEST PUSH2 0x3D9B DUP2 DUP5 DUP5 PUSH2 0x3D5E JUMP JUMPDEST POP POP POP JUMP JUMPDEST JUMPDEST DUP2 DUP2 LT ISZERO PUSH2 0x3DBF JUMPI PUSH2 0x3DB4 PUSH1 0x0 DUP3 PUSH2 0x3D88 JUMP JUMPDEST PUSH1 0x1 DUP2 ADD SWAP1 POP PUSH2 0x3DA1 JUMP JUMPDEST POP POP JUMP JUMPDEST PUSH1 0x1F DUP3 GT ISZERO PUSH2 0x3E04 JUMPI PUSH2 0x3DD5 DUP2 PUSH2 0x3CA4 JUMP JUMPDEST PUSH2 0x3DDE DUP5 PUSH2 0x3CB9 JUMP JUMPDEST DUP2 ADD PUSH1 0x20 DUP6 LT ISZERO PUSH2 0x3DED JUMPI DUP2 SWAP1 POP JUMPDEST PUSH2 0x3E01 PUSH2 0x3DF9 DUP6 PUSH2 0x3CB9 JUMP JUMPDEST DUP4 ADD DUP3 PUSH2 0x3DA0 JUMP JUMPDEST POP POP JUMPDEST POP POP POP JUMP JUMPDEST PUSH1 0x0 DUP3 DUP3 SHR SWAP1 POP SWAP3 SWAP2 POP POP JUMP JUMPDEST PUSH1 0x0 PUSH2 0x3E27 PUSH1 0x0 NOT DUP5 PUSH1 0x8 MUL PUSH2 0x3E09 JUMP JUMPDEST NOT DUP1 DUP4 AND SWAP2 POP POP SWAP3 SWAP2 POP POP JUMP JUMPDEST PUSH1 0x0 PUSH2 0x3E40 DUP4 DUP4 PUSH2 0x3E16 JUMP JUMPDEST SWAP2 POP DUP3 PUSH1 0x2 MUL DUP3 OR SWAP1 POP SWAP3 SWAP2 POP POP JUMP JUMPDEST PUSH2 0x3E59 DUP3 PUSH2 0x2D7E JUMP JUMPDEST PUSH8 0xFFFFFFFFFFFFFFFF DUP2 GT ISZERO PUSH2 0x3E72 JUMPI PUSH2 0x3E71 PUSH2 0x2F65 JUMP JUMPDEST JUMPDEST PUSH2 0x3E7C DUP3 SLOAD PUSH2 0x3551 JUMP JUMPDEST PUSH2 0x3E87 DUP3 DUP3 DUP6 PUSH2 0x3DC3 JUMP JUMPDEST PUSH1 0x0 PUSH1 0x20 SWAP1 POP PUSH1 0x1F DUP4 GT PUSH1 0x1 DUP2 EQ PUSH2 0x3EBA JUMPI PUSH1 0x0 DUP5 ISZERO PUSH2 0x3EA8 JUMPI DUP3 DUP8 ADD MLOAD SWAP1 POP JUMPDEST PUSH2 0x3EB2 DUP6 DUP3 PUSH2 0x3E34 JUMP JUMPDEST DUP7 SSTORE POP PUSH2 0x3F1A JUMP JUMPDEST PUSH1 0x1F NOT DUP5 AND PUSH2 0x3EC8 DUP7 PUSH2 0x3CA4 JUMP JUMPDEST PUSH1 0x0 JUMPDEST DUP3 DUP2 LT ISZERO PUSH2 0x3EF0 JUMPI DUP5 DUP10 ADD MLOAD DUP3 SSTORE PUSH1 0x1 DUP3 ADD SWAP2 POP PUSH1 0x20 DUP6 ADD SWAP5 POP PUSH1 0x20 DUP2 ADD SWAP1 POP PUSH2 0x3ECB JUMP JUMPDEST DUP7 DUP4 LT ISZERO PUSH2 0x3F0D JUMPI DUP5 DUP10 ADD MLOAD PUSH2 0x3F09 PUSH1 0x1F DUP10 AND DUP3 PUSH2 0x3E16 JUMP JUMPDEST DUP4 SSTORE POP JUMPDEST PUSH1 0x1 PUSH1 0x2 DUP9 MUL ADD DUP9 SSTORE POP POP POP JUMPDEST POP POP POP POP POP POP JUMP JUMPDEST PUSH32 0x4D696E74696E67206F6E6C7920617661696C61626C6520746F20636F6E747261 PUSH1 0x0 DUP3 ADD MSTORE PUSH32 0x6374206F776E6572206F722070726F6A656374206F776E657200000000000000 PUSH1 0x20 DUP3 ADD MSTORE POP JUMP JUMPDEST PUSH1 0x0 PUSH2 0x3F7E PUSH1 0x39 DUP4 PUSH2 0x2D89 JUMP JUMPDEST SWAP2 POP PUSH2 0x3F89 DUP3 PUSH2 0x3F22 JUMP JUMPDEST PUSH1 0x40 DUP3 ADD SWAP1 POP SWAP2 SWAP1 POP JUMP JUMPDEST PUSH1 0x0 PUSH1 0x20 DUP3 ADD SWAP1 POP DUP2 DUP2 SUB PUSH1 0x0 DUP4 ADD MSTORE PUSH2 0x3FAD DUP2 PUSH2 0x3F71 JUMP JUMPDEST SWAP1 POP SWAP2 SWAP1 POP JUMP JUMPDEST PUSH32 0x4F776E61626C653A206E6577206F776E657220697320746865207A65726F2061 PUSH1 0x0 DUP3 ADD MSTORE PUSH32 0x6464726573730000000000000000000000000000000000000000000000000000 PUSH1 0x20 DUP3 ADD MSTORE POP JUMP JUMPDEST PUSH1 0x0 PUSH2 0x4010 PUSH1 0x26 DUP4 PUSH2 0x2D89 JUMP JUMPDEST SWAP2 POP PUSH2 0x401B DUP3 PUSH2 0x3FB4 JUMP JUMPDEST PUSH1 0x40 DUP3 ADD SWAP1 POP SWAP2 SWAP1 POP JUMP JUMPDEST PUSH1 0x0 PUSH1 0x20 DUP3 ADD SWAP1 POP DUP2 DUP2 SUB PUSH1 0x0 DUP4 ADD MSTORE PUSH2 0x403F DUP2 PUSH2 0x4003 JUMP JUMPDEST SWAP1 POP SWAP2 SWAP1 POP JUMP JUMPDEST PUSH32 0x4F776E61626C653A2063616C6C6572206973206E6F7420746865206F776E6572 PUSH1 0x0 DUP3 ADD MSTORE POP JUMP JUMPDEST PUSH1 0x0 PUSH2 0x407C PUSH1 0x20 DUP4 PUSH2 0x2D89 JUMP JUMPDEST SWAP2 POP PUSH2 0x4087 DUP3 PUSH2 0x4046 JUMP JUMPDEST PUSH1 0x20 DUP3 ADD SWAP1 POP SWAP2 SWAP1 POP JUMP JUMPDEST PUSH1 0x0 PUSH1 0x20 DUP3 ADD SWAP1 POP DUP2 DUP2 SUB PUSH1 0x0 DUP4 ADD MSTORE PUSH2 0x40AB DUP2 PUSH2 0x406F JUMP JUMPDEST SWAP1 POP SWAP2 SWAP1 POP JUMP JUMPDEST PUSH32 0x4552433732313A207472616E736665722066726F6D20696E636F727265637420 PUSH1 0x0 DUP3 ADD MSTORE PUSH32 0x6F776E6572000000000000000000000000000000000000000000000000000000 PUSH1 0x20 DUP3 ADD MSTORE POP JUMP JUMPDEST PUSH1 0x0 PUSH2 0x410E PUSH1 0x25 DUP4 PUSH2 0x2D89 JUMP JUMPDEST SWAP2 POP PUSH2 0x4119 DUP3 PUSH2 0x40B2 JUMP JUMPDEST PUSH1 0x40 DUP3 ADD SWAP1 POP SWAP2 SWAP1 POP JUMP JUMPDEST PUSH1 0x0 PUSH1 0x20 DUP3 ADD SWAP1 POP DUP2 DUP2 SUB PUSH1 0x0 DUP4 ADD MSTORE PUSH2 0x413D DUP2 PUSH2 0x4101 JUMP JUMPDEST SWAP1 POP SWAP2 SWAP1 POP JUMP JUMPDEST PUSH32 0x4552433732313A207472616E7366657220746F20746865207A65726F20616464 PUSH1 0x0 DUP3 ADD MSTORE PUSH32 0x7265737300000000000000000000000000000000000000000000000000000000 PUSH1 0x20 DUP3 ADD MSTORE POP JUMP JUMPDEST PUSH1 0x0 PUSH2 0x41A0 PUSH1 0x24 DUP4 PUSH2 0x2D89 JUMP JUMPDEST SWAP2 POP PUSH2 0x41AB DUP3 PUSH2 0x4144 JUMP JUMPDEST PUSH1 0x40 DUP3 ADD SWAP1 POP SWAP2 SWAP1 POP JUMP JUMPDEST PUSH1 0x0 PUSH1 0x20 DUP3 ADD SWAP1 POP DUP2 DUP2 SUB PUSH1 0x0 DUP4 ADD MSTORE PUSH2 0x41CF DUP2 PUSH2 0x4193 JUMP JUMPDEST SWAP1 POP SWAP2 SWAP1 POP JUMP JUMPDEST PUSH32 0x4552433732313A20617070726F766520746F2063616C6C657200000000000000 PUSH1 0x0 DUP3 ADD MSTORE POP JUMP JUMPDEST PUSH1 0x0 PUSH2 0x420C PUSH1 0x19 DUP4 PUSH2 0x2D89 JUMP JUMPDEST SWAP2 POP PUSH2 0x4217 DUP3 PUSH2 0x41D6 JUMP JUMPDEST PUSH1 0x20 DUP3 ADD SWAP1 POP SWAP2 SWAP1 POP JUMP JUMPDEST PUSH1 0x0 PUSH1 0x20 DUP3 ADD SWAP1 POP DUP2 DUP2 SUB PUSH1 0x0 DUP4 ADD MSTORE PUSH2 0x423B DUP2 PUSH2 0x41FF JUMP JUMPDEST SWAP1 POP SWAP2 SWAP1 POP JUMP JUMPDEST PUSH32 0x4552433732313A207472616E7366657220746F206E6F6E204552433732315265 PUSH1 0x0 DUP3 ADD MSTORE PUSH32 0x63656976657220696D706C656D656E7465720000000000000000000000000000 PUSH1 0x20 DUP3 ADD MSTORE POP JUMP JUMPDEST PUSH1 0x0 PUSH2 0x429E PUSH1 0x32 DUP4 PUSH2 0x2D89 JUMP JUMPDEST SWAP2 POP PUSH2 0x42A9 DUP3 PUSH2 0x4242 JUMP JUMPDEST PUSH1 0x40 DUP3 ADD SWAP1 POP SWAP2 SWAP1 POP JUMP JUMPDEST PUSH1 0x0 PUSH1 0x20 DUP3 ADD SWAP1 POP DUP2 DUP2 SUB PUSH1 0x0 DUP4 ADD MSTORE PUSH2 0x42CD DUP2 PUSH2 0x4291 JUMP JUMPDEST SWAP1 POP SWAP2 SWAP1 POP JUMP JUMPDEST PUSH1 0x0 PUSH2 0x42E0 DUP3 DUP6 PUSH2 0x36B1 JUMP JUMPDEST SWAP2 POP PUSH2 0x42EC DUP3 DUP5 PUSH2 0x36B1 JUMP JUMPDEST SWAP2 POP DUP2 SWAP1 POP SWAP4 SWAP3 POP POP POP JUMP JUMPDEST PUSH32 0x7B00000000000000000000000000000000000000000000000000000000000000 PUSH1 0x0 DUP3 ADD MSTORE POP JUMP JUMPDEST PUSH1 0x0 PUSH2 0x432E PUSH1 0x1 DUP4 PUSH2 0x36A6 JUMP JUMPDEST SWAP2 POP PUSH2 0x4339 DUP3 PUSH2 0x42F8 JUMP JUMPDEST PUSH1 0x1 DUP3 ADD SWAP1 POP SWAP2 SWAP1 POP JUMP JUMPDEST PUSH32 0x226E616D65223A2022536F756C426F756E645365637572697479202D20000000 PUSH1 0x0 DUP3 ADD MSTORE POP JUMP JUMPDEST PUSH1 0x0 PUSH2 0x437A PUSH1 0x1D DUP4 PUSH2 0x36A6 JUMP JUMPDEST SWAP2 POP PUSH2 0x4385 DUP3 PUSH2 0x4344 JUMP JUMPDEST PUSH1 0x1D DUP3 ADD SWAP1 POP SWAP2 SWAP1 POP JUMP JUMPDEST PUSH32 0x222C000000000000000000000000000000000000000000000000000000000000 PUSH1 0x0 DUP3 ADD MSTORE POP JUMP JUMPDEST PUSH1 0x0 PUSH2 0x43C6 PUSH1 0x2 DUP4 PUSH2 0x36A6 JUMP JUMPDEST SWAP2 POP PUSH2 0x43D1 DUP3 PUSH2 0x4390 JUMP JUMPDEST PUSH1 0x2 DUP3 ADD SWAP1 POP SWAP2 SWAP1 POP JUMP JUMPDEST PUSH32 0x226465736372697074696F6E223A2022536F756C426F756E6453656375726974 PUSH1 0x0 DUP3 ADD MSTORE PUSH32 0x7920546F6B656E222C0000000000000000000000000000000000000000000000 PUSH1 0x20 DUP3 ADD MSTORE POP JUMP JUMPDEST PUSH1 0x0 PUSH2 0x4438 PUSH1 0x29 DUP4 PUSH2 0x36A6 JUMP JUMPDEST SWAP2 POP PUSH2 0x4443 DUP3 PUSH2 0x43DC JUMP JUMPDEST PUSH1 0x29 DUP3 ADD SWAP1 POP SWAP2 SWAP1 POP JUMP JUMPDEST PUSH32 0x7D00000000000000000000000000000000000000000000000000000000000000 PUSH1 0x0 DUP3 ADD MSTORE POP JUMP JUMPDEST PUSH1 0x0 PUSH2 0x4484 PUSH1 0x1 DUP4 PUSH2 0x36A6 JUMP JUMPDEST SWAP2 POP PUSH2 0x448F DUP3 PUSH2 0x444E JUMP JUMPDEST PUSH1 0x1 DUP3 ADD SWAP1 POP SWAP2 SWAP1 POP JUMP JUMPDEST PUSH1 0x0 PUSH2 0x44A5 DUP3 PUSH2 0x4321 JUMP JUMPDEST SWAP2 POP PUSH2 0x44B0 DUP3 PUSH2 0x436D JUMP JUMPDEST SWAP2 POP PUSH2 0x44BC DUP3 DUP5 PUSH2 0x36B1 JUMP JUMPDEST SWAP2 POP PUSH2 0x44C7 DUP3 PUSH2 0x43B9 JUMP JUMPDEST SWAP2 POP PUSH2 0x44D2 DUP3 PUSH2 0x442B JUMP JUMPDEST SWAP2 POP PUSH2 0x44DD DUP3 PUSH2 0x4477 JUMP JUMPDEST SWAP2 POP DUP2 SWAP1 POP SWAP3 SWAP2 POP POP JUMP JUMPDEST PUSH32 0x646174613A6170706C69636174696F6E2F6A736F6E3B6261736536342C000000 PUSH1 0x0 DUP3 ADD MSTORE POP JUMP JUMPDEST PUSH1 0x0 PUSH2 0x451E PUSH1 0x1D DUP4 PUSH2 0x36A6 JUMP JUMPDEST SWAP2 POP PUSH2 0x4529 DUP3 PUSH2 0x44E8 JUMP JUMPDEST PUSH1 0x1D DUP3 ADD SWAP1 POP SWAP2 SWAP1 POP JUMP JUMPDEST PUSH1 0x0 PUSH2 0x453F DUP3 PUSH2 0x4511 JUMP JUMPDEST SWAP2 POP PUSH2 0x454B DUP3 DUP5 PUSH2 0x36B1 JUMP JUMPDEST SWAP2 POP DUP2 SWAP1 POP SWAP3 SWAP2 POP POP JUMP JUMPDEST PUSH32 0x45524337323155524953746F726167653A2055524920736574206F66206E6F6E PUSH1 0x0 DUP3 ADD MSTORE PUSH32 0x6578697374656E7420746F6B656E000000000000000000000000000000000000 PUSH1 0x20 DUP3 ADD MSTORE POP JUMP JUMPDEST PUSH1 0x0 PUSH2 0x45B2 PUSH1 0x2E DUP4 PUSH2 0x2D89 JUMP JUMPDEST SWAP2 POP PUSH2 0x45BD DUP3 PUSH2 0x4556 JUMP JUMPDEST PUSH1 0x40 DUP3 ADD SWAP1 POP SWAP2 SWAP1 POP JUMP JUMPDEST PUSH1 0x0 PUSH1 0x20 DUP3 ADD SWAP1 POP DUP2 DUP2 SUB PUSH1 0x0 DUP4 ADD MSTORE PUSH2 0x45E1 DUP2 PUSH2 0x45A5 JUMP JUMPDEST SWAP1 POP SWAP2 SWAP1 POP JUMP JUMPDEST PUSH32 0x546F6B656E206E6F74207472616E7366657261626C6500000000000000000000 PUSH1 0x0 DUP3 ADD MSTORE POP JUMP JUMPDEST PUSH1 0x0 PUSH2 0x461E PUSH1 0x16 DUP4 PUSH2 0x2D89 JUMP JUMPDEST SWAP2 POP PUSH2 0x4629 DUP3 PUSH2 0x45E8 JUMP JUMPDEST PUSH1 0x20 DUP3 ADD SWAP1 POP SWAP2 SWAP1 POP JUMP JUMPDEST PUSH1 0x0 PUSH1 0x20 DUP3 ADD SWAP1 POP DUP2 DUP2 SUB PUSH1 0x0 DUP4 ADD MSTORE PUSH2 0x464D DUP2 PUSH2 0x4611 JUMP JUMPDEST SWAP1 POP SWAP2 SWAP1 POP JUMP JUMPDEST PUSH1 0x0 DUP2 MLOAD SWAP1 POP SWAP2 SWAP1 POP JUMP JUMPDEST PUSH1 0x0 DUP3 DUP3 MSTORE PUSH1 0x20 DUP3 ADD SWAP1 POP SWAP3 SWAP2 POP POP JUMP JUMPDEST PUSH1 0x0 PUSH2 0x467B DUP3 PUSH2 0x4654 JUMP JUMPDEST PUSH2 0x4685 DUP2 DUP6 PUSH2 0x465F JUMP JUMPDEST SWAP4 POP PUSH2 0x4695 DUP2 DUP6 PUSH1 0x20 DUP7 ADD PUSH2 0x2D9A JUMP JUMPDEST PUSH2 0x469E DUP2 PUSH2 0x2DC4 JUMP JUMPDEST DUP5 ADD SWAP2 POP POP SWAP3 SWAP2 POP POP JUMP JUMPDEST PUSH1 0x0 PUSH1 0x80 DUP3 ADD SWAP1 POP PUSH2 0x46BE PUSH1 0x0 DUP4 ADD DUP8 PUSH2 0x2EC5 JUMP JUMPDEST PUSH2 0x46CB PUSH1 0x20 DUP4 ADD DUP7 PUSH2 0x2EC5 JUMP JUMPDEST PUSH2 0x46D8 PUSH1 0x40 DUP4 ADD DUP6 PUSH2 0x316C JUMP JUMPDEST DUP2 DUP2 SUB PUSH1 0x60 DUP4 ADD MSTORE PUSH2 0x46EA DUP2 DUP5 PUSH2 0x4670 JUMP JUMPDEST SWAP1 POP SWAP6 SWAP5 POP POP POP POP POP JUMP JUMPDEST PUSH1 0x0 DUP2 MLOAD SWAP1 POP PUSH2 0x4704 DUP2 PUSH2 0x2CEF JUMP JUMPDEST SWAP3 SWAP2 POP POP JUMP JUMPDEST PUSH1 0x0 PUSH1 0x20 DUP3 DUP5 SUB SLT ISZERO PUSH2 0x4720 JUMPI PUSH2 0x471F PUSH2 0x2CB9 JUMP JUMPDEST JUMPDEST PUSH1 0x0 PUSH2 0x472E DUP5 DUP3 DUP6 ADD PUSH2 0x46F5 JUMP JUMPDEST SWAP2 POP POP SWAP3 SWAP2 POP POP JUMP JUMPDEST PUSH32 0x4E487B7100000000000000000000000000000000000000000000000000000000 PUSH1 0x0 MSTORE PUSH1 0x12 PUSH1 0x4 MSTORE PUSH1 0x24 PUSH1 0x0 REVERT JUMPDEST PUSH1 0x0 PUSH2 0x4771 DUP3 PUSH2 0x2E30 JUMP JUMPDEST SWAP2 POP PUSH2 0x477C DUP4 PUSH2 0x2E30 JUMP JUMPDEST SWAP3 POP DUP3 PUSH2 0x478C JUMPI PUSH2 0x478B PUSH2 0x4737 JUMP JUMPDEST JUMPDEST DUP3 DUP3 DIV SWAP1 POP SWAP3 SWAP2 POP POP JUMP JUMPDEST PUSH1 0x0 PUSH2 0x47A2 DUP3 PUSH2 0x2E30 JUMP JUMPDEST SWAP2 POP PUSH2 0x47AD DUP4 PUSH2 0x2E30 JUMP JUMPDEST SWAP3 POP DUP3 DUP3 MUL PUSH2 0x47BB DUP2 PUSH2 0x2E30 JUMP JUMPDEST SWAP2 POP DUP3 DUP3 DIV DUP5 EQ DUP4 ISZERO OR PUSH2 0x47D2 JUMPI PUSH2 0x47D1 PUSH2 0x3C41 JUMP JUMPDEST JUMPDEST POP SWAP3 SWAP2 POP POP JUMP JUMPDEST PUSH32 0x4552433732313A206D696E7420746F20746865207A65726F2061646472657373 PUSH1 0x0 DUP3 ADD MSTORE POP JUMP JUMPDEST PUSH1 0x0 PUSH2 0x480F PUSH1 0x20 DUP4 PUSH2 0x2D89 JUMP JUMPDEST SWAP2 POP PUSH2 0x481A DUP3 PUSH2 0x47D9 JUMP JUMPDEST PUSH1 0x20 DUP3 ADD SWAP1 POP SWAP2 SWAP1 POP JUMP JUMPDEST PUSH1 0x0 PUSH1 0x20 DUP3 ADD SWAP1 POP DUP2 DUP2 SUB PUSH1 0x0 DUP4 ADD MSTORE PUSH2 0x483E DUP2 PUSH2 0x4802 JUMP JUMPDEST SWAP1 POP SWAP2 SWAP1 POP JUMP JUMPDEST PUSH32 0x4552433732313A20746F6B656E20616C7265616479206D696E74656400000000 PUSH1 0x0 DUP3 ADD MSTORE POP JUMP JUMPDEST PUSH1 0x0 PUSH2 0x487B PUSH1 0x1C DUP4 PUSH2 0x2D89 JUMP JUMPDEST SWAP2 POP PUSH2 0x4886 DUP3 PUSH2 0x4845 JUMP JUMPDEST PUSH1 0x20 DUP3 ADD SWAP1 POP SWAP2 SWAP1 POP JUMP JUMPDEST PUSH1 0x0 PUSH1 0x20 DUP3 ADD SWAP1 POP DUP2 DUP2 SUB PUSH1 0x0 DUP4 ADD MSTORE PUSH2 0x48AA DUP2 PUSH2 0x486E JUMP JUMPDEST SWAP1 POP SWAP2 SWAP1 POP JUMP INVALID COINBASE TIMESTAMP NUMBER PREVRANDAO GASLIMIT CHAINID SELFBALANCE BASEFEE 0x49 0x4A 0x4B 0x4C 0x4D 0x4E 0x4F POP MLOAD MSTORE MSTORE8 SLOAD SSTORE JUMP JUMPI PC MSIZE GAS PUSH2 0x6263 PUSH5 0x6566676869 PUSH11 0x6B6C6D6E6F707172737475 PUSH23 0x7778797A303132333435363738392B2FA2646970667358 0x22 SLT KECCAK256 0xC9 COINBASE BLOCKHASH 0xF7 0xE3 0xAF DUP12 SWAP13 EXTCODESIZE PUSH9 0x5D2C2B6D61F84B6C64 SUB SWAP9 0xEA 0xEF 0x21 0x1F 0xA9 0xDA GASLIMIT 0xEC CALLDATACOPY BASEFEE BASEFEE PUSH5 0x736F6C6343 STOP ADDMOD SGT STOP CALLER "},"methodIdentifiers":{"allowToken(address)":"b53472ef","allowTokens(address)":"4e5ee1c0","approve(address,uint256)":"095ea7b3","balanceOf(address)":"70a08231","burn(uint256)":"42966c68","changeProjectOwner(string,address)":"1697a98f","createProject(string,address)":"c65579ad","getApproved(uint256)":"081812fc","isApprovedForAll(address,address)":"e985e9c5","makePayment(address,uint256,string)":"9d9db392","mint(address,string)":"d0def521","name()":"06fdde03","owner()":"8da5cb5b","ownerOf(uint256)":"6352211e","projects(string)":"91c9b268","removeToken(address)":"5fa7b584","renounceOwnership()":"715018a6","safeTransferFrom(address,address,uint256)":"42842e0e","safeTransferFrom(address,address,uint256,bytes)":"b88d4fde","setApprovalForAll(address,bool)":"a22cb465","setFee(uint256)":"69fe0e2d","supportsInterface(bytes4)":"01ffc9a7","symbol()":"95d89b41","tokenProjects(uint256)":"cab9167a","tokenURI(uint256)":"c87b56dd","transferFrom(address,address,uint256)":"23b872dd","transferOwnership(address)":"f2fde38b","updateProjectStatus(string,bool)":"959783c7"}}}}}