{
  "_format": "hh-sol-artifact-1",
  "contractName": "SoulBoundSecurity",
  "sourceName": "contracts/soulboundSecurity.sol",
  "abi": [
    {
      "inputs": [],
      "stateMutability": "nonpayable",
      "type": "constructor"
    },
    {
      "anonymous": false,
      "inputs": [
        {
          "indexed": true,
          "internalType": "address",
          "name": "owner",
          "type": "address"
        },
        {
          "indexed": true,
          "internalType": "address",
          "name": "approved",
          "type": "address"
        },
        {
          "indexed": true,
          "internalType": "uint256",
          "name": "tokenId",
          "type": "uint256"
        }
      ],
      "name": "Approval",
      "type": "event"
    },
    {
      "anonymous": false,
      "inputs": [
        {
          "indexed": true,
          "internalType": "address",
          "name": "owner",
          "type": "address"
        },
        {
          "indexed": true,
          "internalType": "address",
          "name": "operator",
          "type": "address"
        },
        {
          "indexed": false,
          "internalType": "bool",
          "name": "approved",
          "type": "bool"
        }
      ],
      "name": "ApprovalForAll",
      "type": "event"
    },
    {
      "anonymous": false,
      "inputs": [
        {
          "indexed": false,
          "internalType": "uint256",
          "name": "_fromTokenId",
          "type": "uint256"
        },
        {
          "indexed": false,
          "internalType": "uint256",
          "name": "_toTokenId",
          "type": "uint256"
        }
      ],
      "name": "BatchMetadataUpdate",
      "type": "event"
    },
    {
      "anonymous": false,
      "inputs": [
        {
          "indexed": false,
          "internalType": "uint256",
          "name": "_tokenId",
          "type": "uint256"
        }
      ],
      "name": "MetadataUpdate",
      "type": "event"
    },
    {
      "anonymous": false,
      "inputs": [
        {
          "indexed": true,
          "internalType": "address",
          "name": "previousOwner",
          "type": "address"
        },
        {
          "indexed": true,
          "internalType": "address",
          "name": "newOwner",
          "type": "address"
        }
      ],
      "name": "OwnershipTransferred",
      "type": "event"
    },
    {
      "anonymous": false,
      "inputs": [
        {
          "indexed": false,
          "internalType": "string",
          "name": "projectName",
          "type": "string"
        }
      ],
      "name": "ProjectAdded",
      "type": "event"
    },
    {
      "anonymous": false,
      "inputs": [
        {
          "indexed": true,
          "internalType": "address",
          "name": "from",
          "type": "address"
        },
        {
          "indexed": true,
          "internalType": "address",
          "name": "to",
          "type": "address"
        },
        {
          "indexed": true,
          "internalType": "uint256",
          "name": "tokenId",
          "type": "uint256"
        }
      ],
      "name": "Transfer",
      "type": "event"
    },
    {
      "inputs": [
        {
          "internalType": "address",
          "name": "_token",
          "type": "address"
        }
      ],
      "name": "allowToken",
      "outputs": [],
      "stateMutability": "nonpayable",
      "type": "function"
    },
    {
      "inputs": [
        {
          "internalType": "address",
          "name": "",
          "type": "address"
        }
      ],
      "name": "allowTokens",
      "outputs": [
        {
          "internalType": "bool",
          "name": "",
          "type": "bool"
        }
      ],
      "stateMutability": "view",
      "type": "function"
    },
    {
      "inputs": [
        {
          "internalType": "address",
          "name": "to",
          "type": "address"
        },
        {
          "internalType": "uint256",
          "name": "tokenId",
          "type": "uint256"
        }
      ],
      "name": "approve",
      "outputs": [],
      "stateMutability": "nonpayable",
      "type": "function"
    },
    {
      "inputs": [
        {
          "internalType": "address",
          "name": "owner",
          "type": "address"
        }
      ],
      "name": "balanceOf",
      "outputs": [
        {
          "internalType": "uint256",
          "name": "",
          "type": "uint256"
        }
      ],
      "stateMutability": "view",
      "type": "function"
    },
    {
      "inputs": [
        {
          "internalType": "uint256",
          "name": "tokenId",
          "type": "uint256"
        }
      ],
      "name": "burn",
      "outputs": [],
      "stateMutability": "nonpayable",
      "type": "function"
    },
    {
      "inputs": [
        {
          "internalType": "string",
          "name": "projectName",
          "type": "string"
        },
        {
          "internalType": "address",
          "name": "ownerAddr",
          "type": "address"
        }
      ],
      "name": "changeProjectOwner",
      "outputs": [],
      "stateMutability": "nonpayable",
      "type": "function"
    },
    {
      "inputs": [
        {
          "internalType": "string",
          "name": "projectName",
          "type": "string"
        },
        {
          "internalType": "address",
          "name": "projectOwner",
          "type": "address"
        }
      ],
      "name": "createProject",
      "outputs": [],
      "stateMutability": "nonpayable",
      "type": "function"
    },
    {
      "inputs": [
        {
          "internalType": "uint256",
          "name": "tokenId",
          "type": "uint256"
        }
      ],
      "name": "getApproved",
      "outputs": [
        {
          "internalType": "address",
          "name": "",
          "type": "address"
        }
      ],
      "stateMutability": "view",
      "type": "function"
    },
    {
      "inputs": [
        {
          "internalType": "address",
          "name": "owner",
          "type": "address"
        },
        {
          "internalType": "address",
          "name": "operator",
          "type": "address"
        }
      ],
      "name": "isApprovedForAll",
      "outputs": [
        {
          "internalType": "bool",
          "name": "",
          "type": "bool"
        }
      ],
      "stateMutability": "view",
      "type": "function"
    },
    {
      "inputs": [
        {
          "internalType": "address",
          "name": "_token",
          "type": "address"
        },
        {
          "internalType": "uint256",
          "name": "_amt",
          "type": "uint256"
        },
        {
          "internalType": "string",
          "name": "projectName",
          "type": "string"
        }
      ],
      "name": "makePayment",
      "outputs": [],
      "stateMutability": "nonpayable",
      "type": "function"
    },
    {
      "inputs": [
        {
          "internalType": "address",
          "name": "to",
          "type": "address"
        },
        {
          "internalType": "string",
          "name": "projectName",
          "type": "string"
        }
      ],
      "name": "mint",
      "outputs": [],
      "stateMutability": "nonpayable",
      "type": "function"
    },
    {
      "inputs": [],
      "name": "name",
      "outputs": [
        {
          "internalType": "string",
          "name": "",
          "type": "string"
        }
      ],
      "stateMutability": "view",
      "type": "function"
    },
    {
      "inputs": [],
      "name": "owner",
      "outputs": [
        {
          "internalType": "address",
          "name": "",
          "type": "address"
        }
      ],
      "stateMutability": "view",
      "type": "function"
    },
    {
      "inputs": [
        {
          "internalType": "uint256",
          "name": "tokenId",
          "type": "uint256"
        }
      ],
      "name": "ownerOf",
      "outputs": [
        {
          "internalType": "address",
          "name": "",
          "type": "address"
        }
      ],
      "stateMutability": "view",
      "type": "function"
    },
    {
      "inputs": [
        {
          "internalType": "string",
          "name": "",
          "type": "string"
        }
      ],
      "name": "projects",
      "outputs": [
        {
          "internalType": "string",
          "name": "name",
          "type": "string"
        },
        {
          "internalType": "address",
          "name": "owner",
          "type": "address"
        },
        {
          "internalType": "bool",
          "name": "active",
          "type": "bool"
        },
        {
          "internalType": "uint256",
          "name": "nextPaymentDue",
          "type": "uint256"
        }
      ],
      "stateMutability": "view",
      "type": "function"
    },
    {
      "inputs": [
        {
          "internalType": "address",
          "name": "_token",
          "type": "address"
        }
      ],
      "name": "removeToken",
      "outputs": [],
      "stateMutability": "nonpayable",
      "type": "function"
    },
    {
      "inputs": [],
      "name": "renounceOwnership",
      "outputs": [],
      "stateMutability": "nonpayable",
      "type": "function"
    },
    {
      "inputs": [
        {
          "internalType": "address",
          "name": "from",
          "type": "address"
        },
        {
          "internalType": "address",
          "name": "to",
          "type": "address"
        },
        {
          "internalType": "uint256",
          "name": "tokenId",
          "type": "uint256"
        }
      ],
      "name": "safeTransferFrom",
      "outputs": [],
      "stateMutability": "nonpayable",
      "type": "function"
    },
    {
      "inputs": [
        {
          "internalType": "address",
          "name": "from",
          "type": "address"
        },
        {
          "internalType": "address",
          "name": "to",
          "type": "address"
        },
        {
          "internalType": "uint256",
          "name": "tokenId",
          "type": "uint256"
        },
        {
          "internalType": "bytes",
          "name": "data",
          "type": "bytes"
        }
      ],
      "name": "safeTransferFrom",
      "outputs": [],
      "stateMutability": "nonpayable",
      "type": "function"
    },
    {
      "inputs": [
        {
          "internalType": "address",
          "name": "operator",
          "type": "address"
        },
        {
          "internalType": "bool",
          "name": "approved",
          "type": "bool"
        }
      ],
      "name": "setApprovalForAll",
      "outputs": [],
      "stateMutability": "nonpayable",
      "type": "function"
    },
    {
      "inputs": [
        {
          "internalType": "uint256",
          "name": "_fee",
          "type": "uint256"
        }
      ],
      "name": "setFee",
      "outputs": [],
      "stateMutability": "nonpayable",
      "type": "function"
    },
    {
      "inputs": [
        {
          "internalType": "bytes4",
          "name": "interfaceId",
          "type": "bytes4"
        }
      ],
      "name": "supportsInterface",
      "outputs": [
        {
          "internalType": "bool",
          "name": "",
          "type": "bool"
        }
      ],
      "stateMutability": "view",
      "type": "function"
    },
    {
      "inputs": [],
      "name": "symbol",
      "outputs": [
        {
          "internalType": "string",
          "name": "",
          "type": "string"
        }
      ],
      "stateMutability": "view",
      "type": "function"
    },
    {
      "inputs": [
        {
          "internalType": "uint256",
          "name": "",
          "type": "uint256"
        }
      ],
      "name": "tokenProjects",
      "outputs": [
        {
          "internalType": "string",
          "name": "",
          "type": "string"
        }
      ],
      "stateMutability": "view",
      "type": "function"
    },
    {
      "inputs": [
        {
          "internalType": "uint256",
          "name": "tokenId",
          "type": "uint256"
        }
      ],
      "name": "tokenURI",
      "outputs": [
        {
          "internalType": "string",
          "name": "",
          "type": "string"
        }
      ],
      "stateMutability": "view",
      "type": "function"
    },
    {
      "inputs": [
        {
          "internalType": "address",
          "name": "from",
          "type": "address"
        },
        {
          "internalType": "address",
          "name": "to",
          "type": "address"
        },
        {
          "internalType": "uint256",
          "name": "tokenId",
          "type": "uint256"
        }
      ],
      "name": "transferFrom",
      "outputs": [],
      "stateMutability": "nonpayable",
      "type": "function"
    },
    {
      "inputs": [
        {
          "internalType": "address",
          "name": "newOwner",
          "type": "address"
        }
      ],
      "name": "transferOwnership",
      "outputs": [],
      "stateMutability": "nonpayable",
      "type": "function"
    },
    {
      "inputs": [
        {
          "internalType": "string",
          "name": "projectName",
          "type": "string"
        },
        {
          "internalType": "bool",
          "name": "active",
          "type": "bool"
        }
      ],
      "name": "updateProjectStatus",
      "outputs": [],
      "stateMutability": "nonpayable",
      "type": "function"
    }
  ],
  "bytecode": "0x6080604052674563918244f400006009553480156200001d57600080fd5b506040518060400160405280601181526020017f536f756c426f756e6453656375726974790000000000000000000000000000008152506040518060400160405280600381526020017f534253000000000000000000000000000000000000000000000000000000000081525081600090816200009b91906200041e565b508060019081620000ad91906200041e565b505050620000d0620000c4620000d660201b60201c565b620000de60201b60201c565b62000505565b600033905090565b6000600760009054906101000a900473ffffffffffffffffffffffffffffffffffffffff16905081600760006101000a81548173ffffffffffffffffffffffffffffffffffffffff021916908373ffffffffffffffffffffffffffffffffffffffff1602179055508173ffffffffffffffffffffffffffffffffffffffff168173ffffffffffffffffffffffffffffffffffffffff167f8be0079c531659141344cd1fd0a4f28419497f9722a3daafe3b4186f6b6457e060405160405180910390a35050565b600081519050919050565b7f4e487b7100000000000000000000000000000000000000000000000000000000600052604160045260246000fd5b7f4e487b7100000000000000000000000000000000000000000000000000000000600052602260045260246000fd5b600060028204905060018216806200022657607f821691505b6020821081036200023c576200023b620001de565b5b50919050565b60008190508160005260206000209050919050565b60006020601f8301049050919050565b600082821b905092915050565b600060088302620002a67fffffffffffffffffffffffffffffffffffffffffffffffffffffffffffffffff8262000267565b620002b2868362000267565b95508019841693508086168417925050509392505050565b6000819050919050565b6000819050919050565b6000620002ff620002f9620002f384620002ca565b620002d4565b620002ca565b9050919050565b6000819050919050565b6200031b83620002de565b620003336200032a8262000306565b84845462000274565b825550505050565b600090565b6200034a6200033b565b6200035781848462000310565b505050565b5b818110156200037f576200037360008262000340565b6001810190506200035d565b5050565b601f821115620003ce57620003988162000242565b620003a38462000257565b81016020851015620003b3578190505b620003cb620003c28562000257565b8301826200035c565b50505b505050565b600082821c905092915050565b6000620003f360001984600802620003d3565b1980831691505092915050565b60006200040e8383620003e0565b9150826002028217905092915050565b6200042982620001a4565b67ffffffffffffffff811115620004455762000444620001af565b5b6200045182546200020d565b6200045e82828562000383565b600060209050601f83116001811462000496576000841562000481578287015190505b6200048d858262000400565b865550620004fd565b601f198416620004a68662000242565b60005b82811015620004d057848901518255600182019150602085019450602081019050620004a9565b86831015620004f05784890151620004ec601f891682620003e0565b8355505b6001600288020188555050505b505050505050565b61492780620005156000396000f3fe608060405234801561001057600080fd5b50600436106101c45760003560e01c80638da5cb5b116100f9578063b88d4fde11610097578063cab9167a11610071578063cab9167a146104ec578063d0def5211461051c578063e985e9c514610538578063f2fde38b14610568576101c4565b8063b88d4fde14610484578063c65579ad146104a0578063c87b56dd146104bc576101c4565b806395d89b41116100d357806395d89b41146104125780639d9db39214610430578063a22cb4651461044c578063b53472ef14610468576101c4565b80638da5cb5b146103a557806391c9b268146103c3578063959783c7146103f6576101c4565b806342966c68116101665780636352211e116101405780636352211e1461031f57806369fe0e2d1461034f57806370a082311461036b578063715018a61461039b576101c4565b806342966c68146102b75780634e5ee1c0146102d35780635fa7b58414610303576101c4565b8063095ea7b3116101a2578063095ea7b3146102475780631697a98f1461026357806323b872dd1461027f57806342842e0e1461029b576101c4565b806301ffc9a7146101c957806306fdde03146101f9578063081812fc14610217575b600080fd5b6101e360048036038101906101de9190612d1b565b610584565b6040516101f09190612d63565b60405180910390f35b610201610596565b60405161020e9190612e0e565b60405180910390f35b610231600480360381019061022c9190612e66565b610628565b60405161023e9190612ed4565b60405180910390f35b610261600480360381019061025c9190612f1b565b61066e565b005b61027d60048036038101906102789190613090565b610785565b005b610299600480360381019061029491906130ec565b6107f1565b005b6102b560048036038101906102b091906130ec565b610851565b005b6102d160048036038101906102cc9190612e66565b610871565b005b6102ed60048036038101906102e8919061313f565b610961565b6040516102fa9190612d63565b60405180910390f35b61031d6004803603810190610318919061313f565b610981565b005b61033960048036038101906103349190612e66565b6109e4565b6040516103469190612ed4565b60405180910390f35b61036960048036038101906103649190612e66565b610a6a565b005b6103856004803603810190610380919061313f565b610a7c565b604051610392919061317b565b60405180910390f35b6103a3610b33565b005b6103ad610b47565b6040516103ba9190612ed4565b60405180910390f35b6103dd60048036038101906103d89190613196565b610b71565b6040516103ed94939291906131df565b60405180910390f35b610410600480360381019061040b9190613257565b610c6c565b005b61041a610cb1565b6040516104279190612e0e565b60405180910390f35b61044a600480360381019061044591906132b3565b610d43565b005b61046660048036038101906104619190613322565b611042565b005b610482600480360381019061047d919061313f565b611058565b005b61049e60048036038101906104999190613403565b6110bb565b005b6104ba60048036038101906104b59190613090565b61111d565b005b6104d660048036038101906104d19190612e66565b611267565b6040516104e39190612e0e565b60405180910390f35b61050660048036038101906105019190612e66565b611279565b6040516105139190612e0e565b60405180910390f35b61053660048036038101906105319190613486565b611319565b005b610552600480360381019061054d91906134e2565b611405565b60405161055f9190612d63565b60405180910390f35b610582600480360381019061057d919061313f565b611499565b005b600061058f8261151c565b9050919050565b6060600080546105a590613551565b80601f01602080910402602001604051908101604052809291908181526020018280546105d190613551565b801561061e5780601f106105f35761010080835404028352916020019161061e565b820191906000526020600020905b81548152906001019060200180831161060157829003601f168201915b5050505050905090565b60006106338261157d565b6004600083815260200190815260200160002060009054906101000a900473ffffffffffffffffffffffffffffffffffffffff169050919050565b6000610679826109e4565b90508073ffffffffffffffffffffffffffffffffffffffff168373ffffffffffffffffffffffffffffffffffffffff16036106e9576040517f08c379a00000000000000000000000000000000000000000000000000000000081526004016106e0906135f4565b60405180910390fd5b8073ffffffffffffffffffffffffffffffffffffffff166107086115c8565b73ffffffffffffffffffffffffffffffffffffffff1614806107375750610736816107316115c8565b611405565b5b610776576040517f08c379a000000000000000000000000000000000000000000000000000000000815260040161076d90613686565b60405180910390fd5b61078083836115d0565b505050565b61078d611689565b80600b8360405161079e91906136e2565b908152602001604051809103902060010160006101000a81548173ffffffffffffffffffffffffffffffffffffffff021916908373ffffffffffffffffffffffffffffffffffffffff1602179055505050565b6108026107fc6115c8565b82611707565b610841576040517f08c379a00000000000000000000000000000000000000000000000000000000081526004016108389061376b565b60405180910390fd5b61084c83838361179c565b505050565b61086c838383604051806020016040528060008152506110bb565b505050565b61091633600a6000848152602001908152602001600020805461089390613551565b80601f01602080910402602001604051908101604052809291908181526020018280546108bf90613551565b801561090c5780601f106108e15761010080835404028352916020019161090c565b820191906000526020600020905b8154815290600101906020018083116108ef57829003601f168201915b5050505050611a95565b610955576040517f08c379a000000000000000000000000000000000000000000000000000000000815260040161094c906137fd565b60405180910390fd5b61095e81611b4c565b50565b600c6020528060005260406000206000915054906101000a900460ff1681565b610989611689565b6000600c60008373ffffffffffffffffffffffffffffffffffffffff1673ffffffffffffffffffffffffffffffffffffffff16815260200190815260200160002060006101000a81548160ff02191690831515021790555050565b6000806109f083611b58565b9050600073ffffffffffffffffffffffffffffffffffffffff168173ffffffffffffffffffffffffffffffffffffffff1603610a61576040517f08c379a0000000000000000000000000000000000000000000000000000000008152600401610a5890613869565b60405180910390fd5b80915050919050565b610a72611689565b8060098190555050565b60008073ffffffffffffffffffffffffffffffffffffffff168273ffffffffffffffffffffffffffffffffffffffff1603610aec576040517f08c379a0000000000000000000000000000000000000000000000000000000008152600401610ae3906138fb565b60405180910390fd5b600360008373ffffffffffffffffffffffffffffffffffffffff1673ffffffffffffffffffffffffffffffffffffffff168152602001908152602001600020549050919050565b610b3b611689565b610b456000611b95565b565b6000600760009054906101000a900473ffffffffffffffffffffffffffffffffffffffff16905090565b600b81805160208101820180518482526020830160208501208183528095505050505050600091509050806000018054610baa90613551565b80601f0160208091040260200160405190810160405280929190818152602001828054610bd690613551565b8015610c235780601f10610bf857610100808354040283529160200191610c23565b820191906000526020600020905b815481529060010190602001808311610c0657829003601f168201915b5050505050908060010160009054906101000a900473ffffffffffffffffffffffffffffffffffffffff16908060010160149054906101000a900460ff16908060030154905084565b610c74611689565b80600b83604051610c8591906136e2565b908152602001604051809103902060010160146101000a81548160ff0219169083151502179055505050565b606060018054610cc090613551565b80601f0160208091040260200160405190810160405280929190818152602001828054610cec90613551565b8015610d395780601f10610d0e57610100808354040283529160200191610d39565b820191906000526020600020905b815481529060010190602001808311610d1c57829003601f168201915b5050505050905090565b610d4d3382611a95565b610d8c576040517f08c379a0000000000000000000000000000000000000000000000000000000008152600401610d8390613967565b60405180910390fd5b60011515600c60008573ffffffffffffffffffffffffffffffffffffffff1673ffffffffffffffffffffffffffffffffffffffff16815260200190815260200160002060009054906101000a900460ff16151514610e1f576040517f08c379a0000000000000000000000000000000000000000000000000000000008152600401610e16906139d3565b60405180910390fd5b6009548214610e63576040517f08c379a0000000000000000000000000000000000000000000000000000000008152600401610e5a90613a3f565b60405180910390fd5b6009548373ffffffffffffffffffffffffffffffffffffffff1663dd62ed3e33306040518363ffffffff1660e01b8152600401610ea1929190613a5f565b602060405180830381865afa158015610ebe573d6000803e3d6000fd5b505050506040513d601f19601f82011682018060405250810190610ee29190613a9d565b1015610f23576040517f08c379a0000000000000000000000000000000000000000000000000000000008152600401610f1a90613b3c565b60405180910390fd5b60008373ffffffffffffffffffffffffffffffffffffffff166323b872dd3330866040518463ffffffff1660e01b8152600401610f6293929190613b5c565b6020604051808303816000875af1158015610f81573d6000803e3d6000fd5b505050506040513d601f19601f82011682018060405250810190610fa59190613ba8565b905080610fe7576040517f08c379a0000000000000000000000000000000000000000000000000000000008152600401610fde90613c21565b60405180910390fd5b62278d00600b83604051610ffb91906136e2565b9081526020016040518091039020600301546110179190613c70565b600b8360405161102791906136e2565b90815260200160405180910390206003018190555050505050565b61105461104d6115c8565b8383611c5b565b5050565b611060611689565b6001600c60008373ffffffffffffffffffffffffffffffffffffffff1673ffffffffffffffffffffffffffffffffffffffff16815260200190815260200160002060006101000a81548160ff02191690831515021790555050565b6110cc6110c66115c8565b83611707565b61110b576040517f08c379a00000000000000000000000000000000000000000000000000000000081526004016111029061376b565b60405180910390fd5b61111784848484611dc7565b50505050565b611125611689565b81600b8360405161113691906136e2565b908152602001604051809103902060000190816111539190613e50565b5080600b8360405161116591906136e2565b908152602001604051809103902060010160006101000a81548173ffffffffffffffffffffffffffffffffffffffff021916908373ffffffffffffffffffffffffffffffffffffffff1602179055506001600b836040516111c691906136e2565b908152602001604051809103902060010160146101000a81548160ff02191690831515021790555062278d00426111fd9190613c70565b600b8360405161120d91906136e2565b90815260200160405180910390206003018190555061122c8183611319565b7fe2113e2f31e9059e4f64d1910b874f2e8ee4a4fd9081c4910d409f649dfe3b488260405161125b9190612e0e565b60405180910390a15050565b606061127282611e23565b9050919050565b600a602052806000526040600020600091509050805461129890613551565b80601f01602080910402602001604051908101604052809291908181526020018280546112c490613551565b80156113115780601f106112e657610100808354040283529160200191611311565b820191906000526020600020905b8154815290600101906020018083116112f457829003601f168201915b505050505081565b6113233382611a95565b611362576040517f08c379a000000000000000000000000000000000000000000000000000000000815260040161135990613f94565b60405180910390fd5b600061136e6008611f35565b905081600a600083815260200190815260200160002090816113909190613e50565b50600b826040516113a191906136e2565b90815260200160405180910390206002018190806001815401808255809150506001900390600052602060002001600090919091909150556113e36008611f43565b6113ed8382611f59565b611400816113fb8385611f77565b611fce565b505050565b6000600560008473ffffffffffffffffffffffffffffffffffffffff1673ffffffffffffffffffffffffffffffffffffffff16815260200190815260200160002060008373ffffffffffffffffffffffffffffffffffffffff1673ffffffffffffffffffffffffffffffffffffffff16815260200190815260200160002060009054906101000a900460ff16905092915050565b6114a1611689565b600073ffffffffffffffffffffffffffffffffffffffff168173ffffffffffffffffffffffffffffffffffffffff1603611510576040517f08c379a000000000000000000000000000000000000000000000000000000000815260040161150790614026565b60405180910390fd5b61151981611b95565b50565b6000634906490660e01b7bffffffffffffffffffffffffffffffffffffffffffffffffffffffff1916827bffffffffffffffffffffffffffffffffffffffffffffffffffffffff19161480611576575061157582612072565b5b9050919050565b61158681612154565b6115c5576040517f08c379a00000000000000000000000000000000000000000000000000000000081526004016115bc90613869565b60405180910390fd5b50565b600033905090565b816004600083815260200190815260200160002060006101000a81548173ffffffffffffffffffffffffffffffffffffffff021916908373ffffffffffffffffffffffffffffffffffffffff160217905550808273ffffffffffffffffffffffffffffffffffffffff16611643836109e4565b73ffffffffffffffffffffffffffffffffffffffff167f8c5be1e5ebec7d5bd14f71427d1e84f3dd0314c0f7b2291e5b200ac8c7c3b92560405160405180910390a45050565b6116916115c8565b73ffffffffffffffffffffffffffffffffffffffff166116af610b47565b73ffffffffffffffffffffffffffffffffffffffff1614611705576040517f08c379a00000000000000000000000000000000000000000000000000000000081526004016116fc90614092565b60405180910390fd5b565b600080611713836109e4565b90508073ffffffffffffffffffffffffffffffffffffffff168473ffffffffffffffffffffffffffffffffffffffff16148061175557506117548185611405565b5b8061179357508373ffffffffffffffffffffffffffffffffffffffff1661177b84610628565b73ffffffffffffffffffffffffffffffffffffffff16145b91505092915050565b8273ffffffffffffffffffffffffffffffffffffffff166117bc826109e4565b73ffffffffffffffffffffffffffffffffffffffff1614611812576040517f08c379a000000000000000000000000000000000000000000000000000000000815260040161180990614124565b60405180910390fd5b600073ffffffffffffffffffffffffffffffffffffffff168273ffffffffffffffffffffffffffffffffffffffff1603611881576040517f08c379a0000000000000000000000000000000000000000000000000000000008152600401611878906141b6565b60405180910390fd5b61188e8383836001612195565b8273ffffffffffffffffffffffffffffffffffffffff166118ae826109e4565b73ffffffffffffffffffffffffffffffffffffffff1614611904576040517f08c379a00000000000000000000000000000000000000000000000000000000081526004016118fb90614124565b60405180910390fd5b6004600082815260200190815260200160002060006101000a81549073ffffffffffffffffffffffffffffffffffffffff02191690556001600360008573ffffffffffffffffffffffffffffffffffffffff1673ffffffffffffffffffffffffffffffffffffffff168152602001908152602001600020600082825403925050819055506001600360008473ffffffffffffffffffffffffffffffffffffffff1673ffffffffffffffffffffffffffffffffffffffff16815260200190815260200160002060008282540192505081905550816002600083815260200190815260200160002060006101000a81548173ffffffffffffffffffffffffffffffffffffffff021916908373ffffffffffffffffffffffffffffffffffffffff160217905550808273ffffffffffffffffffffffffffffffffffffffff168473ffffffffffffffffffffffffffffffffffffffff167fddf252ad1be2c89b69c2b068fc378daa952ba7f163c4a11628f55a4df523b3ef60405160405180910390a4611a908383836001612216565b505050565b6000611a9f610b47565b73ffffffffffffffffffffffffffffffffffffffff168373ffffffffffffffffffffffffffffffffffffffff161480611b4457508273ffffffffffffffffffffffffffffffffffffffff16600b83604051611afa91906136e2565b908152602001604051809103902060010160009054906101000a900473ffffffffffffffffffffffffffffffffffffffff1673ffffffffffffffffffffffffffffffffffffffff16145b905092915050565b611b558161221c565b50565b60006002600083815260200190815260200160002060009054906101000a900473ffffffffffffffffffffffffffffffffffffffff169050919050565b6000600760009054906101000a900473ffffffffffffffffffffffffffffffffffffffff16905081600760006101000a81548173ffffffffffffffffffffffffffffffffffffffff021916908373ffffffffffffffffffffffffffffffffffffffff1602179055508173ffffffffffffffffffffffffffffffffffffffff168173ffffffffffffffffffffffffffffffffffffffff167f8be0079c531659141344cd1fd0a4f28419497f9722a3daafe3b4186f6b6457e060405160405180910390a35050565b8173ffffffffffffffffffffffffffffffffffffffff168373ffffffffffffffffffffffffffffffffffffffff1603611cc9576040517f08c379a0000000000000000000000000000000000000000000000000000000008152600401611cc090614222565b60405180910390fd5b80600560008573ffffffffffffffffffffffffffffffffffffffff1673ffffffffffffffffffffffffffffffffffffffff16815260200190815260200160002060008473ffffffffffffffffffffffffffffffffffffffff1673ffffffffffffffffffffffffffffffffffffffff16815260200190815260200160002060006101000a81548160ff0219169083151502179055508173ffffffffffffffffffffffffffffffffffffffff168373ffffffffffffffffffffffffffffffffffffffff167f17307eab39ab6107e8899845ad3d59bd9653f200f220920489ca2b5937696c3183604051611dba9190612d63565b60405180910390a3505050565b611dd284848461179c565b611dde8484848461226f565b611e1d576040517f08c379a0000000000000000000000000000000000000000000000000000000008152600401611e14906142b4565b60405180910390fd5b50505050565b6060611e2e8261157d565b6000600660008481526020019081526020016000208054611e4e90613551565b80601f0160208091040260200160405190810160405280929190818152602001828054611e7a90613551565b8015611ec75780601f10611e9c57610100808354040283529160200191611ec7565b820191906000526020600020905b815481529060010190602001808311611eaa57829003601f168201915b505050505090506000611ed86123f6565b90506000815103611eed578192505050611f30565b600082511115611f22578082604051602001611f0a9291906142d4565b60405160208183030381529060405292505050611f30565b611f2b8461240d565b925050505b919050565b600081600001549050919050565b6001816000016000828254019250508190555050565b611f73828260405180602001604052806000815250612475565b5050565b6060600082604051602001611f8c919061449a565b6040516020818303038152906040529050611fa6816124d0565b604051602001611fb69190614534565b60405160208183030381529060405291505092915050565b611fd782612154565b612016576040517f08c379a000000000000000000000000000000000000000000000000000000000815260040161200d906145c8565b60405180910390fd5b806006600084815260200190815260200160002090816120369190613e50565b507ff8e1a15aba9398e019f0b49df1a4fde98ee17ae345cb5f6b5e2c27f5033e8ce782604051612066919061317b565b60405180910390a15050565b60007f80ac58cd000000000000000000000000000000000000000000000000000000007bffffffffffffffffffffffffffffffffffffffffffffffffffffffff1916827bffffffffffffffffffffffffffffffffffffffffffffffffffffffff1916148061213d57507f5b5e139f000000000000000000000000000000000000000000000000000000007bffffffffffffffffffffffffffffffffffffffffffffffffffffffff1916827bffffffffffffffffffffffffffffffffffffffffffffffffffffffff1916145b8061214d575061214c82612633565b5b9050919050565b60008073ffffffffffffffffffffffffffffffffffffffff1661217683611b58565b73ffffffffffffffffffffffffffffffffffffffff1614159050919050565b600073ffffffffffffffffffffffffffffffffffffffff168473ffffffffffffffffffffffffffffffffffffffff1614612204576040517f08c379a00000000000000000000000000000000000000000000000000000000081526004016121fb90614634565b60405180910390fd5b6122108484848461269d565b50505050565b50505050565b612225816126a3565b600060066000838152602001908152602001600020805461224590613551565b90501461226c5760066000828152602001908152602001600020600061226b9190612c52565b5b50565b60006122908473ffffffffffffffffffffffffffffffffffffffff166127f1565b156123e9578373ffffffffffffffffffffffffffffffffffffffff1663150b7a026122b96115c8565b8786866040518563ffffffff1660e01b81526004016122db94939291906146a9565b6020604051808303816000875af192505050801561231757506040513d601f19601f82011682018060405250810190612314919061470a565b60015b612399573d8060008114612347576040519150601f19603f3d011682016040523d82523d6000602084013e61234c565b606091505b506000815103612391576040517f08c379a0000000000000000000000000000000000000000000000000000000008152600401612388906142b4565b60405180910390fd5b805181602001fd5b63150b7a0260e01b7bffffffffffffffffffffffffffffffffffffffffffffffffffffffff1916817bffffffffffffffffffffffffffffffffffffffffffffffffffffffff1916149150506123ee565b600190505b949350505050565b606060405180602001604052806000815250905090565b60606124188261157d565b60006124226123f6565b90506000815111612442576040518060200160405280600081525061246d565b8061244c84612814565b60405160200161245d9291906142d4565b6040516020818303038152906040525b915050919050565b61247f83836128e2565b61248c600084848461226f565b6124cb576040517f08c379a00000000000000000000000000000000000000000000000000000000081526004016124c2906142b4565b60405180910390fd5b505050565b606060008251036124f25760405180602001604052806000815250905061262e565b60006040518060600160405280604081526020016148b260409139905060006003600285516125219190613c70565b61252b9190614766565b60046125379190614797565b67ffffffffffffffff8111156125505761254f612f65565b5b6040519080825280601f01601f1916602001820160405280156125825781602001600182028036833780820191505090505b509050600182016020820185865187015b808210156125ee576003820191508151603f8160121c168501518453600184019350603f81600c1c168501518453600184019350603f8160061c168501518453600184019350603f8116850151845360018401935050612593565b505060038651066001811461260a576002811461261d57612625565b603d6001830353603d6002830353612625565b603d60018303535b50505080925050505b919050565b60007f01ffc9a7000000000000000000000000000000000000000000000000000000007bffffffffffffffffffffffffffffffffffffffffffffffffffffffff1916827bffffffffffffffffffffffffffffffffffffffffffffffffffffffff1916149050919050565b50505050565b60006126ae826109e4565b90506126be816000846001612195565b6126c7826109e4565b90506004600083815260200190815260200160002060006101000a81549073ffffffffffffffffffffffffffffffffffffffff02191690556001600360008373ffffffffffffffffffffffffffffffffffffffff1673ffffffffffffffffffffffffffffffffffffffff168152602001908152602001600020600082825403925050819055506002600083815260200190815260200160002060006101000a81549073ffffffffffffffffffffffffffffffffffffffff021916905581600073ffffffffffffffffffffffffffffffffffffffff168273ffffffffffffffffffffffffffffffffffffffff167fddf252ad1be2c89b69c2b068fc378daa952ba7f163c4a11628f55a4df523b3ef60405160405180910390a46127ed816000846001612216565b5050565b6000808273ffffffffffffffffffffffffffffffffffffffff163b119050919050565b60606000600161282384612aff565b01905060008167ffffffffffffffff81111561284257612841612f65565b5b6040519080825280601f01601f1916602001820160405280156128745781602001600182028036833780820191505090505b509050600082602001820190505b6001156128d7578080600190039150507f3031323334353637383961626364656600000000000000000000000000000000600a86061a8153600a85816128cb576128ca614737565b5b04945060008503612882575b819350505050919050565b600073ffffffffffffffffffffffffffffffffffffffff168273ffffffffffffffffffffffffffffffffffffffff1603612951576040517f08c379a000000000000000000000000000000000000000000000000000000000815260040161294890614825565b60405180910390fd5b61295a81612154565b1561299a576040517f08c379a000000000000000000000000000000000000000000000000000000000815260040161299190614891565b60405180910390fd5b6129a8600083836001612195565b6129b181612154565b156129f1576040517f08c379a00000000000000000000000000000000000000000000000000000000081526004016129e890614891565b60405180910390fd5b6001600360008473ffffffffffffffffffffffffffffffffffffffff1673ffffffffffffffffffffffffffffffffffffffff16815260200190815260200160002060008282540192505081905550816002600083815260200190815260200160002060006101000a81548173ffffffffffffffffffffffffffffffffffffffff021916908373ffffffffffffffffffffffffffffffffffffffff160217905550808273ffffffffffffffffffffffffffffffffffffffff16600073ffffffffffffffffffffffffffffffffffffffff167fddf252ad1be2c89b69c2b068fc378daa952ba7f163c4a11628f55a4df523b3ef60405160405180910390a4612afb600083836001612216565b5050565b600080600090507a184f03e93ff9f4daa797ed6e38ed64bf6a1f0100000000000000008310612b5d577a184f03e93ff9f4daa797ed6e38ed64bf6a1f0100000000000000008381612b5357612b52614737565b5b0492506040810190505b6d04ee2d6d415b85acef81000000008310612b9a576d04ee2d6d415b85acef81000000008381612b9057612b8f614737565b5b0492506020810190505b662386f26fc100008310612bc957662386f26fc100008381612bbf57612bbe614737565b5b0492506010810190505b6305f5e1008310612bf2576305f5e1008381612be857612be7614737565b5b0492506008810190505b6127108310612c17576127108381612c0d57612c0c614737565b5b0492506004810190505b60648310612c3a5760648381612c3057612c2f614737565b5b0492506002810190505b600a8310612c49576001810190505b80915050919050565b508054612c5e90613551565b6000825580601f10612c705750612c8f565b601f016020900490600052602060002090810190612c8e9190612c92565b5b50565b5b80821115612cab576000816000905550600101612c93565b5090565b6000604051905090565b600080fd5b600080fd5b60007fffffffff0000000000000000000000000000000000000000000000000000000082169050919050565b612cf881612cc3565b8114612d0357600080fd5b50565b600081359050612d1581612cef565b92915050565b600060208284031215612d3157612d30612cb9565b5b6000612d3f84828501612d06565b91505092915050565b60008115159050919050565b612d5d81612d48565b82525050565b6000602082019050612d786000830184612d54565b92915050565b600081519050919050565b600082825260208201905092915050565b60005b83811015612db8578082015181840152602081019050612d9d565b60008484015250505050565b6000601f19601f8301169050919050565b6000612de082612d7e565b612dea8185612d89565b9350612dfa818560208601612d9a565b612e0381612dc4565b840191505092915050565b60006020820190508181036000830152612e288184612dd5565b905092915050565b6000819050919050565b612e4381612e30565b8114612e4e57600080fd5b50565b600081359050612e6081612e3a565b92915050565b600060208284031215612e7c57612e7b612cb9565b5b6000612e8a84828501612e51565b91505092915050565b600073ffffffffffffffffffffffffffffffffffffffff82169050919050565b6000612ebe82612e93565b9050919050565b612ece81612eb3565b82525050565b6000602082019050612ee96000830184612ec5565b92915050565b612ef881612eb3565b8114612f0357600080fd5b50565b600081359050612f1581612eef565b92915050565b60008060408385031215612f3257612f31612cb9565b5b6000612f4085828601612f06565b9250506020612f5185828601612e51565b9150509250929050565b600080fd5b600080fd5b7f4e487b7100000000000000000000000000000000000000000000000000000000600052604160045260246000fd5b612f9d82612dc4565b810181811067ffffffffffffffff82111715612fbc57612fbb612f65565b5b80604052505050565b6000612fcf612caf565b9050612fdb8282612f94565b919050565b600067ffffffffffffffff821115612ffb57612ffa612f65565b5b61300482612dc4565b9050602081019050919050565b82818337600083830152505050565b600061303361302e84612fe0565b612fc5565b90508281526020810184848401111561304f5761304e612f60565b5b61305a848285613011565b509392505050565b600082601f83011261307757613076612f5b565b5b8135613087848260208601613020565b91505092915050565b600080604083850312156130a7576130a6612cb9565b5b600083013567ffffffffffffffff8111156130c5576130c4612cbe565b5b6130d185828601613062565b92505060206130e285828601612f06565b9150509250929050565b60008060006060848603121561310557613104612cb9565b5b600061311386828701612f06565b935050602061312486828701612f06565b925050604061313586828701612e51565b9150509250925092565b60006020828403121561315557613154612cb9565b5b600061316384828501612f06565b91505092915050565b61317581612e30565b82525050565b6000602082019050613190600083018461316c565b92915050565b6000602082840312156131ac576131ab612cb9565b5b600082013567ffffffffffffffff8111156131ca576131c9612cbe565b5b6131d684828501613062565b91505092915050565b600060808201905081810360008301526131f98187612dd5565b90506132086020830186612ec5565b6132156040830185612d54565b613222606083018461316c565b95945050505050565b61323481612d48565b811461323f57600080fd5b50565b6000813590506132518161322b565b92915050565b6000806040838503121561326e5761326d612cb9565b5b600083013567ffffffffffffffff81111561328c5761328b612cbe565b5b61329885828601613062565b92505060206132a985828601613242565b9150509250929050565b6000806000606084860312156132cc576132cb612cb9565b5b60006132da86828701612f06565b93505060206132eb86828701612e51565b925050604084013567ffffffffffffffff81111561330c5761330b612cbe565b5b61331886828701613062565b9150509250925092565b6000806040838503121561333957613338612cb9565b5b600061334785828601612f06565b925050602061335885828601613242565b9150509250929050565b600067ffffffffffffffff82111561337d5761337c612f65565b5b61338682612dc4565b9050602081019050919050565b60006133a66133a184613362565b612fc5565b9050828152602081018484840111156133c2576133c1612f60565b5b6133cd848285613011565b509392505050565b600082601f8301126133ea576133e9612f5b565b5b81356133fa848260208601613393565b91505092915050565b6000806000806080858703121561341d5761341c612cb9565b5b600061342b87828801612f06565b945050602061343c87828801612f06565b935050604061344d87828801612e51565b925050606085013567ffffffffffffffff81111561346e5761346d612cbe565b5b61347a878288016133d5565b91505092959194509250565b6000806040838503121561349d5761349c612cb9565b5b60006134ab85828601612f06565b925050602083013567ffffffffffffffff8111156134cc576134cb612cbe565b5b6134d885828601613062565b9150509250929050565b600080604083850312156134f9576134f8612cb9565b5b600061350785828601612f06565b925050602061351885828601612f06565b9150509250929050565b7f4e487b7100000000000000000000000000000000000000000000000000000000600052602260045260246000fd5b6000600282049050600182168061356957607f821691505b60208210810361357c5761357b613522565b5b50919050565b7f4552433732313a20617070726f76616c20746f2063757272656e74206f776e6560008201527f7200000000000000000000000000000000000000000000000000000000000000602082015250565b60006135de602183612d89565b91506135e982613582565b604082019050919050565b6000602082019050818103600083015261360d816135d1565b9050919050565b7f4552433732313a20617070726f76652063616c6c6572206973206e6f7420746f60008201527f6b656e206f776e6572206f7220617070726f76656420666f7220616c6c000000602082015250565b6000613670603d83612d89565b915061367b82613614565b604082019050919050565b6000602082019050818103600083015261369f81613663565b9050919050565b600081905092915050565b60006136bc82612d7e565b6136c681856136a6565b93506136d6818560208601612d9a565b80840191505092915050565b60006136ee82846136b1565b915081905092915050565b7f4552433732313a2063616c6c6572206973206e6f7420746f6b656e206f776e6560008201527f72206f7220617070726f76656400000000000000000000000000000000000000602082015250565b6000613755602d83612d89565b9150613760826136f9565b604082019050919050565b6000602082019050818103600083015261378481613748565b9050919050565b7f4275726e696e67206f6e6c7920617661696c61626c6520746f20636f6e74726160008201527f6374206f776e6572206f722070726f6a656374206f776e657200000000000000602082015250565b60006137e7603983612d89565b91506137f28261378b565b604082019050919050565b60006020820190508181036000830152613816816137da565b9050919050565b7f4552433732313a20696e76616c696420746f6b656e2049440000000000000000600082015250565b6000613853601883612d89565b915061385e8261381d565b602082019050919050565b6000602082019050818103600083015261388281613846565b9050919050565b7f4552433732313a2061646472657373207a65726f206973206e6f74206120766160008201527f6c6964206f776e65720000000000000000000000000000000000000000000000602082015250565b60006138e5602983612d89565b91506138f082613889565b604082019050919050565b60006020820190508181036000830152613914816138d8565b9050919050565b7f4d7573742062652070726f6a656374206f776e65720000000000000000000000600082015250565b6000613951601583612d89565b915061395c8261391b565b602082019050919050565b6000602082019050818103600083015261398081613944565b9050919050565b7f546f6b656e206973206e6f7420737570706f7274656400000000000000000000600082015250565b60006139bd601683612d89565b91506139c882613987565b602082019050919050565b600060208201905081810360008301526139ec816139b0565b9050919050565b7f506c656173652070617920726571756972656420616d6f756e74000000000000600082015250565b6000613a29601a83612d89565b9150613a34826139f3565b602082019050919050565b60006020820190508181036000830152613a5881613a1c565b9050919050565b6000604082019050613a746000830185612ec5565b613a816020830184612ec5565b9392505050565b600081519050613a9781612e3a565b92915050565b600060208284031215613ab357613ab2612cb9565b5b6000613ac184828501613a88565b91505092915050565b7f4e6f7420617070726f76656420746f2073656e642062616c616e63652072657160008201527f7565737465640000000000000000000000000000000000000000000000000000602082015250565b6000613b26602683612d89565b9150613b3182613aca565b604082019050919050565b60006020820190508181036000830152613b5581613b19565b9050919050565b6000606082019050613b716000830186612ec5565b613b7e6020830185612ec5565b613b8b604083018461316c565b949350505050565b600081519050613ba28161322b565b92915050565b600060208284031215613bbe57613bbd612cb9565b5b6000613bcc84828501613b93565b91505092915050565b7f5472616e73616374696f6e20776173206e6f74207375636365737366756c0000600082015250565b6000613c0b601e83612d89565b9150613c1682613bd5565b602082019050919050565b60006020820190508181036000830152613c3a81613bfe565b9050919050565b7f4e487b7100000000000000000000000000000000000000000000000000000000600052601160045260246000fd5b6000613c7b82612e30565b9150613c8683612e30565b9250828201905080821115613c9e57613c9d613c41565b5b92915050565b60008190508160005260206000209050919050565b60006020601f8301049050919050565b600082821b905092915050565b600060088302613d067fffffffffffffffffffffffffffffffffffffffffffffffffffffffffffffffff82613cc9565b613d108683613cc9565b95508019841693508086168417925050509392505050565b6000819050919050565b6000613d4d613d48613d4384612e30565b613d28565b612e30565b9050919050565b6000819050919050565b613d6783613d32565b613d7b613d7382613d54565b848454613cd6565b825550505050565b600090565b613d90613d83565b613d9b818484613d5e565b505050565b5b81811015613dbf57613db4600082613d88565b600181019050613da1565b5050565b601f821115613e0457613dd581613ca4565b613dde84613cb9565b81016020851015613ded578190505b613e01613df985613cb9565b830182613da0565b50505b505050565b600082821c905092915050565b6000613e2760001984600802613e09565b1980831691505092915050565b6000613e408383613e16565b9150826002028217905092915050565b613e5982612d7e565b67ffffffffffffffff811115613e7257613e71612f65565b5b613e7c8254613551565b613e87828285613dc3565b600060209050601f831160018114613eba5760008415613ea8578287015190505b613eb28582613e34565b865550613f1a565b601f198416613ec886613ca4565b60005b82811015613ef057848901518255600182019150602085019450602081019050613ecb565b86831015613f0d5784890151613f09601f891682613e16565b8355505b6001600288020188555050505b505050505050565b7f4d696e74696e67206f6e6c7920617661696c61626c6520746f20636f6e74726160008201527f6374206f776e6572206f722070726f6a656374206f776e657200000000000000602082015250565b6000613f7e603983612d89565b9150613f8982613f22565b604082019050919050565b60006020820190508181036000830152613fad81613f71565b9050919050565b7f4f776e61626c653a206e6577206f776e657220697320746865207a65726f206160008201527f6464726573730000000000000000000000000000000000000000000000000000602082015250565b6000614010602683612d89565b915061401b82613fb4565b604082019050919050565b6000602082019050818103600083015261403f81614003565b9050919050565b7f4f776e61626c653a2063616c6c6572206973206e6f7420746865206f776e6572600082015250565b600061407c602083612d89565b915061408782614046565b602082019050919050565b600060208201905081810360008301526140ab8161406f565b9050919050565b7f4552433732313a207472616e736665722066726f6d20696e636f72726563742060008201527f6f776e6572000000000000000000000000000000000000000000000000000000602082015250565b600061410e602583612d89565b9150614119826140b2565b604082019050919050565b6000602082019050818103600083015261413d81614101565b9050919050565b7f4552433732313a207472616e7366657220746f20746865207a65726f2061646460008201527f7265737300000000000000000000000000000000000000000000000000000000602082015250565b60006141a0602483612d89565b91506141ab82614144565b604082019050919050565b600060208201905081810360008301526141cf81614193565b9050919050565b7f4552433732313a20617070726f766520746f2063616c6c657200000000000000600082015250565b600061420c601983612d89565b9150614217826141d6565b602082019050919050565b6000602082019050818103600083015261423b816141ff565b9050919050565b7f4552433732313a207472616e7366657220746f206e6f6e20455243373231526560008201527f63656976657220696d706c656d656e7465720000000000000000000000000000602082015250565b600061429e603283612d89565b91506142a982614242565b604082019050919050565b600060208201905081810360008301526142cd81614291565b9050919050565b60006142e082856136b1565b91506142ec82846136b1565b91508190509392505050565b7f7b00000000000000000000000000000000000000000000000000000000000000600082015250565b600061432e6001836136a6565b9150614339826142f8565b600182019050919050565b7f226e616d65223a2022536f756c426f756e645365637572697479202d20000000600082015250565b600061437a601d836136a6565b915061438582614344565b601d82019050919050565b7f222c000000000000000000000000000000000000000000000000000000000000600082015250565b60006143c66002836136a6565b91506143d182614390565b600282019050919050565b7f226465736372697074696f6e223a2022536f756c426f756e645365637572697460008201527f7920546f6b656e222c0000000000000000000000000000000000000000000000602082015250565b60006144386029836136a6565b9150614443826143dc565b602982019050919050565b7f7d00000000000000000000000000000000000000000000000000000000000000600082015250565b60006144846001836136a6565b915061448f8261444e565b600182019050919050565b60006144a582614321565b91506144b08261436d565b91506144bc82846136b1565b91506144c7826143b9565b91506144d28261442b565b91506144dd82614477565b915081905092915050565b7f646174613a6170706c69636174696f6e2f6a736f6e3b6261736536342c000000600082015250565b600061451e601d836136a6565b9150614529826144e8565b601d82019050919050565b600061453f82614511565b915061454b82846136b1565b915081905092915050565b7f45524337323155524953746f726167653a2055524920736574206f66206e6f6e60008201527f6578697374656e7420746f6b656e000000000000000000000000000000000000602082015250565b60006145b2602e83612d89565b91506145bd82614556565b604082019050919050565b600060208201905081810360008301526145e1816145a5565b9050919050565b7f546f6b656e206e6f74207472616e7366657261626c6500000000000000000000600082015250565b600061461e601683612d89565b9150614629826145e8565b602082019050919050565b6000602082019050818103600083015261464d81614611565b9050919050565b600081519050919050565b600082825260208201905092915050565b600061467b82614654565b614685818561465f565b9350614695818560208601612d9a565b61469e81612dc4565b840191505092915050565b60006080820190506146be6000830187612ec5565b6146cb6020830186612ec5565b6146d8604083018561316c565b81810360608301526146ea8184614670565b905095945050505050565b60008151905061470481612cef565b92915050565b6000602082840312156147205761471f612cb9565b5b600061472e848285016146f5565b91505092915050565b7f4e487b7100000000000000000000000000000000000000000000000000000000600052601260045260246000fd5b600061477182612e30565b915061477c83612e30565b92508261478c5761478b614737565b5b828204905092915050565b60006147a282612e30565b91506147ad83612e30565b92508282026147bb81612e30565b915082820484148315176147d2576147d1613c41565b5b5092915050565b7f4552433732313a206d696e7420746f20746865207a65726f2061646472657373600082015250565b600061480f602083612d89565b915061481a826147d9565b602082019050919050565b6000602082019050818103600083015261483e81614802565b9050919050565b7f4552433732313a20746f6b656e20616c7265616479206d696e74656400000000600082015250565b600061487b601c83612d89565b915061488682614845565b602082019050919050565b600060208201905081810360008301526148aa8161486e565b905091905056fe4142434445464748494a4b4c4d4e4f505152535455565758595a6162636465666768696a6b6c6d6e6f707172737475767778797a303132333435363738392b2fa2646970667358221220c94140f7e3af8b9c3b685d2c2b6d61f84b6c640398eaef211fa9da45ec37484864736f6c63430008130033",
  "linkReferences": {},
  "deployedLinkReferences": {}
}